S01200002E2E2F464548526F626F742E7331397E
S32D0000C00000000020CDF4000029F8000029F8000029F8000029F8000029F800000000000000000000000000008C
S32D0000C0280000000029F8000029F800000000000029F8000029F8000029F8000029F8000029F8000029F80000E2
S32D0000C05029F8000029F8000029F8000029F8000029F8000029F8000029F8000029F8000029F8000029F8000078
S32D0000C07829F8000029F8000029F8000029F8000029F8000029F8000029F8000029F8000029F8000029F8000050
S32D0000C0A029F8000029F8000029F8000029F8000029F8000029F8000029F8000029F8000029F8000029F8000028
S32D0000C0C829F8000029F8000029F8000029F8000029F8000029F8000029F8000029F8000029F8000029F8000000
S32D0000C0F029F80000DD65010029F8000029F8000029F8000029F8000029F8000029F8000029F8000029F80000B6
S32D0000C11829F8000029F8000029F8000029F8000029F8000029F8000029F8000029F8000029F8000029F80000AF
S32D0000C14029F8000029F8000029F8000029F80000D52F010029F8000029F8000029F8000029F8000029F80000A3
S32D0000C16829F8000029F8000029F8000029F8000029F8000029F8000029F8000029F8000029F8000029F800005F
S32D0000C19029F8000029F8000029F80000412A01009D2801006D29010079F80000152B010029F8000029F8000061
S32D0000C1B829F8000029F8000029F8000029F8000029F8000029F8000029F8000029F8000029F8000029F800000F
S32D0000C41081F0004102E000BF83F0004330B54FEA41044FEA430594EA050F08BF90EA020F1FBF54EA000C55EAC6
S32D0000C438020C7FEA645C7FEA655C00F0E2804FEA5454D4EB5555B8BF6D420CDD2C4480EA020281EA030382EA0F
S32D0000C460000083EA010180EA020281EA0303362D88BF30BD11F0004F4FEA01314FF4801C4CEA113102D0404263
S32D0000C48861EB410113F0004F4FEA03334CEA133302D0524263EB430394EA050F00F0A780A4F10104D5F1200E8A
S32D0000C4B00DDB02FA0EFC22FA05F2801841F1000103FA0EF2801843FA05F359410EE0A5F120050EF1200E012A2D
S32D0000C4D803FA0EFC28BF4CF0020C43FA05F3C01851EBE37101F0004507D54FF0000EDCF1000C7EEB00006EEB67
S32D0000C5000101B1F5801F1BD3B1F5001F0CD349085FEA30004FEA3C0C04F101044FEA445212F5800F80F09A8000
S32D0000C528BCF1004F08BF5FEA500C50F1000041EB045141EA050130BD5FEA4C0C404141EB010111F4801FA4F114
S32D0000C5500104E9D191F0000F04BF01460020B1FA81F308BF2033A3F10B03B3F120020CDA0C3208DD02F1140C87
S32D0000C578C2F10C0201FA0CF021FA02F10CE002F11402D8BFC2F1200C01FA02F120FA0CFCDCBF41EA0C019040B1
S32D0000C5A0E41AA2BF01EB0451294330BD6FEA04041F3C1CDA0C340EDC04F11404C4F1200220FA04F001FA02F3B6
S32D0000C5C840EA030021FA04F345EA030130BDC4F10C04C4F1200220FA02F001FA04F340EA0300294630BD21FAA8
S32D0000C5F004F0294630BD94F0000F83F4801306BF81F480110134013D4EE77FEA645C18BF7FEA655C29D094EA1C
S32D0000C618050F08BF90EA020F05D054EA000C04BF1946104630BD91EA030F1EBF0021002030BD5FEA545C05D1A3
S32D0000C6404000494128BF41F0004130BD14F580043CBF01F5801130BD01F0004545F0FE4141F470014FF0000031
S32D0000C66830BD7FEA645C1ABF194610467FEA655C1CBF0B46024650EA013406BF52EA033591EA030F41F40021D7
S32D0000C69030BD00BF90F0000F04BF0021704730B54FF4806404F132044FF000054FF0000150E700BF90F0000F66
S32D0000C6B804BF0021704730B54FF4806404F1320410F0004548BF40424FF000013EE700BF42004FEAE2014FEAF9
S32D0000C6E031014FEA02701FBF12F07F4393F07F4F81F06051704792F0000F14BF93F07F4F704730B54FF460741B
S32D0000C70801F0004521F0004120E700BF50EA010208BF704730B54FF000050AE050EA010208BF704730B511F046
S32D0000C730004502D5404261EB41014FF4806404F132045FEA915C3FF4DCAE4FF003025FEADC0C18BF03325FEAA0
S32D0000C758DC0C18BF033202EBDC02C2F1200300FA03FC20FA02F001FA03FE40EA0E0021FA02F11444C1E600BF19
S32D0000C78070B54FF0FF0C4CF4E06C1CEA11541DBF1CEA135594EA0C0F95EA0C0F00F0DEF82C4481EA030621EAF3
S32D0000C7A84C5123EA4C5350EA013518BF52EA033541F4801143F4801338D0A0FB02CE4FF00005E1FB02E506F05F
S32D0000C7D00042E0FB03E54FF00006E1FB03569CF0000F18BF4EF0010EA4F1FF04B6F5007F64F5407404D25FEA0F
S32D0000C7F84E0E6D4146EB060642EAC62141EA55514FEAC52040EA5E504FEACE2EB4F1FD0C88BFBCF5E06F1ED8D2
S32D0000C820BEF1004F08BF5FEA500E50F1000041EB045170BD06F0004646EA010140EA020081EA0301B4EB5C0487
S32D0000C848C2BFD4EB0C0541EA045170BD41F480114FF0000E013C00F3AB8014F1360FDEBF002001F0004170BDF0
S32D0000C870C4F10004203C35DA0C341BDC04F11404C4F1200500FA05F320FA04F001FA05F240EA020001F0004207
S32D0000C89821F0004110EBD37021FA04F642EB06015EEA430E08BF20EAD37070BDC4F10C04C4F1200500FA04F32F
S32D0000C8C020FA05F001FA04F240EA020001F0004110EBD37041F100015EEA430E08BF20EAD37070BDC4F12005C7
S32D0000C8E800FA05F24EEA020E20FA04F301FA05F243EA020321FA04F001F0004121FA04F220EA020000EBD37028
S32D0000C9105EEA430E08BF20EAD37070BD94F0000F0FD101F00046400041EB010111F4801F08BF013CF7D041EA6D
S32D0000C938060195F0000F18BF704703F00046520043EB030313F4801F08BF013DF7D043EA0603704794EA0C0FF1
S32D0000C9600CEA135518BF95EA0C0F0CD050EA410618BF52EA4306D1D181EA030101F000414FF0000070BD50EA38
S32D0000C988410606BF1046194652EA430619D094EA0C0F02D150EA013613D195EA0C0F05D152EA03361CBF10467B
S32D0000C9B019460AD181EA030101F0004141F0FE4141F470014FF0000070BD41F0FE4141F4780170BD70B54FF04D
S32D0000C9D8FF0C4CF4E06C1CEA11541DBF1CEA135594EA0C0F95EA0C0F00F0A7F8A4EB050481EA030E52EA03359B
S32D0000CA004FEA013100F088804FEA03334FF0805545EA131343EA12634FEA022245EA111545EA10654FEA002676
S32D0000CA280EF000419D4208BF964244F1FD0404F5407402D25B084FEA3202B61A65EB03055B084FEA32024FF461
S32D0000CA5080104FF4002CB6EB020E75EB030E22BFB61A754640EA0C005B084FEA3202B6EB020E75EB030E22BF22
S32D0000CA78B61A754640EA5C005B084FEA3202B6EB020E75EB030E22BFB61A754640EA9C005B084FEA3202B6EBEA
S32D0000CAA0020E75EB030E22BFB61A754640EADC0055EA060E18D04FEA051545EA16754FEA06164FEAC30343EAAC
S32D0000CAC852734FEAC2025FEA1C1CC0D111F4801F0BD141EA00014FF000004FF0004CB6E711F4801F04BF0143AE
S32D0000CAF00020B4F1FD0C88BFBCF5E06F3FF6AFAEB5EB030C04BFB6EB020C5FEA500C50F1000041EB045170BDBC
S32D0000CB180EF0004E4EEA113114EB5C04C2BFD4EB0C0541EA045170BD41F480114FF0000E013C90E645EA060EC3
S32D0000CB408DE60CEA135594EA0C0F08BF95EA0C0F3FF43BAF94EA0C0F0AD150EA01347FF434AF95EA0C0F7FF499
S32D0000CB6825AF104619462CE795EA0C0F06D152EA03353FF4FDAE1046194622E750EA410618BF52EA43067FF432
S32D0000CB90C5AE50EA41047FF40DAF52EA43057FF4EBAE12E74FF0FF3C06E000BF4FF0010C02E000BF4FF0010C75
S32D0000CBB84DF804CD4FEA410C7FEA6C5C4FEA430C18BF7FEA6C5C1BD001B050EA410C0CBF52EA430C91EA030FEC
S32D0000CBE002BF90EA020F0020704710F1000F91EA030F58BF994208BF90422CBFD8176FEAE37040F0010070476E
S32D0000CC084FEA410C7FEA6C5C02D150EA013C07D14FEA430C7FEA6C5CD6D152EA033CD3D05DF8040B704700BFCD
S32D0000CC308446104662468C461946634600E000BF01B5FFF7B7FF002848BF10F1000F01BD4DF808EDFFF7F4FF13
S32D0000CC580CBF012000205DF808FB00BF4DF808EDFFF7EAFF34BF012000205DF808FB00BF4DF808EDFFF7E0FF18
S32D0000CC8094BF012000205DF808FB00BF4DF808EDFFF7CEFF94BF012000205DF808FB00BF4DF808EDFFF7C4FF40
S32D0000CCA834BF012000205DF808FB00BF4FEA410212F5001215D211D56FF47873B3EB625212D94FEAC12343F0D6
S32D0000CCD0004343EA505311F0004F23FA02F018BF404270474FF00000704750EA013005D111F0004008BF6FF016
S32D0000CCF8004070474FF00000704700BF4A0011D212F5001211D20DD56FF47873B3EB62520ED44FEAC12343F085
S32D0000CD20004343EA505323FA02F070474FF00000704750EA013002D14FF0FF3070474FF0000070474FEA410241
S32D0000CD48B2F1E04324BFB3F5001CDCF1FE5C0DD901F0004C4FEAC0024CEA5070B2F1004F40EB830008BF20F09E
S32D0000CD700100704711F0804F21D113F13872BCBF01F00040704741F480114FEA5252C2F11802C2F1200C10FAB1
S32D0000CD980CF320FA02F018BF40F001004FEAC1234FEAD32303FA0CFC40EA0C0023FA02F34FEA4303CCE77FEA26
S32D0000CDC0625307D150EA01331EBF4FF0FE4040F44000704701F0004040F0FE4040F40000704700BF80F00040CC
S32D0000CDE802E000BF81F0004142001FBF5FEA410392EA030F7FEA226C7FEA236C6AD04FEA1262D2EB1363C1BF06
S32D0000CE10D218414048404140B8BF5B42192B88BF704710F0004F40F4000020F07F4018BF404211F0004F41F4FA
S32D0000CE38000121F07F4118BF494292EA030F3FD0A2F1010241FA03FC10EB0C00C3F1200301FA03F100F000432B
S32D0000CE6002D5494260EB4000B0F5000F13D3B0F1807F06D340084FEA310102F10102FE2A51D2B1F1004F40EB94
S32D0000CE88C25008BF20F0010040EA03007047490040EB000010F4000FA2F10102EDD1B0FA80FCACF1080CB2EB5F
S32D0000CEB00C0200FA0CF0AABF00EBC25052421843BCBFD0401843704792F0000F81F4000106BF80F400000132EB
S32D0000CED8013BB5E74FEA41037FEA226C18BF7FEA236C21D092EA030F04D092F0000F08BF0846704790EA010FD7
S32D0000CF001CBF0020704712F07F4F04D1400028BF40F00040704712F100723CBF00F50000704700F0004343F0DC
S32D0000CF28FE4040F4000070477FEA226216BF08467FEA23630146420206BF5FEA412390EA010F40F480007047C1
S32D0000CF504FF0000304E000BF10F0004348BF40425FEA000C08BF704743F0964301464FF000001CE050EA010264
S32D0000CF7808BF70474FF000030AE000BF50EA010208BF704711F0004302D5404261EB41015FEA010C02BF84465B
S32D0000CFA00146002043F0B64308BFA3F18053A3F50003BCFA8CF2083AA3EBC25310DB01FA02FC634400FA02FC6B
S32D0000CFC8C2F12002BCF1004F20FA02F243EB020008BF20F00100704702F1200201FA02FCC2F1200250EA4C0034
S32D0000CFF021FA02F243EB020008BF20EADC7070474FF0FF0C1CEAD0521EBF1CEAD15392EA0C0F93EA0C0F6FD019
S32D0000D0181A4480EA010C400218BF5FEA41211ED04FF0006343EA501043EA5111A0FB01310CF00040B1F5000FE7
S32D0000D0403EBF490041EAD3715B0040EA010062F17F02FD2A1DD8B3F1004F40EBC25008BF20F00100704790F058
S32D0000D068000F0CF0004C08BF49024CEA502040EA51207F3AC2BFD2F1FF0340EAC250704740F400004FF0000388
S32D0000D090013A5DDC12F1190FDCBF00F000407047C2F10002410021FA02F1C2F1200200FA02FC5FEA310040F1D5
S32D0000D0B8000053EA4C0308BF20EADC70704792F0000F00F0004C02BF400010F4000F013AF9D040EA0C0093F04C
S32D0000D0E0000F01F0004C02BF490011F4000F013BF9D041EA0C018FE70CEAD15392EA0C0F18BF93EA0C0F0AD00B
S32D0000D10830F0004C18BF31F0004CD8D180EA010000F00040704790F0000F17BF90F0004F084691F0000F91F0BB
S32D0000D130004F14D092EA0C0F01D142020FD193EA0C0F03D14B0218BF084608D180EA010000F0004040F0FE4051
S32D0000D15840F40000704740F0FE4040F4400070474FF0FF0C1CEAD0521EBF1CEAD15392EA0C0F93EA0C0F69D044
S32D0000D180A2EB030280EA010C49024FEA402037D04FF0805343EA111143EA10130CF000408B4238BF5B0042F14E
S32D0000D1A87D024FF4000C8B4224BF5B1A40EA0C00B3EB510F24BFA3EB510340EA5C00B3EB910F24BFA3EB9103A4
S32D0000D1D040EA9C00B3EBD10F24BFA3EBD10340EADC001B0118BF5FEA1C1CE0D1FD2A3FF650AF8B4240EBC25018
S32D0000D1F808BF20F0010070470CF0004C4CEA50207F32C2BFD2F1FF0340EAC250704740F400004FF00003013AF1
S32D0000D22037E792F0000F00F0004C02BF400010F4000F013AF9D040EA0C0093F0000F01F0004C02BF490011F4C9
S32D0000D248000F013BF9D041EA0C0195E70CEAD15392EA0C0F08D142027FF47DAF93EA0C0F7FF470AF084676E7AE
S32D0000D27093EA0C0F04D14B023FF44CAF08466EE730F0004C18BF31F0004CCAD130F000427FF45CAF31F0004376
S32D0000D2987FF43CAF5FE700BF4FF0FF3C06E000BF4FF0010C02E000BF4FF0010C4DF804CD4FEA40024FEA41039F
S32D0000D2C07FEA226C18BF7FEA236C11D001B052EA530C18BF90EA010F58BFB2EB030088BFC81738BF6FEAE1706E
S32D0000D2E818BF40F0010070477FEA226C02D15FEA402C05D17FEA236CE4D15FEA412CE1D05DF8040B704700BF16
S32D0000D310844608466146FFE70FB5FFF7C9FF002848BF10F1000F0FBD4DF808EDFFF7F4FF0CBF012000205DF839
S32D0000D33808FB00BF4DF808EDFFF7EAFF34BF012000205DF808FB00BF4DF808EDFFF7E0FF94BF012000205DF8A9
S32D0000D36008FB00BF4DF808EDFFF7D2FF94BF012000205DF808FB00BF4DF808EDFFF7C8FF34BF012000205DF8B1
S32D0000D38808FB00BF4FEA4002B2F1FE4F0FD34FF09E03B3EB12620DD94FEA002343F0004310F0004F23FA02F060
S32D0000D3B018BF404270474FF00000704712F1610F01D1420205D110F0004008BF6FF0004070474FF00000704797
S32D0000D3D880B483B000AF78607B68184607F10C07BD4680BC704700BF80B582B000AF786039607B68012B0AD1C7
S32D0000D4003A684FF6FF739A4205D141F21C10C1F6FF70FFF7E1FF07F10807BD4680BD00BF80B500AF4FF001006E
S32D0000D4284FF6FF71FFF7E0FF80BD00BF80B483B000AF78607B6823F00043184607F10C07BD4680BC704700BF0B
S32D0000D450B0B588B000AF78604FF00003FB774FF00003BB7741F24C10C1F6FF7005F0B8FBB86141F25010C1F6A2
S32D0000D478FF7005F0B1FB786104F0F0FD02460B4610461946FFF75AFC03463B611DE041F25010C1F6FF7005F092
S32D0000D4A09FFB03461846FFF757FD03464FF00102144618467968FFF75FFF0346002B02D14FF000031C46E3B2DB
S32D0000D4C8002B02D04FF0000366E004F0C7FD04460D463869FFF7FCF802460B4620462946FEF796FF02460B4640
S32D0000D4F04FF001010C46104619462DA3D3E90023FFF7B0FB0346002B02D14FF000031C46E3B2002BBFD141F208
S32D0000D5184C10C1F6FF7005F05FFBF86041F25010C1F6FF7005F058FBB860BA687B69D31A312B10DC4FF0010325
S32D0000D540BB7741F24840C1F6FF7048F63031C0F201014FF009024FF0010306F0A5FFFA68BB69D31A312B10DC75
S32D0000D5684FF00103FB7741F24840C1F6FF7048F64C31C0F201014FF00A024FF0010306F08FFFFB7F002B05D004
S32D0000D590BB7F002B02D04FF0010301E04FF00003184607F12007BD46B0BD00BFAFF30080333333333333D33FBE
S32D0000D5B890B583B000AF4FF000037B6041F22010C1F6FF7005F040FB03464FF00102144618464FF08041FFF70F
S32D0000D5E0ADFE0346002B02D14FF000031C46FC7041F22410C1F6FF7005F02AFB03464FF00102144618464FF0F2
S32D0000D6088041FFF797FE0346002B02D14FF000031C46BC7041F22810C1F6FF7005F014FB03464FF00102144617
S32D0000D63018464FF08041FFF781FE0346002B02D14FF000031C467C70BB78002B03D04FF000037B600BE0FB7876
S32D0000D658002B02D04FF002037B607B78002B02D04FF001037B607B68184607F10C07BD4690BD00BF000000001F
S32D0000D68080B582B000AF41F23C10C1F6FF7005F0DFFA03461846FFF71FF802460B46C7E90023D7E9000124A34B
S32D0000D6A8D3E90023FFF7DAFA0346002B1CD041F24840C1F6FF704FF0020106F00DFC41F24840C1F6FF704FF009
S32D0000D6D0010106F063FC41F24840C1F6FF7048F68831C0F2010106F0A7FF4FF001031BE041F24840C1F6FF708E
S32D0000D6F84FF0040106F0F0FB41F24840C1F6FF704FF0010106F046FC41F24840C1F6FF7048F68C31C0F20101F5
S32D0000D72006F08AFF4FF00003184607F10807BD4680BD00BFAFF30080F6285C8FC2F5D83F80B500AF41F2541042
S32D0000D748C1F6FF7002F010F941F25C10C1F6FF7002F00AF941F24C10C1F6FF7005F050FA41F25010C1F6FF702B
S32D0000D77005F04AFA80BD00BF80B500AFFFF7E0FF41F25C10C1F6FF704FF00001C4F2C81102F03EF941F2541049
S32D0000D798C1F6FF704FF00001CCF2C81102F034F923E041F24C10C1F6FF7005F015FA034641F24840C1F6FF7061
S32D0000D7C019464FF004024FF0050306F08DFE41F25010C1F6FF7005F003FA034641F24840C1F6FF7019464FF05C
S32D0000D7E805024FF0050306F07BFE41F25010C1F6FF7005F0F1F90346F22B0BDC41F24C10C1F6FF7005F0E8F9E6
S32D0000D8100346F22B02DC4FF0010301E04FF00003002BC2D1FFF78CFF80BD00BF90B583B000AF7860FFF784FF8D
S32D0000D83841F25410C1F6FF704FF00001CCF2C81102F0E2F841F25C10C1F6FF704FF00001C4F2C81102F0D8F80C
S32D0000D86023E041F24C10C1F6FF7005F0B9F9034641F24840C1F6FF7019464FF004024FF0050306F031FE41F2CE
S32D0000D8885010C1F6FF7005F0A7F9034641F24840C1F6FF7019464FF005024FF0050306F01FFE41F25010C1F6E4
S32D0000D8B0FF7005F095F903461846FFF74DFB04467B6818461946FFF793FA034620461946FFF734FD0346002B5D
S32D0000D8D81AD041F24C10C1F6FF7005F07DF903461846FFF735FB04467B6818461946FFF77BFA034620461946E8
S32D0000D900FFF71CFD0346002B02D04FF0010301E04FF00003002BA4D1FFF712FF07F10C07BD4690BD80B500AF58
S32D0000D928FFF70AFF41F25410C1F6FF704FF00001C4F2C81102F068F841F25C10C1F6FF704FF00001CCF2C81158
S32D0000D95002F05EF823E041F24C10C1F6FF7005F03FF9034641F24840C1F6FF7019464FF004024FF0050306F071
S32D0000D978B7FD41F25010C1F6FF7005F02DF9034641F24840C1F6FF7019464FF005024FF0050306F0A5FD41F218
S32D0000D9A05010C1F6FF7005F01BF90346E52BCCBF00230123DBB2002BCDD1FFF7C1FE80BDB0B582B000AF786039
S32D0000D9C8FFF7BAFE41F25410C1F6FF704FF00001C4F2C81102F018F841F25C10C1F6FF704FF00001CCF2C81159
S32D0000D9F002F00EF823E041F24C10C1F6FF7005F0EFF8034641F24840C1F6FF7019464FF004024FF0050306F072
S32D0000DA1867FD41F25010C1F6FF7005F0DDF8034641F24840C1F6FF7019464FF005024FF0050306F055FD41F268
S32D0000DA405010C1F6FF7005F0CBF803461846FFF783FA05467B6818461946FFF7C9F903464FF00102144628466A
S32D0000DA681946FFF767FC0346002B02D14FF000031C46E3B2002BBAD1FFF75EFE07F10807BD46B0BDB0B582B042
S32D0000DA9000AFFFF755FE04F0E5FA02460B4610461946FFF74FF903467B6041F25410C1F6FF704FF00001C4F23A
S32D0000DAB8C61101F0A9FF41F25C10C1F6FF704FF00001C4F2C81101F09FFF23E041F24C10C1F6FF7005F080F888
S32D0000DAE0034641F24840C1F6FF7019464FF004024FF0050306F0F8FC41F25010C1F6FF7005F06EF8034641F289
S32D0000DB084840C1F6FF7019464FF005024FF0050306F0E6FC41F2B040C1F6FF7009F094FD0346592B2ADC04F0E3
S32D0000DB3099FA04460D467868FEF7CEFD02460B4620462946FEF768FC02460B46104619464FF000024FF000035F
S32D0000DB58C4F21803FFF782F80346002B0ED042F6A210C4F28C40FFF76FFC034683F00103DBB2002B02D04FF0B6
S32D0000DB80010301E04FF00003002BA3D107F10807BD46B0BD80B500AFFFF7D2FD41F25410C1F6FF7049F69A11EA
S32D0000DBA8C4F2ED1101F030FF41F25C10C1F6FF704FF00001C4F2F01101F026FF23E041F24C10C1F6FF7005F0FC
S32D0000DBD007F8034641F24840C1F6FF7019464FF004024FF0050306F07FFC41F25010C1F6FF7004F0F5FF0346B8
S32D0000DBF841F24840C1F6FF7019464FF005024FF0050306F06DFC41F23010C1F6FF7004F09FFB0346002B08D15F
S32D0000DC2041F22C10C1F6FF7004F096FB0346002B02D04FF0010301E04FF00003002BC2D1FFF77EFD80BD00BFE5
S32D0000DC48B0B584B000AF7860FFF776FD04F006FA02460B4610461946FFF770F80346FB6041F25410C1F6FF7024
S32D0000DC7049F69A11C4F2ED1101F0CAFE41F25C10C1F6FF704FF00001C4F2F01101F0C0FE23E041F24C10C1F67B
S32D0000DC98FF7004F0A1FF034641F24840C1F6FF7019464FF004024FF0050306F019FC41F25010C1F6FF7004F08E
S32D0000DCC08FFF034641F24840C1F6FF7019464FF005024FF0050306F007FC41F25010C1F6FF7004F07DFF034627
S32D0000DCE81846FEF7E3FC04460D467868FEF7F0FC02460B461046194629A3D3E90023FEF73BFD02460B46204659
S32D0000DD102946FEF7B1FF0346002B3AD004F0A2F904460D46F868FEF7D7FC02460B4620462946FEF771FB0246E8
S32D0000DD380B46104619464FF000024FF00003C4F21803FEF78BFF0346002B1ED07868FEF7BFFC02460B46104603
S32D0000DD60194611A3D3E90023FEF70AFD02460B4610461946FEF7E6FF03461846FFF768FB034683F00103DBB232
S32D0000DD88002B02D04FF0010301E04FF00003002B7FF47BAFFFF7D0FC07F11007BD46B0BD9C33A2B437B0424073
S32D0000DDB0B0B584B000AFFFF7C3FC04F053F902460B4610461946FEF7BDFF0346FB6041F25410C1F6FF7049F669
S32D0000DDD89A11CCF2ED1101F017FE41F25C10C1F6FF704FF00001CCF2F01101F00DFE48F6B433C0F2010307F11D
S32D0000DE00040293E8030082E8030023E041F24C10C1F6FF7004F0E4FE034641F24840C1F6FF7019464FF00402A7
S32D0000DE284FF0050306F05CFB41F25010C1F6FF7004F0D2FE034641F24840C1F6FF7019464FF005024FF00503A5
S32D0000DE5006F04AFB41F23810C1F6FF7004F07CFA0346002B24D141F23410C1F6FF7004F073FA0346002B1ED095
S32D0000DE7804F0F4F804460D46F868FEF729FC02460B4620462946FEF7C3FA02460B46104619464FF000024FF097
S32D0000DEA00003C4F21803FEF7DDFE0346002B02D04FF0010301E04FF00003002BA6D1FFF73FFC07F11007BD461F
S32D0000DEC8B0BD00BF00000000B0B584B000AF7860FFF732FC04F0C2F802460B4610461946FEF72CFF0346FB60FC
S32D0000DEF041F25410C1F6FF7049F69A11CCF2ED1101F086FD41F25C10C1F6FF704FF00001CCF2F01101F07CFDFF
S32D0000DF1823E041F24C10C1F6FF7004F05DFE034641F24840C1F6FF7019464FF004024FF0050306F0D5FA41F2C7
S32D0000DF405010C1F6FF7004F04BFE034641F24840C1F6FF7019464FF005024FF0050306F0C3FA41F25010C1F6DD
S32D0000DF68FF7004F039FE03461846FEF79FFB04460D467868FEF79AFB02460B461046194629A3D3E90023FEF7C6
S32D0000DF90F7FB02460B4620462946FEF76DFE0346002B3AD004F05EF804460D46F868FEF793FB02460B4620465C
S32D0000DFB82946FEF72DFA02460B46104619464FF000024FF00003C4F21803FEF747FE0346002B1ED07868FEF79D
S32D0000DFE069FB02460B461046194611A3D3E90023FEF7C6FB02460B4610461946FEF7A2FE03461846FFF724FA7A
S32D0000E008034683F00103DBB2002B02D04FF0010301E04FF00003002B7FF47BAFFFF78CFB07F11007BD46B0BD76
S32D0000E0309C33A2B437B04240B0B584B000AF78603960FFF77DFB04F00DF802460B4610461946FEF777FE034613
S32D0000E058FB603B68C3F100031846FEF727FB02460B461046194648A3D3E90023FEF784FB02460B461046194696
S32D0000E080FEF760FE034641F25410C1F6FF70194601F0BEFC3B68C3F100031846FEF75CFF034641F25C10C1F668
S32D0000E0A8FF70194601F0B0FC23E041F24C10C1F6FF7004F091FD034641F24840C1F6FF7019464FF004024FF098
S32D0000E0D0050306F009FA41F25010C1F6FF7004F07FFD034641F24840C1F6FF7019464FF005024FF0050306F0EC
S32D0000E0F8F7F941F25010C1F6FF7004F06DFD03461846FEF7D3FA04460D467868FEF7CEFA02460B461046194602
S32D0000E1201DA3D3E90023FEF72BFB02460B4620462946FEF7A1FD0346002B1ED003F092FF04460D46F868FEF73E
S32D0000E148C7FA02460B4620462946FEF761F902460B46104619464FF000024FF00003C4F21803FEF77BFD0346D3
S32D0000E170002B02D04FF0010301E04FF00003002B97D1FFF7DDFA07F11007BD46B0BD00BFAE47E17A14AEEF3F40
S32D0000E1989C33A2B437B04240B0B584B000AF78603960FFF7C9FA03F059FF02460B4610461946FEF7C3FD0346C2
S32D0000E1C0FB603868FEF776FA02460B46104619464DA3D3E90023FEF7D3FA02460B46104619464BA3D3E90023D7
S32D0000E1E8FEF7CAFA02460B4610461946FEF7A6FD034641F25410C1F6FF70194601F004FC3B68C3F1000318465C
S32D0000E210FEF7A2FE034641F25C10C1F6FF70194601F0F6FB23E041F24C10C1F6FF7004F0D7FC034641F2484079
S32D0000E238C1F6FF7019464FF004024FF0050306F04FF941F25010C1F6FF7004F0C5FC034641F24840C1F6FF70D1
S32D0000E26019464FF005024FF0050306F03DF941F25010C1F6FF7004F0B3FC03461846FEF719FA04460D467868F0
S32D0000E288FEF714FA02460B461046194620A3D3E90023FEF771FA02460B4620462946FEF7E7FC0346002B1ED06D
S32D0000E2B003F0D8FE04460D46F868FEF70DFA02460B4620462946FEF7A7F802460B46104619464FF000024FF0AE
S32D0000E2D80003C4F21803FEF7C1FC0346002B02D04FF0010301E04FF00003002B97D1FFF723FA07F11007BD462E
S32D0000E300B0BD00BFAFF30080AE47E17A14AEEFBFCDCCCCCCCCCCEC3F9C33A2B437B04240B0B584B000AF78603F
S32D0000E3283960FFF709FA03F099FE02460B4610461946FEF703FD0346FB603868FEF7B6F902460B461046194632
S32D0000E3504FA3D3E90023FEF713FA02460B4610461946FEF7EFFC034641F25410C1F6FF70194601F04DFB3B685D
S32D0000E378C3F100031846FEF799F902460B461046194643A3D3E90023FEF7F6F902460B4610461946FEF7D2FCD3
S32D0000E3A0034641F25C10C1F6FF70194601F030FB23E041F24C10C1F6FF7004F011FC034641F24840C1F6FF70E3
S32D0000E3C819464FF004024FF0050306F089F841F25010C1F6FF7004F0FFFB034641F24840C1F6FF7019464FF056
S32D0000E3F005024FF0050306F077F841F25010C1F6FF7004F0EDFB03461846FEF753F904460D467868FEF74EF916
S32D0000E41802460B46104619461FA3D3E90023FEF7ABF902460B4620462946FEF721FC0346002B1ED003F012FE69
S32D0000E44004460D46F868FEF747F902460B4620462946FDF7E1FF02460B46104619464FF000024FF00003C4F2B3
S32D0000E4681803FEF7FBFB0346002B02D04FF0010301E04FF00003002B97D1FFF75DF907F11007BD46B0BD00BFB7
S32D0000E490AE47E17A14AEEFBFCDCCCCCCCCCCEC3F9C33A2B437B04240B0B582B000AF41F25410C1F6FF7046F2E1
S32D0000E4B86661C4F29E1101F0A7FA41F25C10C1F6FF704FF00001C4F2A01101F09DFA03F0C5FD02460B461046E0
S32D0000E4E01946FEF72FFC03467B6023E041F24C10C1F6FF7004F074FB034641F24840C1F6FF7019464FF0040282
S32D0000E5084FF0050305F0ECFF41F25010C1F6FF7004F062FB034641F24840C1F6FF7019464FF005024FF005039E
S32D0000E53005F0DAFFFFF740F80346002B1CD103F091FD04460D467868FEF7C6F802460B4620462946FDF760FFEE
S32D0000E55802460B46104619464FF000024FF08043FEF77CFB0346002B02D04FF0010301E04FF00003002BB5D13B
S32D0000E58041F25410C1F6FF7001F0F2F941F25C10C1F6FF7001F0ECF907F10807BD46B0BDB0B582B000AF41F249
S32D0000E5A85C10C1F6FF704FF0000101F02DFA41F25410C1F6FF704FF00001C4F2701101F023FA03F04BFD024696
S32D0000E5D00B4610461946FEF7B5FB03467B6023E041F24C10C1F6FF7004F0FAFA034641F24840C1F6FF70194625
S32D0000E5F84FF004024FF0050305F072FF41F25010C1F6FF7004F0E8FA034641F24840C1F6FF7019464FF00502A5
S32D0000E6204FF0050305F060FFFEF7C6FF0346012B1CD103F017FD04460D467868FEF74CF802460B4620462946EA
S32D0000E648FDF7E6FE02460B46104619464FF000024FF08043FEF702FB0346002B02D04FF0010301E04FF000039D
S32D0000E670002BB5D141F25410C1F6FF7001F078F941F25C10C1F6FF7001F072F907F10807BD46B0BDB0B582B07D
S32D0000E69800AF41F25410C1F6FF704FF0000101F0B3F941F25C10C1F6FF704FF00001C4F2701101F0A9F903F049
S32D0000E6C0D1FC02460B4610461946FEF73BFB03467B6023E041F24C10C1F6FF7004F080FA034641F24840C1F6E1
S32D0000E6E8FF7019464FF004024FF0050305F0F8FE41F25010C1F6FF7004F06EFA034641F24840C1F6FF70194621
S32D0000E7104FF005024FF0050305F0E6FEFEF74CFF0346022B1CD103F09DFC04460D467868FDF7D2FF02460B466B
S32D0000E73820462946FDF76CFE02460B46104619464FF000024FF08043FEF788FA0346002B02D04FF0010301E00E
S32D0000E7604FF00003002BB5D141F25410C1F6FF7001F0FEF841F25C10C1F6FF7001F0F8F807F10807BD46B0BDD7
S32D0000E788F0B585B000AF786003F068FC02460B4610461946FEF7D2FA0346FB602CE0FEF707FFB86041F248401E
S32D0000E7B0C1F6FF70B9684FF001024FF0010305F093FEBB68012B09D0022B04D0002B08D1FFF76AFE14E0FFF774
S32D0000E7D85DFF11E0FFF7E0FE0EE041F24840C1F6FF7048F6BC31C0F201014FF004024FF0050305F055FE00BFB1
S32D0000E80003F030FC04460D46F868FDF765FF02460B4620462946FDF7FFFD02460B4614461D467868FDF758FF97
S32D0000E82802460B464FF001010E4620462946FEF715FA0346002B02D14FF000031E46F3B2002BACD107F114076E
S32D0000E850BD46F0BDF0B583B000AF7860396041F25010C1F6FF7004F0CFF941F24C10C1F6FF7004F0C9F9786832
S32D0000E878FEF76EFB034641F25C10C1F6FF70194601F0C2F87B68C3F100031846FEF760FB034641F25410C1F61D
S32D0000E8A0FF70194601F0B4F823E041F24C10C1F6FF7004F095F9034641F24840C1F6FF7019464FF004024FF098
S32D0000E8C8050305F00DFE41F25010C1F6FF7004F083F9034641F24840C1F6FF7019464FF005024FF0050305F0E6
S32D0000E8F0FBFD41F24C10C1F6FF7004F071F9044641F25010C1F6FF7004F06AF90346E3181846FDF7CFFE0246EA
S32D0000E9180B46104619464FF000024FF08043FEF755F802460B4614461D463868FDF7BEFE02460B464FF00101C6
S32D0000E9400E4620462946FEF78DF90346002B02D14FF000031E46F3B2002BA6D141F25C10C1F6FF7001F004F81F
S32D0000E96841F25410C1F6FF7000F0FEFF07F10C07BD46F0BDF0B583B000AF7860396041F25010C1F6FF7004F077
S32D0000E9903BF941F24C10C1F6FF7004F035F97B68C3F100031846FEF7D7FA034641F25C10C1F6FF70194601F032
S32D0000E9B82BF87868FEF7CCFA034641F25410C1F6FF70194601F020F823E041F24C10C1F6FF7004F001F9034616
S32D0000E9E041F24840C1F6FF7019464FF004024FF0050305F079FD41F25010C1F6FF7004F0EFF8034641F248403A
S32D0000EA08C1F6FF7019464FF005024FF0050305F067FD41F24C10C1F6FF7004F0DDF8044641F25010C1F6FF70F4
S32D0000EA3004F0D6F80346E3181846FDF73BFE02460B46104619464FF000024FF08043FDF7C1FF02460B461446EF
S32D0000EA581D463868FDF72AFE02460B464FF001010E4620462946FEF7F9F80346002B02D14FF000031E46F3B2F6
S32D0000EA80002BA6D141F25C10C1F6FF7000F070FF41F25410C1F6FF7000F06AFF07F10C07BD46F0BD90B583B059
S32D0000EAA800AF786023E041F2B040C1F6FF7008F011FE03464FF00102144618467968FEF757FC0346002B02D1B3
S32D0000EAD04FF000031C46E3B2002B06D04FF00C004FF00A01FFF74AFF05E04FF00C004FF00A01FFF7AFFE41F2BA
S32D0000EAF8B040C1F6FF7008F0EDFD034618467968FEF770F903461846FEF790FC03464FF00102144618464FF068
S32D0000EB200001C4F24001FEF727FC0346002B02D14FF000031C46E3B2002BB8D107F10C07BD4690BD0000000028
S32D0000EB48B0B586B000AF41F2B040C1F6FF7008F0AFFA03F083FA02460B4610461946FEF7EDF803463B6141F2BB
S32D0000EB703C10C1F6FF7004F06BF8F8604FF000004FF0804103F042FA48E041F23C10C1F6FF7004F05DF8034689
S32D0000EB9841F24840C1F6FF7019464FF004024FF0050305F0BDFC03F059FA04460D463869FDF78EFD02460B4639
S32D0000EBC020462946FDF728FC02460B464FF001010C46104619464FF000024FF00003C4F21403FEF73FF8034694
S32D0000EBE8002B02D14FF000031C46E3B2002B11D041F23C10C1F6FF7004F026F8034641F24840C1F6FF7019467C
S32D0000EC104FF004024FF0050305F086FC41F23C10C1F6FF7004F014F803461846F968FEF79BFA03461846FDF701
S32D0000EC384FFD02460B464FF001010C461046194627A3D3E90023FEF727F80346002B02D14FF000031C46E3B244
S32D0000EC60002B92D14FF00800FFF732F9FEF75AFEFFF79EF84FF00000C4F2D000FEF7E4FF03F0F0F9C7E900018D
S32D0000EC884FF000037B6102E0FEF7F6FC786103F0E5F902460B4610461946D7E90023FDF7B7FB02460B464FF01E
S32D0000ECB001010C46104619464FF000024FF00003C3F6F073FDF7CEFF0346002B02D14FF000031C46E3B2002B22
S32D0000ECD8DAD17B69184607F11807BD46B0BD00BFCDCCCCCCCCCCEC3F80B500AF43F23330C4F27B10FEF7A4FF92
S32D0000ED00FEF710FEFEF7C2FE4FF00A00FFF7E0F84FF01E004FF03C01FFF78EF94FF00000C4F28C30FFF7BEFE5D
S32D0000ED2880BD00BF80B500AF4FF00000C4F29620FEF778FD4FF40040C4F2B330FFF7AEFEFEF724FF4FF00200B1
S32D0000ED50FFF7BEF8FEF7E6FD4FF01A00FFF7B8F84FF000004FF00001C4F2140103F04EF980BD00BF80B500AFAE
S32D0000ED784FF00000C4F29010FEF762FFFEF7CEFDFFF712F84FF00000C4F2C810FEF758FF4FF000004FF000012A
S32D0000EDA0C3F6D07103F032F941F24010C1F6FF704FF00001C4F2F01104F042FB4FF00100FFF786F841F2401025
S32D0000EDC8C1F6FF704FF00001C4F2B42104F034FB4FF00E00FFF778F84FF00000C4F2B810FEF7EAFD4FF000007E
S32D0000EDF0C4F20F30FFF756FE80BD00BF90B587B000AF78604FF00000C4F25010FEF71CFF4FF000037B614FF0F5
S32D0000EE187E50FEF7D1FD4CF6CD40C3F64C50FEF70FFF41F22010C1F6FF7003F00DFF03464FF0010214461846C9
S32D0000EE404FF08041FEF77AFA0346002B02D14FF000031C46FC7341F22410C1F6FF7003F0F7FE03464FF00102E1
S32D0000EE68144618464FF08041FEF764FA0346002B02D14FF000031C46BC7341F22810C1F6FF7003F0E1FE0346AB
S32D0000EE904FF00102144618464FF08041FEF74EFA0346002B02D14FF000031C467C73FB7B41F24840C1F6FF70EC
S32D0000EEB819464FF004024FF0050305F051FBBB7B41F24840C1F6FF7019464FF005024FF0050305F045FB7B7BD2
S32D0000EEE041F24840C1F6FF7019464FF006024FF0050305F039FB41F24840C1F6FF7048F6EC31C0F201014FF0DE
S32D0000EF0807024FF0050305F0CBFA7B6903F101037B61FB7B83F00103DBB2002B11D0BB7B83F00103DBB2002B2E
S32D0000EF300BD07B7B83F00103DBB2002B05D07B69042B02DC4FF0010301E04FF00003002B7FF461AF4FF0000397
S32D0000EF587B614FF07E50FEF765FC4CF6CD40C3F64C50FEF76DFE41F22410C1F6FF7003F06BFE03464FF00102D4
S32D0000EF80144618464FF08041FEF7D8F90346002B02D14FF000031C46BC7341F22810C1F6FF7003F055FE0346AB
S32D0000EFA84FF00102144618464FF08041FEF7C2F90346002B02D14FF000031C467C73FB7B41F24840C1F6FF7060
S32D0000EFD019464FF004024FF0050305F0C5FABB7B41F24840C1F6FF7019464FF005024FF0050305F0B9FA7B7BD3
S32D0000EFF841F24840C1F6FF7019464FF006024FF0050305F0ADFA41F24840C1F6FF7048F6EC31C0F201014FF052
S32D0000F02007024FF0050305F03FFA7B6903F101037B61BB7B83F00103DBB2002B0BD07B7B83F00103DBB2002B27
S32D0000F04805D07B690E2B02DC4FF0010301E04FF00003002B7FF47DAF4FF08040FFF790FB4FF005004FF0140182
S32D0000F070FEF7E2FF41F24010C1F6FF704FF00001C4F2F01104F0DCF94FF07E50FFF77CFB41F24010C1F6FF7010
S32D0000F0984FF00001C4F2342104F0CEF94FF000033B610FE04FF000004FF01901FFF774F84FF000004FF01901E5
S32D0000F0C0FFF72EF93B6903F101033B613B69032BCCBF00230123DBB2002BE7D14FF00600FEF7F6FE41F2401008
S32D0000F0E8C1F6FF704FF00001C4F28C2104F0A4F94FF00000C4F23420FEF794FBFEF754FE4FF00000C4F2400057
S32D0000F110FEF79AFD4FF00000C4F2A020FEF786FB4FF40040C4F28030FFF7BCFC4FF00000C4F2C820FEF788FD2C
S32D0000F1384FF00200FEF7C8FEFEF7F0FBFEF734FE41F24010C1F6FF704FF00001C4F2DC2104F072F97B68002B9D
S32D0000F16006D14FF00000C4F29010FEF76DFD08E07B68012B05D14FF00000C4F2E410FEF763FDFEF7F9FA4FF084
S32D0000F1880000C4F28A20FEF75BFD4FF00000FEF79BFE41F24010C1F6FF704FF00001C4F2701104F049F94FF04A
S32D0000F1B000004FF00001C3F6F07102F027FF4FF001004FF01901FEF737FF41F24010C1F6FF704FF00001C4F25C
S32D0000F1D8B42104F031F94FF002004FF01E01FEF727FF184607F11C07BD4690BD90B585B000AF78607B68002B84
S32D0000F20057D14FF00000C4F2C820FEF70FFB02F029FFC7E9020141F25410C1F6FF704FF00001CCF20C2100F037
S32D0000F228F3FB41F25C10C1F6FF704FF00001CCF2482100F0E9FB0DE041F24840C1F6FF7048F6F831C0F20101E1
S32D0000F2504FF001024FF0010305F026F902F002FF02460B4610461946D7E90223FDF7D4F802460B464FF0010137
S32D0000F2780C46104619464FF000024FF00003C4F21003FDF7EBFC0346002B02D14FF000031C46E3B2002BCFD1EF
S32D0000F2A0FEF76AFA4FF00000C4F28A20FEF7CCFC13E041F25410C1F6FF704FF00001CCF2702100F0A5FB41F289
S32D0000F2C85C10C1F6FF704FF00001CCF2482100F09BFB07F11407BD4690BD00BF80B582B000AFFFF72DFC78606A
S32D0000F2F0FFF7FEFCFFF71AFDFFF73CFD7868FFF77DFD7868FFF776FF07F10807BD4680BD80B500AF41F240107B
S32D0000F318C1F6FF704FF4FA7104F052F841F24010C1F6FF7040F6C41104F068F841F24840C1F6FF7048F61C4131
S32D0000F340C0F2010105F078F941F24010C1F6FF704FF00001C4F2B42104F072F841F24840C1F6FF704FF0000192
S32D0000F36804F0BAFD41F24840C1F6FF704FF0010104F010FEFFF7B2FF4FF00003184680BD80B582B000AF786036
S32D0000F39039607B68012B74D13A684FF6FF739A426FD141F22010C1F6FF704FF01B0103F03FFC41F22410C1F6BD
S32D0000F3B8FF704FF01F0103F037FC41F22810C1F6FF704FF0180103F02FFC41F22C10C1F6FF704FF0050102F060
S32D0000F3E09BFE41F23010C1F6FF704FF0110102F093FE41F23410C1F6FF704FF00E0102F08BFE41F23810C1F661
S32D0000F408FF704FF0140102F083FE41F23C10C1F6FF704FF0080103F007FC41F24010C1F6FF704FF0000103F0E1
S32D0000F430ADFF41F24C10C1F6FF704FF0020103F029F841F25010C1F6FF704FF0000103F021F841F25410C1F6A4
S32D0000F458FF704FF001014FF00002C4F2401200F03BFA41F25C10C1F6FF704FF000014FF00002C4F2401200F02A
S32D0000F4802FFA07F10807BD4680BD00BF80B500AF4FF001004FF6FF71FFF776FF80BD00BF80B500AF41F2147252
S32D0000F4A8C1F6FF7241F21C13C1F6FF73D31A41F21C10C1F6FF704FF000011A4608F0C3FA80BD00BF09F01CFBB0
S32D0000F4D000F0B0F9FFF7E4FF09F0F2FA09F08EFA09F024FB00F00CF84FF0000041F26411C1F6FF71FFF70CFF1B
S32D0000F4F80346184608F082FA80B500AF4FF4E043C4F204034FF4E042C4F2040202F5815202F11802126842F41C
S32D0000F520785203F5815303F118031A6000F02EF900F094F841F29433C1F6FF734FF058021A6041F29433C1F624
S32D0000F548FF731B684FF47A7202FB03F241F29033C1F6FF731A6041F29033C1F6FF731B681A464FF4E043C4F2C8
S32D0000F570040303F5825303F104031B6803F070634FEA136303F10103B2FBF3F31A4641F29833C1F6FF731A601A
S32D0000F5984FF4E043C4F204034FF4E042C4F2040202F5815202F11C02126842F0225203F5815303F11C031A60AD
S32D0000F5C04FF4E043C4F204034FF4E042C4F2040202F5815202F11002126842F0006203F5815303F110031A60AF
S32D0000F5E84FF45043C4F203034FF480721A614FF0640002F083FB4FF45043C4F203034FF45042C4F203025269C3
S32D0000F61022F010025A614FF45043C4F203034FF000021A604FF45043C4F203034FF010025A6103F03FFC03F0E1
S32D0000F638E7FC41F28C30C1F6FF7002F0E3FB41F24840C1F6FF7004F0A9FA41F2883002F0BFFC80BD80B400AFAC
S32D0000F6604FF48043C4F206034FF000025A704FF48043C4F206034FF098021A704FF48043C4F206039B79DBB21E
S32D0000F68803F01003002B0CBF00230123DBB2002BF0D14FF48043C4F206039B79DBB203F00C034FEA9303022B34
S32D0000F6B00CBF00230123DBB2002BEED14FF48043C4F206034FF018021A714FF48043C4F206034FF000025A7129
S32D0000F6D84FF4E043C4F2040303F5825303F104034FF00002C0F213121A604FF48043C4F206034FF054025A7162
S32D0000F70000BF4FF48043C4F206039B79DBB203F02003002B14BF00230123DBB2002BF0D100BF4FF48043C4F267
S32D0000F72806039B79DBB203F04003002B14BF00230123DBB2002BF0D14FF48043C4F206034FF48042C4F206028D
S32D0000F7501278D2B202F03F02D2B21A704FF48043C4F206039B79DBB203F00C034FEA9303032B0CBF00230123C5
S32D0000F778DBB2002BEED14FF000031846BD4680BC704700BF80B400AF4FF44043C4F204034FF480725A634FF2FE
S32D0000F7A0C003C4F20F034FF2C002C4F20F02526942F400525A614FF2C003C4F20F034FF2C002C4F20F021268D8
S32D0000F7C842F400521A604FF44043C4F2040340F20312C0F20A021A634FF46143CEF200034FF46142CEF20002BA
S32D0000F7F0D2F8882142F08062C3F888214FF46143CEF200034FF46142CEF20002926842F080629A60BD4680BC67
S32D0000F818704700BF80B483B000AF7860FEE700BF80B400AF00BEBD4680BC704780B400AF4FF0E0224CF20003BE
S32D0000F840C0F20003C2F8083D4FF40053C4F205034CF22052DA814FF40053C4F205034DF62812DA814FF40053C5
S32D0000F868C4F205034FF0D2021A80BD4680BC704780B500AF4FF44043C4F20403D3F8A03003F48053002B0CBF4F
S32D0000F89000230123DBB2002B1FD04FF44043C4F204034FF44042C4F20402D2F8A02022F48052C3F8A02041F238
S32D0000F8B8D040C1F6FF7008F025F84FF2C003C4F20F034FF2C002C4F20F02126822F400521A6080BD00000000A8
S32D0000F8E080B584B000AFF8600B467A60FB72FB68FA7A1A71FB684FF000025A7178684FF00001C4F24011FDF706
S32D0000F90837FD0346002B05D04FF00003C4F240137B600AE078684FF07E51FDF715FD0346002B02D04FF07E53FA
S32D0000F9307B607868FCF7D0FE02460B461046194609A3D3E90023FCF71BFF02460B4610461946FDF7F7F90246CD
S32D0000F958FB681A60FB68184607F11007BD4680BDABAAAAAAAAAA204080B582B000AF78607B685B79002B10D087
S32D0000F9807B684FF000025A717B681B7941F28C30C1F6FF7019464FF000024FF01E0302F07FFA07F10807BD4669
S32D0000F9A880BD00BF80B584B000AF786039603B687F2B03DD4FF07F03FB7309E03B6813F1800F03DA4FF0800392
S32D0000F9D0FB7301E03B68FB737B685B79FA7B9A420FD07B68FA7B5A717B681A79FB7B41F28C30C1F6FF70114647
S32D0000F9F81A464FF01E0302F04FFA07F11007BD4680BD00BF00000000B0B584B000AF7860396038684FF000013F
S32D0000FA20CCF2C821FDF78AFC0346002B05D04FF00003CCF2C8233B600EE038684FF00001C4F2C821FDF798FCD3
S32D0000FA480346002B04D04FF00003C4F2C8233B603868FCF73DFE04460D467B681B681846FCF736FE02460B46DB
S32D0000FA70104619464FF000024FF00003C4F25903FCF7A8FF02460B4620462946FCF778FE02460B46104619465F
S32D0000FA98FDF754F903463B6038684FF00001FDF75DFC0346002B14D03868FCF711FE02460B46104619461CA3E7
S32D0000FAC0D3E90023FCF75CFE02460B4610461946FDF7F0F80346FB6022E03868FCF7FCFD02460B461046194642
S32D0000FAE84FF000024FF00003C4F26003FCF744FE02460B46104619464FF000024FF00003C4F25903FCF762FFE8
S32D0000FB1002460B4610461946FDF7CCF80346FB607868F968FFF742FF07F11007BD46B0BD52B81E85EB51F43F0A
S32D0000FB3880B485B000AF02460B46FA71BB71BB79002B07D141F26813C1F6FF734FF000021A7006E041F26813EA
S32D0000FB60C1F6FF734FF001021A704FF03803FB7341F26813C1F6FF731A78FB7B1343FB734FF4C043C4F20603F2
S32D0000FB884FF4C042C4F206029278D2B242F01002D2B29A704FF4C043C4F206034FF4C042C4F206029278D2B256
S32D0000FBB042F02002D2B29A704FF4C043C4F20603FA7B1A7107F11407BD4680BC704700BF80B483B000AF4FF023
S32D0000FBD801037B6004E000BF7B6803F101037B607B68312BCCBF00230123DBB2002BF2D107F10C07BD4680BCF1
S32D0000FC00704700BF80B582B000AF02460B46FA71BB7141F26913C1F6FF731B7818464FF00001FFF789FF4FF450
S32D0000FC28C043C4F20603DB78DBB203F00203002B14BF00230123DBB2002BF0D14FF4C043C4F206034FF4C0420C
S32D0000FC50C4F20602D278D2B242F00202D2B2DA704FF4C043C4F20603FA791A714FF4C043C4F20603DB78DBB20E
S32D0000FC7803F00203002B14BF00230123DBB2002BF0D14FF4C043C4F206034FF4C042C4F20602D278D2B242F0A0
S32D0000FCA00202D2B2DA704FF4C043C4F20603BA791A714FF4C043C4F20603DB78DBB203F00203002B14BF0023A3
S32D0000FCC80123DBB2002BF0D14FF4C043C4F206034FF4C042C4F20602D278D2B242F00202D2B2DA704FF4C04351
S32D0000FCF0C4F206034FF4C042C4F206029278D2B222F02002D2B29A704FF4C043C4F206034FF4C042C4F20602CC
S32D0000FD189278D2B222F01002D2B29A70FFF754FF07F10807BD4680BD80B582B000AF0346FB71FB79184600F060
S32D0000FD406BF807F10807BD4680BD00BF80B582B000AF02460B46FA71BB7100F039F8FB794FEA4303DBB21846E7
S32D0000FD68FFF7E2FFBB791846FFF7DEFF00F03EF807F10807BD4680BD80B500AF4FF0FF0000F046F803461846CD
S32D0000FD9080BD00BF80B584B000AF0346FB7100F017F8FB794FEA4303DBB243F00103DBB2DBB21846FFF7BCFF9D
S32D0000FDB8FFF7E2FF0346FB7300F018F8FB7B184607F11007BD4680BD80B400AF4FF24003C4F20F034FF24002BA
S32D0000FDE0C4F20F02926842F480129A60BD4680BC704700BF80B400AF4FF24003C4F20F034FF24002C4F20F0244
S32D0000FE08526842F480125A60BD4680BC704700BF80B485B000AF0346FB714FF00003BB7303E0FB7B03F101034D
S32D0000FE30FB734FF44043C4F20A03DB6A4FF00003002BF2D14FF44043C4F20A034FF44042C4F20A02D26A42F0BA
S32D0000FE580042DA624FF44043C4F20A03FA795A6300BF4FF44043C4F20A03DB6A03F40033002B14BF0023012349
S32D0000FE80DBB2002BF1D14FF44043C4F20A039B6BBB73BB7B184607F11407BD4680BC704780B582B000AF4FF427
S32D0000FEA8E043C4F204034FF4E042C4F2040202F5815202F11002126842F4805203F5815303F110031A604FF44A
S32D0000FED02043C4F204034FF480721A654FF24003C4F20F034FF24002C4F20F02526942F480125A61FFF77EFFE9
S32D0000FEF84FF42043C4F204034FF400725A654FF42043C4F204034FF400729A654FF42043C4F204034FF40072D6
S32D0000FF20DA654FF44043C4F20A034FF44062C8F200021A604FF44043C4F20A034FF00502C3F60062DA604FF06D
S32D0000FF4800037B6007E04FF0FF00FFF7EDFE7B6803F101037B607B68092BCCBF00230123DBB2002BEFD104A1EB
S32D0000FF70D1E9000102F04AF807F10807BD4680BD9A9999999999B93F90B486B000AFF860B9607A60FA684FF485
S32D0000FF982043C4F206039A4214D14FF4E043C4F204034FF4E042C4F2040202F5815202F11402126842F48062AF
S32D0000FFC003F5815303F114031A6083E0FA684FF43043C4F206039A4214D14FF4E043C4F204034FF4E042C4F289
S32D0000FFE8040202F5815202F11402126842F4006203F5815303F114031A6067E0FA684FF44043C4F206039A42A5
S32D0001001014D14FF4E043C4F204034FF4E042C4F2040202F5815202F11402126842F4805203F5815303F114036C
S32D000100381A604BE0FA684FF45043C4F206039A4214D14FF4E043C4F204034FF4E042C4F2040202F5815202F13B
S32D000100601402126842F4005203F5815303F114031A602FE0FA684FF42043C4F20E039A4214D14FF4E043C4F24D
S32D0001008804034FF4E042C4F2040202F5815202F10802126842F4806203F5815303F108031A6013E04FF4E0432A
S32D000100B0C4F204034FF4E042C4F2040202F5815202F10802126842F4006203F5815303F108031A60FB68DB786F
S32D000100D8DBB223F00C03DAB2FB68DA70FB684FF000029A70BB684FF47A7202FB03F27B684FEA031392FBF3F37A
S32D000101009CB2FB681B78DBB223F01F03FB75234603F4F8534FEA2323DBB203F01F03DAB2FB7D1343DAB2FB6845
S32D000101281A70E2B2FB685A70BB684FF4FA4202FB03F27B684FEA031392FBF3F39AB2234619464FEAC121CB1A10
S32D000101504FEA43139BB2D3189CB2FB689B7ADBB223F01F03FB75E3B203F01F03DAB2FB7D1343DAB2FB689A72C2
S32D00010178FB68DB78DBB243F00C03DAB2FB68DA7007F11807BD4690BC704700BF80B483B000AF786000BF7B682E
S32D000101A01B79DBB203F02003002B14BF00230123DBB2002BF3D17B68DB79DBB2184607F10C07BD4680BC704715
S32D000101C880B483B000AF78600B46FB7000BF7B681B79DBB2DBB26FEA0303DBB24FEAD313DBB2002BF3D17B68A4
S32D000101F0FA78DA7107F10C07BD4680BC704700BF80B487B000AFF860B9607A60FB687B6107E0BB68DAB27B6945
S32D000102181A707B6903F101037B617B68002B0CBF00230123DBB27A6802F1FF327A60002BEBD107F11C07BD46E3
S32D0001024080BC704780B584B000AF786039607B681B6BFB60FA683B689A4264D07B681B79002B43D07B685A78D0
S32D000102687B6803F1340310461946FA684FF0010301F0AAFB0346002B0CBF00230123DBB2002B02D04FF0010316
S32D000102904BE07B684FF000021A717B685A6A7B681B6AD218FB689A4220D97B68DB78FB7214E07B681B6AFA68D3
S32D000102B8D318FB607B685A787B6803F1340310461946FA684FF0010301F07EFBFB7A03F1FF33FB72FB7A012BA1
S32D000102E094BF00230123DBB2002BE2D13B68002B19D07B685A787B6803F13403104619463A684FF0010301F0E5
S32D0001030851FA0346002B0CBF00230123DBB2002B02D04FF0010304E07B683A681A634FF00003184607F1100793
S32D00010330BD4680BD80B584B000AF786078684FF00001FFF77FFF0346FB73FB7B002B40F0AE807B681B78032B80
S32D0001035840F095807B685B79002B00F090807B684FF000021A637B6803F1340318464FF000014FF40072FFF757
S32D000103803FFF7B684FF0550283F832227B684FF0AA0283F833227B684FF0520283F834207B684FF0520283F8F4
S32D000103A835207B684FF0610283F836207B684FF0410283F837207B684FF0720283F818227B684FF0720283F8E8
S32D000103D019227B684FF0410283F81A227B684FF0610283F81B227B681B69DAB27B6883F81C227B681B699BB227
S32D000103F84FEA2323DAB27B6883F81D227B681B694FEA1343DAB27B6883F81E227B681B694FEA1363DAB27B6889
S32D0001042083F81F227B68DB68DAB27B6883F820227B68DB689BB24FEA2323DAB27B6883F821227B68DB684FEA21
S32D000104481343DAB27B6883F822227B68DB684FEA1363DAB27B6883F823227B6859787B6803F134027B685B6995
S32D00010470084611461A464FF0010301F0A9FA7B684FF000025A717B685B7818464FF000014FF0000201F086FB8B
S32D000104980346002B0CBF00230123DBB2002B02D04FF00103FB73FB7B184607F11007BD4680BD00BF80B582B02B
S32D000104C000AF78600B467B807B68002B08D07B681B78002B04D07B68DB887A889A4202D04FF0090313E07B68C8
S32D000104E85B78184601F0F2FB034603F00103002B0CBF00230123DBB2002B02D04FF0030301E04FF00003184609
S32D0001051007F10807BD4680BD80B586B000AF78607B681A687B689B8810461946FFF7C6FF0346FB75FB7D002B4C
S32D0001053840F0C8807B689B7903F02003002B00F0C1807B689B7903F04003002B20D07B681B6859787B6803F15D
S32D0001056028027B689B69084611461A464FF0010301F02EFA0346002B0CBF00230123DBB2002B02D04FF00103A7
S32D00010588A1E07B689B7923F04003DAB27B689A717B681A687B68DB6910461946FFF74EFE0346FB75FB7D002B1D
S32D000105B040F08C807B681B6A3B613B6903F10B033A6902F10B02127842F02002D2B21A703B6903F11C037A680E
S32D000105D8D268D2B21A703B6903F11D037A68D26892B24FEA2222D2B21A703B6903F11E037A68D2684FEA1242A7
S32D00010600D2B21A703B6903F11F037A68D2684FEA1262D2B21A703B6903F11A037A681269D2B21A703B6903F174
S32D000106281B037A68126992B24FEA2222D2B21A703B6903F114037A6812694FEA1242D2B21A703B6903F1150302
S32D000106507A6812694FEA124292B24FEA2222D2B21A704FF00003FB603B6903F11603FA68D2B21A703B6903F16C
S32D000106781703FA6892B24FEA2222D2B21A703B6903F11803FA684FEA1242D2B21A703B6903F11903FA684FEA09
S32D000106A01262D2B21A707B689B7923F02003DAB27B689A717B681B684FF001021A717B681B681846FFF736FEE1
S32D000106C80346FB75FB7D184607F11807BD4680BD80B584B000AF78607868FFF719FF0346FB73FB7B002B03D113
S32D000106F07B684FF000021A60FB7B184607F11007BD4680BD80B588B000AF786039604FF080033B614FF00F03DE
S32D00010718FB604FF0FF337B614FF00203FB612AE04FF00103BB611AE0FB69BA6902FB03F33A6802FB03F27B6816
S32D00010740D31ABB60BB68002B09DBBA687B699A4205D2BB687B61FB693B61BB69FB60BB6903F10103BB61BB69BD
S32D00010768102B8CBF00230123DBB2002BDCD1FB694FEA4303FB61FB69B3F5807F8CBF00230123DBB2002BCBD100
S32D000107904FF48053C4F20B034FF48052C4F20B02D26A22F00802DA624FF48053C4F20B03DB6A23F47F2323F405
S32D000107B87F63BB614FF48053C4F20B033A694FEA52024FEA02224FEA02424FEA1242F96801F1FF314FEA0111D5
S32D000107E0C9B21143BA690A4342F46022DA6203E04FF00A0001F0F0FB4FF48053C4F20B035B6A03F00803002BE7
S32D0001080814BF00230123DBB2002BEDD14FF48053C4F20B034FF48052C4F20B02D26A42F00802DA624FF48053B5
S32D00010830C4F20B034FF48052C4F20B02126B42F480121A6307F12007BD4680BD80B582B000AF786039607B6872
S32D000108584FF000021A604FF48053C4F20B034FF40042C0F20012DA624FF48053C4F20B03DB6A03F08073002B27
S32D000108800CBF00230123DBB2002BF1D14FF48053C4F20B034FF00002C3F8C0204FF48053C4F20B034FF4813237
S32D000108A85A604FF48053C4F20B034FF028029A624FF48053C4F20B034FF001125A643B689B6818464CF6604157
S32D000108D0C0F20501FFF716FF4FF48053C4F20B035B6A03F00303002B0CBF00230123DBB2002BF1D14FF4504311
S32D000108F8C4F2040340F243421A604FF45043C4F2040340F243425A604FF45043C4F204034FF488629A604FF4E2
S32D000109205043C4F2040340F24342DA604FF45043C4F2040340F243421A614FF45043C4F2040340F243425A619D
S32D000109484FF4E043C4F204034FF4E042C4F2040202F5815202F11002126842F4003203F5815303F110031A603E
S32D000109704FF48053C4F20B034FF6FF721A634FF48053C4F20B034FF0B302C0F27F025A634FF48053C4F20B03B3
S32D000109984FF48052C4F20B02D26A42F00062DA624FF48053C4F20B03DB6A03F00063002B0CBF00230123DBB20D
S32D000109C0002BF1D14FF48053C4F20B035B6A03F48033002B0CBF00230123DBB2002B03D07B684FF001021A606B
S32D000109E84FF48053C4F20B034FF48052C4F20B02126B42F080021A634FF00003184607F10807BD4680BD00BFDA
S32D00010A1080B400AF4FF48053C4F20B035A6A40F207331340002B0CBF00230123DBB21846BD4680BC704700BF9A
S32D00010A3880B485B000AF78604FF48053C4F20B031A6B7B681340FB60FB68002B14BF00230123DBB2002BEFD18F
S32D00010A60FB68184607F11407BD4680BC704700BF80B584B000AF78607B681B7803F03F0248F6B873C0F2010325
S32D00010A8853F82230FB60FB68002B06D17B681B78002B02D04FF001032FE14FF48053C4F20B034FF48052C4F277
S32D00010AB00B02126B42F080021A634FF48053C4F20B035B6A03F00103002B0CBF00230123DBB2002BF1D14FF4CC
S32D00010AD88053C4F20B037A6852689A60FB6823F44003FB607B685B784FEA835303F44003FA681343FB607B68B5
S32D00010B005B78022B03D1FB6843F40013FB607B685B78042B16D1FB6803F44033B3F5003F08D1FB6823F44033A4
S32D00010B28FB60FB6843F44033FB6007E0FB6823F44033FB60FB6843F40033FB604FF48053C4F20B034FF4805295
S32D00010B50C4F20B0252684FEA02424FEA12425A607B68DB68002B31D0FB6803F44033B3F5403F03D0FB6843F482
S32D00010B780013FB607B681B7A002B03D0FB6843F01003FB607B68DB68012B03D9FB6843F02003FB607B68DB68FE
S32D00010BA0B3F1FF3F12D04FF48053C4F20B034FF48052C4F20B0251687A68D2684FEA02420A435A60FB6843F0C1
S32D00010BC80203FB604FF48053C4F20B034FF000021A604FF48053C4F20B03FA68DA604FF00100C0F20E00FFF79D
S32D00010BF023FF0346012B0CBF00230123DBB2002B10D04FF48053C4F20B034FF48052C4F20B02126B42F470229E
S32D00010C1842F001021A634FF001036EE04FF48053C4F20B031B6B03F08003002B0CBF00230123DBB2002B0ED0C1
S32D00010C404FF48053C4F20B034FF48052C4F20B02126B42F001121A634FF0010351E04FF48053C4F20B031B6BC0
S32D00010C6803F48033002B0CBF00230123DBB2002B0ED04FF48053C4F20B034FF48052C4F20B02126B42F001126C
S32D00010C901A634FF0FF3334E0FB6803F44033002B21D04FF48053C4F20B031A697B681A61FB6803F44033B3F51A
S32D00010CB8803F14D14FF48053C4F20B035A697B685A614FF48053C4F20B039A697B689A614FF48053C4F20B0399
S32D00010CE0DA697B68DA614FF48053C4F20B034FF48052C4F20B02126B42F001021A634FF00003184607F11007F4
S32D00010D08BD4680BD80B592B000AF786039604FF00003FB633B68BB6341F28013C1F6FF737B637B6B002B03D1D2
S32D00010D3040F6012300F09BBC41F28433C1F6FF733B633B6B002B03D140F60B2300F08FBC3B6B1B68FB62FB6A13
S32D00010D58002B03D140F60B2300F085BC7B6841F20432934200F0348241F2043293421BD841F20132934238D09D
S32D00010D8041F20132934207D8032B00F03884092B00F0248400F061BC41F20232934200F00F8241F2033293427D
S32D00010DA800F0B98300F055BC41F20732934200F0468341F2073293420BD841F20532934200F0308241F2063285
S32D00010DD0934200F00B8300F040BC41F20832934200F0B28241F20932934200F0C08200F034BC786B48F6AC71BC
S32D00010DF8C0F20101FFF726FDF863FB6B002B40F02C844FF0000387F847304FF0000387F82B304FF0000387F81E
S32D00010E202A304FF0000387F829304FF0000387F846304FF0000387F828304FF000033B724FF000037B724FF082
S32D00010E480003FB604FF000033B744FF000037B6107F108031846FFF707FE0346002B0CBF00230123DBB2002B74
S32D00010E7003D04FF00103FB63F8E340F24C4001F0ABF84FF008033B724FF000037B724FF4D573FB604FF0000364
S32D00010E983B744FF000037B6107F108031846FFF7E3FD38643B6C002B0BD1BA69FB689A4203D04FF00103FB6307
S32D00010EC0D4E34FF0010387F846304FF0010387F8283097F82830002B00F0C5804FF037033B724FF000037B725E
S32D00010EE84FF00003FB604FF000033B744FF000037B6107F108031846FFF7B6FD38643B6C002B03D04FF00103A1
S32D00010F10FB63ABE34FF069033B724FF000037B724FF00003FB604FF000033B744FF000037B6107F10803184632
S32D00010F38FFF79AFD0346002B0CBF00230123DBB2002B03D04FF00103FB638BE3BB6903F44013002B00F0838051
S32D00010F604FF000033B644FF00A0001F035F83B6C03F101033B644FF037033B724FF000037B724FF00003FB60EA
S32D00010F884FF000033B744FF000037B6107F108031846FFF769FD0346002B0CBF00230123DBB2002B03D04FF01E
S32D00010FB00103FB6336E04FF069033B724FF000037B7297F84630002B05D04FF00003C4F23003FB6002E04FF463
S32D00010FD84013FB604FF000033B744FF000037B6107F108031846FFF73FFD0346002B0CBF00230123DBB2002B5C
S32D0001100003D04FF00103FB630CE0BB69002B05DB3B6C632B02D84FF0010301E04FF00003002BA0D1FB6B002B90
S32D0001102840F01D833B6C632B04D94FF0000387F8463014E04FF0010387F8473097F84630002B0CD04FF0000305
S32D0001105087F84630BB6903F08043002B03D04FF0010387F8463097F82A30002B03D07B6B4FF007021A6097F84E
S32D000110782930002B03D07B6B4FF008021A6097F82B30002B03D07B6B4FF004021A6097F84730002B0BD07B6BCA
S32D000110A04FF002021A6097F84630002B03D07B6B4FF003021A6097F82B30002B0FD097F84730002B0BD07B6BD7
S32D000110C84FF005021A6097F84630002B03D07B6B4FF006021A604FF45043C4F204034FF000021A604FF450436B
S32D000110F0C4F204034FF000025A604FF45043C4F204034FF000029A604FF45043C4F204034FF00002DA604FF4FA
S32D000111185043C4F204034FF000021A614FF45043C4F204034FF000025A61FB6A9A68FB6A5B6810461946FFF7D3
S32D00011140E1FA4FF45043C4F2040340F243421A604FF45043C4F2040340F243425A604FF45043C4F204034FF407
S32D0001116888629A604FF45043C4F2040340F24342DA604FF45043C4F2040340F243421A614FF45043C4F2040398
S32D0001119040F243425A614FF4E043C4F204034FF4E042C4F2040202F5815202F11002126842F4003203F58153FD
S32D000111B803F110031A6055E2B86BFFF755FC38643B6C002B00F04D824FF00203FB6348E2BB6B002B03D14FF089
S32D000111E00C03FB6342E24FF48053C4F20B03DB6A03F47F434FEA13234FEA43033B644FF48053C4F20B03DB6ACB
S32D0001120803F0F0034FEA131303F101023B6C02FB03F33B64FB6A9A683B6CB2FBF3F2BB6B1A601FE2BB6B002BB0
S32D0001123003D14FF00C03FB6318E2BB6B1B68002B03D14FF00C03FB6310E2FFF7E1FB0346002B14BF002301236F
S32D00011258DBB2002B70D04FF45043C4F204034FF000021A604FF45043C4F204034FF000025A604FF45043C4F207
S32D0001128004034FF000029A604FF45043C4F204034FF00002DA604FF45043C4F204034FF000021A614FF45043CA
S32D000112A8C4F204034FF000025A61FB6A9A68BB6B1B6810461946FFF721FA4FF45043C4F2040340F243421A60C4
S32D000112D04FF45043C4F2040340F243425A604FF45043C4F204034FF488629A604FF45043C4F2040340F24342E7
S32D000112F8DA604FF45043C4F2040340F243421A614FF45043C4F2040340F243425A614FF4E043C4F204034FF45D
S32D00011320E042C4F2040202F5815202F11002126842F4003203F5815303F110031A6095E140F60A23FB6391E119
S32D00011348BB6B002B03D14FF00C03FB638AE14FF48053C4F20B035B684FEAC3434FEAD343BA6B13607EE1BB6BF2
S32D00011370002B03D14FF00C03FB6377E1FFF748FB0346002B14BF00230123DBB2002B29D0BB6B1A6840F6FF7383
S32D000113989A4203D94FF00C03FB6363E14FF48053C4F20B034FF48052C4F20B02526822F4FF5222F01F025A60BE
S32D000113C04FF48053C4F20B034FF48052C4F20B025168BA6B12684FEAC2424FEAD2420A435A6043E140F60A23DC
S32D000113E8FB633FE1BB6B002B03D14FF00C03FB6338E14FF48053C4F20B039B6A03F006034FEA53033B643B6CBE
S32D00011410002B04D1BB6B4FF000021A6026E13B6C012B04D1BB6B4FF001021A601EE13B6C102B04D1BB6B4FF020
S32D0001143802021A6016E14FF00503FB6312E1BB6B002B03D14FF00C03FB630BE1FFF7DCFA0346002B14BF002385
S32D000114600123DBB2002B56D0BB6B1B68002B16D14FF48053C4F20B034FF48052C4F20B02926A22F006029A62DC
S32D000114884FF48053C4F20B034FF48052C4F20B02926A9A62E6E0BB6B1B68012B18D14FF48053C4F20B034FF4EA
S32D000114B08052C4F20B02926A22F006029A624FF48053C4F20B034FF48052C4F20B02926A42F002029A62C9E0DD
S32D000114D8BB6B1B68022B16D14FF48053C4F20B034FF48052C4F20B02926A22F006029A624FF48053C4F20B038A
S32D000115004FF48052C4F20B02926A9A62AEE04FF00503FB63AAE040F60A23FB63A6E0BB6B002B03D14FF00C0375
S32D00011528FB639FE04FF48053C4F20B034FF48052C4F20B02D26A42F00062DA624FF48053C4F20B03DB6A03F0E7
S32D000115500063002B0CBF00230123DBB2002BF1D14FF48053C4F20B031B6B03F08003002B0CBF00230123DBB2B2
S32D00011578002B0FD04FF48053C4F20B034FF48052C4F20B02126B42F080021A637B6B4FF000021A604FF4805323
S32D000115A0C4F20B035B6A03F48033002B0CBF00230123DBB2002B08D07B6B1B68002B08D17B6B4FF001021A600D
S32D000115C803E07B6B4FF000021A607B6B1A68BB6B1A6047E0BB6B4FF01C021A60BB6B03F104034FF004021A6064
S32D000115F0BB6B03F108034FF41E721A6036E04FF00200FFF719FA4FF48053C4F20B031B6B03F4E003002B0CBFCA
S32D0001161800230123DBB2002B0ED04FF48053C4F20B034FF48052C4F20B02126B42F4E0021A634FF00403FB635E
S32D000116404FF48053C4F20B034FF48052C4F20B02126B42F032021A6308E040F60923FB6304E000BF02E000BF7D
S32D0001166800E000BFFB6B184607F14807BD4680BD80B489B000AF786039607B687B6141F28013C1F6FF733B6192
S32D000116903B69002B02D14FF0000380E03B691B68022B0BD03B691B68032B07D03B691B68072B03D03B691B6839
S32D000116B8082B0DD14FF48053C4F20B035B6A03F00403002B0CBF00230123DBB2002BF1D13B68FB6155E0FB690A
S32D000116E0B3F5007F28BF4FF40073FB60FB6803F103034FEA9303BB613BE04FF48053C4F20B031B6B03F4E0031F
S32D00011708002B0CBF00230123DBB2002B10D04FF48053C4F20B034FF48052C4F20B02126B42F4E00242F0200242
S32D000117301A634FF0000332E04FF48053C4F20B035B6A03F40063002B14BF00230123DBB2002BF1D14FF48053EB
S32D00011758C4F20B031A6A7B691A607B6903F104037B61BB6903F1FF33BB61BB69002B0CBF00230123DBB2002B82
S32D00011780BBD1FA69FB68D31AFB61FB69002B0CBF00230123DBB2002BA1D14FF00103184607F12407BD4680BCD1
S32D000117A8704700BF80B58EB000AFB9607A600246FA73BB7341F26C13C1F6FF737B63FB7B002B02D1BB7B002B16
S32D000117D002D14FF0040385E040F20043C1F6FF731B78DBB203F00103002B0CBF00230123DBB2002B02D04FF0B1
S32D000117F8030373E0BB68002B02D14FF000036DE07B6B1B7B002B03D17B684FEA43237B60BB7B012B2CD14FF043
S32D0001182011033B754FF000037B757B68BB614FF001033B77BB7B3B6207F1140341F202301946FFF763FA03466D
S32D00011848002B14BF00230123DBB2002B3ED0B8684FF40071FFF70CFF0346002B0CBF00230123DBB2002B31D052
S32D000118704FF00003BB732DE04FF012033B754FF000037B757B68BB614FF001033B77BB7B3B6207F1140341F28D
S32D0001189802301946FFF736FA0346002B14BF00230123DBB2002B11D0BB7B4FEA4323B8681946FFF7DDFE0346D5
S32D000118C0002B0CBF00230123DBB2002B02D04FF00003BB73BB7B002B02D04FF0010301E04FF00003184607F1D3
S32D000118E83807BD4680BD00BF80B487B000AF786039607B68FB603B687B6155E07B69B3F5007F28BF4FF400736E
S32D000119103B617A693B69D31A7B613B6903F103034FEA93033B613BE04FF48053C4F20B031B6B03F4E003002B33
S32D000119380CBF00230123DBB2002B10D04FF48053C4F20B034FF48052C4F20B02126B42F4E00242F010021A63CE
S32D000119604FF0FF332EE04FF48053C4F20B035B6A03F48063002B14BF00230123DBB2002BF1D14FF48053C4F2D5
S32D000119880B03FA6812681A62FB6803F10403FB603B6903F1FF333B613B69002B0CBF00230123DBB2002BBBD186
S32D000119B07B69002B0CBF00230123DBB2002BA1D14FF00103184607F11C07BD4680BC704780B58EB000AFB960D0
S32D000119D87A600246FA73BB7341F26C13C1F6FF737B63FB7B002B02D1BB7B002B02D14FF00403CEE040F2004359
S32D00011A00C1F6FF731B78DBB203F00103002B0CBF00230123DBB2002B02D04FF00303BCE040F20043C1F6FF7331
S32D00011A281B78DBB203F00403002B0CBF00230123DBB2002B02D04FF00203AAE0BB68002B02D14FF00003A4E0F9
S32D00011A507B6B1B7B002B03D17B684FEA43237B60BB7B012B2CD14FF018033B754FF000037B757B68BB614FF0B6
S32D00011A7800033B77BB7B3B6207F1140341F202301946FFF73FF90346002B14BF00230123DBB2002B3ED0B86842
S32D00011AA04FF40071FFF724FF0346002B0CBF00230123DBB2002B31D04FF00003BB732DE04FF019033B754FF044
S32D00011AC800037B757B68BB614FF000033B77BB7B3B6207F1140341F202301946FFF712F90346002B14BF0023F8
S32D00011AF00123DBB2002B11D0BB7B4FEA4323B8681946FFF7F5FE0346002B0CBF00230123DBB2002B02D04FF07E
S32D00011B180003BB734FF00D033B754FF000037B757B6B1B69BB614FF000033B774FF000033B6207F1140341F2A1
S32D00011B4002301946FFF7E2F80346002B0CBF00230123DBB2002B02D04FF001031DE07A6A48F20803CFF6D9738B
S32D00011B681340002B02D04FF0010312E07B6A03F4F853B3F5106F0CBF00230123DBB2002BC8D1BB7B002B02D0E5
S32D00011B904FF0010301E04FF00003184607F13807BD4680BD80B58CB000AF0B463A600246FA71BB7141F26C134F
S32D00011BB8C1F6FF73BB62FB79002B02D04FF004037EE04FF0010387F82F3040F20043C1F6FF731B78DBB203F0D1
S32D00011BE00103002B0CBF00230123DBB2002B02D04FF0030368E0BB79032B5FD801A252F823F000BF151C0100F4
S32D00011C081F1C0100311C0100431C01004FF0000387F82F3052E0BB6A9A683B681A604FF0000387F82F3049E0E4
S32D00011C303B684FF400721A804FF0000387F82F3040E04FF009033B724FF000037B72BB6A1B69FB604FF00003E6
S32D00011C583B744FF000037B6107F1080341F202301946FFF74FF80346002B0CBF00230123DBB2002B02D04FF03D
S32D00011C80010321E07B6A03F44003002B11D13B6A4FEA934303F07F0303F101027B6A4FEA132303F0030303F1A3
S32D00011CA8FF3302FA03F23B681A604FF0000387F82F3003E04FF0040387F82F3097F82F30184607F13007BD4628
S32D00011CD080BD00BF80B483B000AF0346FB71FB79002B02D04FF0010305E040F20043C1F6FF731B78DBB2184669
S32D00011CF807F10C07BD4680BC704700BF80B483B000AF78604FF4E043C4F204034FF4E042C4F2040202F5815201
S32D00011D2002F11802126842F0010203F5815303F118031A604FF00003C4F204037A689A604FF00003C4F20403A9
S32D00011D484FF005025A604FF00003C4F204034FF00002C4F20402126842F001021A6000BF4FF00003C4F2040389
S32D00011D701B6803F08003002B14BF00230123DBB2002BF1D14FF00003C4F204034FF00002C4F20402126822F004
S32D00011D9801021A6000BF07F10C07BD4680BC704780B582B000AF786039607B68012B0AD13A684FF6FF739A4239
S32D00011DC005D141F28C30C1F6FF7000F00FF807F10807BD4680BD00BF80B500AF4FF001004FF6FF71FFF7E0FF5E
S32D00011DE880BD00BF80B483B000AF78607B684FF000021A707B68184607F10C07BD4680BC704700BF80B582B0CC
S32D00011E1000AF78607B681B7883F00103DBB2002B36D04FF4E043C4F2040303F5815303F108034FF400621A6064
S32D00011E384FF45043C4F204034FF440721A624FF45043C4F204034FF440725A6241F29033C1F6FF731B684FEA58
S32D00011E60D372D3184FEA63034FF43040C4F20E0019464FF46142FEF787F84FF0640000F0ABF87B684FF00102F9
S32D00011E881A704FF0010301E04FF00003184607F10807BD4680BD00BF80B582B000AF7860F970BA707B704FF428
S32D00011EB03040C4F20E004FF07F01FEF785F94FF43040C4F20E004FF00801FEF77DF9FB784FF43040C4F20E0089
S32D00011ED81946FEF775F9BB784FF43040C4F20E001946FEF76DF97B784FF43040C4F20E001946FEF765F94FF456
S32D00011F003040C4F20E004FF0FF01FEF75DF907F10807BD4680BD00BF80B487B000AFF860B9607A60FA6844F6ED
S32D00011F28D353C1F26203A3FB02134FEA9312BB68D3187B61FA6844F6D353C1F26203A3FB02134FEA93134FF422
S32D00011F507A7101FB03F3D31AFB60FB684FEAC33244F6D353C1F26203A3FB02134FEA93127B68D3183B613B6995
S32D00011F784FEAD3337A69D3187B613B694FEA43434FEA53433B614FF45043C4F203031A687B699A420FD34FF48A
S32D00011FA05043C4F203031A687B699A420AD14FF45043C4F203035A683B699A4202D24FF0010301E04FF0000398
S32D00011FC8002BE0D107F11C07BD4680BC704700BF80B584B000AF78604FF45043C4F203031B68FB604FF4504308
S32D00011FF0C4F203035B68BB607B681846F968BA68FFF78AFF07F11007BD4680BD80B584B000AFC7E900014FF48A
S32D000120185043C4F203031B68FB604FF45043C4F203035B68BB60D7E900014FF000024FF48043C4F28F03FAF7BB
S32D000120409FFB02460B4610461946FAF75BFE03461846F968BA68FFF75FFF07F11007BD4680BD00BF80B584B04A
S32D0001206800AF4FF45043C4F203031B68FB604FF45043C4F203035B68BB60F868FAF706FB02460B46C7E90023FC
S32D00012090B868FAF7FFFA02460B46104619464FF000024FF00003C4F2E003FAF793FC02460B46D7E90001FAF7E2
S32D000120B8B1F902460B46C7E90023D7E900231046194607F11007BD4680BD00BF80B483B000AF4FF45043C4F29B
S32D000120E003031B684FF47A7202FB03F37B604FF45043C4F203035B684FF47A7202FB03F34FEAD3337A68D318C8
S32D000121087B607B68184607F10C07BD4680BC704780B582B000AF78600B46FB70FB787868194600F007F87B685D
S32D00012130184607F10807BD4680BD00BF80B483B000AF78600B46FB707B68FA781A707B681B781A4649F2B803C7
S32D00012158C0F201039B5C042B00F2F48001A252F823F000BF81210100DD2101003922010095220100F12201008D
S32D000121804FF41043C4F204037A681278114649F2FC02C0F2010252F8212040F2031143F822104FF47043C4F242
S32D000121A80F034FF47042C4F20F0251697A681278104649F2FC02C0F2010252F8202002F01F024FF0010000FAF9
S32D000121D002F26FEA02020A405A61B7E04FF42043C4F204037A681278114649F2FC02C0F2010252F8212040F222
S32D000121F8031143F822104FF24003C4F20F034FF24002C4F20F0251697A681278104649F2FC02C0F2010252F8ED
S32D00012220202002F01F024FF0010000FA02F26FEA02020A405A6189E04FF43043C4F204037A681278114649F2D2
S32D00012248FC02C0F2010252F8212040F2031143F822104FF28003C4F20F034FF28002C4F20F0251697A6812783A
S32D00012270104649F2FC02C0F2010252F8202002F01F024FF0010000FA02F26FEA02020A405A615BE04FF44043CD
S32D00012298C4F204037A681278114649F2FC02C0F2010252F8212040F2031143F822104FF2C003C4F20F034FF25E
S32D000122C0C002C4F20F0251697A681278104649F2FC02C0F2010252F8202002F01F024FF0010000FA02F26FEAD8
S32D000122E802020A405A612DE04FF45043C4F204037A681278114649F2FC02C0F2010252F8212040F2031143F861
S32D0001231022104FF47143C4F20F034FF47142C4F20F0251697A681278104649F2FC02C0F2010252F8202002F00A
S32D000123381F024FF0010000FA02F26FEA02020A405A6100BF07F10C07BD4680BC704700BF80B485B000AF786056
S32D000123604FF00003FB607B681B781A4649F2B803C0F201039B5C042B7FD801A252F823F095230100C323010012
S32D00012388F12301001F2401004D2401004FF47043C4F20F031A697B681B78194649F2FC03C0F2010353F82130B9
S32D000123B003F01F034FF0010101FA03F31340FB605BE04FF24003C4F20F031A697B681B78194649F2FC03C0F23E
S32D000123D8010353F8213003F01F034FF0010101FA03F31340FB6044E04FF28003C4F20F031A697B681B78194639
S32D0001240049F2FC03C0F2010353F8213003F01F034FF0010101FA03F31340FB602DE04FF2C003C4F20F031A69D0
S32D000124287B681B78194649F2FC03C0F2010353F8213003F01F034FF0010101FA03F31340FB6016E04FF4714342
S32D00012450C4F20F031A697B681B78194649F2FC03C0F2010353F8213003F01F034FF0010101FA03F31340FB60BC
S32D0001247800BFFB68002B0CBF00230123DBB2184607F11407BD4680BC704700BF80B584B000AF78600B46FB7077
S32D000124A04FF00B03FB73FA78FB7B786811461A4600F0E6F87B68184607F11007BD4680BD80B485B000AF786085
S32D000124C87B68A3F11003002B01DA03F11F034FEA6313FB60FB68012B46D0022B00F08580002B40F0C3804FF48D
S32D000124F06142CEF200024FF46143CEF20003D3F880117B68A3F110004FF01F03C8F200030340002B05DA03F16C
S32D00012518FF3363F01F0303F101034FF0010000FA03F30B43C2F880314FF46142CEF200024FF46143CEF20003BA
S32D0001254019687B68A3F110004FF01F03C8F200030340002B05DA03F1FF3363F01F0303F101034FF0010000FA2C
S32D0001256803F30B43136081E04FF46142CEF200024FF46143CEF20003D3F884117B68A3F110004FF01F03C8F2D8
S32D0001259000030340002B05DA03F1FF3363F01F0303F101034FF0010000FA03F30B43C2F884314FF46142CEF2A6
S32D000125B800024FF46143CEF2000359687B68A3F110004FF01F03C8F200030340002B05DA03F1FF3363F01F03FA
S32D000125E003F101034FF0010000FA03F30B43536040E04FF46142CEF200024FF46143CEF20003D3F888117B68EA
S32D00012608A3F110004FF01F03C8F200030340002B05DA03F1FF3363F01F0303F101034FF0010000FA03F30B4383
S32D00012630C2F888314FF46142CEF200024FF46143CEF2000399687B68A3F110004FF01F03C8F200030340002BA2
S32D0001265805DA03F1FF3363F01F0303F101034FF0010000FA03F30B43936000BF07F11407BD4680BC704700BFE9
S32D0001268080B584B000AF786013460A46FA70BB707B68FA781A70BB78FB737B681B781A4649F2B803C0F20103FB
S32D000126A89B5C042B00F2F28001A252F823F000BFCD2601003F270100B127010095280100232801004FF41043E6
S32D000126D0C4F204037A681278114649F2FC02C0F2010252F82110FA7B4FEA024202F4702242F4897242F0010212
S32D000126F843F821204FF47043C4F20F034FF47042C4F20F0251697A681278104649F2FC02C0F2010252F82020C9
S32D0001272002F01F024FF0010000FA02F26FEA02020A405A614FF06700FFF7C2FEAAE04FF42043C4F204037A68BC
S32D000127481278114649F2FC02C0F2010252F82110FA7B4FEA024202F4702242F4897242F0010243F821204FF27B
S32D000127704003C4F20F034FF24002C4F20F0251697A681278104649F2FC02C0F2010252F8202002F01F024FF09F
S32D00012798010000FA02F26FEA02020A405A614FF06800FFF789FE71E04FF43043C4F204037A681278114649F2DB
S32D000127C0FC02C0F2010252F82110FA7B4FEA024202F4702242F4897242F0010243F821204FF28003C4F20F03D4
S32D000127E84FF28002C4F20F0251697A681278104649F2FC02C0F2010252F8202002F01F024FF0010000FA02F203
S32D000128106FEA02020A405A614FF06900FFF750FE38E04FF45043C4F204037A681278114649F2FC02C0F20102EF
S32D0001283852F82110FA7B4FEA024202F4702242F4897242F0010243F821204FF47143C4F20F034FF47142C4F22F
S32D000128600F0251697A681278104649F2FC02C0F2010252F8202002F01F024FF0010000FA02F26FEA02020A405C
S32D000128885A614FF06B00FFF717FE00BF07F11007BD4680BDB0B48BB000AF48F62C43C0F2010307F104041D468F
S32D000128B00FCD0FC495E80F0084E80F004FF000037B6246E04FF42043C4F20403D3F8A0207B6A4FEA830307F174
S32D000128D82800C31853F8243C4FF0010101FA03F31340002B0CBF00230123DBB2002B28D041F2BC33C1F6FF7366
S32D000129007A6A53F8223003F1010141F2BC33C1F6FF737A6A43F822104FF42043C4F204034FF42042C4F20402D1
S32D00012928D2F8A0107A6A4FEA820207F12800821852F8242C4FF0010000FA02F20A40C3F8A0207B6A03F1010341
S32D000129507B627B6A072BCCBF00230123DBB2002BB0D107F12C07BD46B0BC7047B0B489B000AF48F64C43C0F23D
S32D00012978010307F104041D460FCD0FC495E8030084E803004FF00003FB6147E04FF43043C4F20403D3F8A02068
S32D000129A0FB694FEA830307F12000C31853F81C3C4FF0010101FA03F31340002B0CBF00230123DBB2002B29D0DC
S32D000129C8FB6903F1080241F2BC33C1F6FF7353F8223003F1010141F2BC33C1F6FF7343F822104FF43043C4F27C
S32D000129F004034FF43042C4F20402D2F8A010FA694FEA820207F12000821852F81C2C4FF0010000FA02F20A40EA
S32D00012A18C3F8A020FB6903F10103FB61FB69052BCCBF00230123DBB2002BAFD107F12407BD46B0BC704700BFB6
S32D00012A40B0B48DB000AF48F66443C0F201033C461D460FCD0FC40FCD0FC495E8070084E807004FF00003FB62A3
S32D00012A6847E04FF41043C4F20403D3F8A020FB6A4FEA830307F13000C31853F8303C4FF0010101FA03F31340D7
S32D00012A90002B0CBF00230123DBB2002B29D0FB6A03F10E0241F2BC33C1F6FF7353F8223003F1010141F2BC33C0
S32D00012AB8C1F6FF7343F822104FF41043C4F204034FF41042C4F20402D2F8A010FA6A4FEA820207F13000821858
S32D00012AE052F8302C4FF0010000FA02F20A40C3F8A020FB6A03F10103FB62FB6A0A2BCCBF00230123DBB2002B50
S32D00012B08AFD107F13407BD46B0BC7047B0B487B000AF48F69043C0F201033C461D460FCD0FC42B6823604FF0CB
S32D00012B3000037B6147E04FF45043C4F20403D3F8A0207B694FEA830307F11800C31853F8183C4FF0010101FAE9
