S01200002E2E2F464548526F626F742E7331397E
S32D0000C00000000020D5E6000031EA000031EA000031EA000031EA000031EA0000000000000000000000000000B0
S32D0000C0280000000031EA000031EA00000000000031EA000031EA000031EA000031EA000031EA000031EA000012
S32D0000C05031EA000031EA000031EA000031EA000031EA000031EA000031EA000031EA000031EA000031EA0000B4
S32D0000C07831EA000031EA000031EA000031EA000031EA000031EA000031EA000031EA000031EA000031EA00008C
S32D0000C0A031EA000031EA000031EA000031EA000031EA000031EA000031EA000031EA000031EA000031EA000064
S32D0000C0C831EA000031EA000031EA000031EA000031EA000031EA000031EA000031EA000031EA000031EA00003C
S32D0000C0F031EA00002549010031EA000031EA000031EA000031EA000031EA000031EA000031EA000031EA0000C0
S32D0000C11831EA000031EA000031EA000031EA000031EA000031EA000031EA000031EA000031EA000031EA0000EB
S32D0000C14031EA000031EA000031EA000031EA00004D21010031EA000031EA000031EA000031EA000031EA00006F
S32D0000C16831EA000031EA000031EA000031EA000031EA000031EA000031EA000031EA000031EA000031EA00009B
S32D0000C19031EA000031EA000031EA0000B51B0100111A0100E11A010081EA0000891C010031EA000031EA0000F0
S32D0000C1B831EA000031EA000031EA000031EA000031EA000031EA000031EA000031EA000031EA000031EA00004B
S32D0000C41081F0004102E000BF83F0004330B54FEA41044FEA430594EA050F08BF90EA020F1FBF54EA000C55EAC6
S32D0000C438020C7FEA645C7FEA655C00F0E2804FEA5454D4EB5555B8BF6D420CDD2C4480EA020281EA030382EA0F
S32D0000C460000083EA010180EA020281EA0303362D88BF30BD11F0004F4FEA01314FF4801C4CEA113102D0404263
S32D0000C48861EB410113F0004F4FEA03334CEA133302D0524263EB430394EA050F00F0A780A4F10104D5F1200E8A
S32D0000C4B00DDB02FA0EFC22FA05F2801841F1000103FA0EF2801843FA05F359410EE0A5F120050EF1200E012A2D
S32D0000C4D803FA0EFC28BF4CF0020C43FA05F3C01851EBE37101F0004507D54FF0000EDCF1000C7EEB00006EEB67
S32D0000C5000101B1F5801F1BD3B1F5001F0CD349085FEA30004FEA3C0C04F101044FEA445212F5800F80F09A8000
S32D0000C528BCF1004F08BF5FEA500C50F1000041EB045141EA050130BD5FEA4C0C404141EB010111F4801FA4F114
S32D0000C5500104E9D191F0000F04BF01460020B1FA81F308BF2033A3F10B03B3F120020CDA0C3208DD02F1140C87
S32D0000C578C2F10C0201FA0CF021FA02F10CE002F11402D8BFC2F1200C01FA02F120FA0CFCDCBF41EA0C019040B1
S32D0000C5A0E41AA2BF01EB0451294330BD6FEA04041F3C1CDA0C340EDC04F11404C4F1200220FA04F001FA02F3B6
S32D0000C5C840EA030021FA04F345EA030130BDC4F10C04C4F1200220FA02F001FA04F340EA0300294630BD21FAA8
S32D0000C5F004F0294630BD94F0000F83F4801306BF81F480110134013D4EE77FEA645C18BF7FEA655C29D094EA1C
S32D0000C618050F08BF90EA020F05D054EA000C04BF1946104630BD91EA030F1EBF0021002030BD5FEA545C05D1A3
S32D0000C6404000494128BF41F0004130BD14F580043CBF01F5801130BD01F0004545F0FE4141F470014FF0000031
S32D0000C66830BD7FEA645C1ABF194610467FEA655C1CBF0B46024650EA013406BF52EA033591EA030F41F40021D7
S32D0000C69030BD00BF90F0000F04BF0021704730B54FF4806404F132044FF000054FF0000150E700BF90F0000F66
S32D0000C6B804BF0021704730B54FF4806404F1320410F0004548BF40424FF000013EE700BF42004FEAE2014FEAF9
S32D0000C6E031014FEA02701FBF12F07F4393F07F4F81F06051704792F0000F14BF93F07F4F704730B54FF460741B
S32D0000C70801F0004521F0004120E700BF50EA010208BF704730B54FF000050AE050EA010208BF704730B511F046
S32D0000C730004502D5404261EB41014FF4806404F132045FEA915C3FF4DCAE4FF003025FEADC0C18BF03325FEAA0
S32D0000C758DC0C18BF033202EBDC02C2F1200300FA03FC20FA02F001FA03FE40EA0E0021FA02F11444C1E600BF19
S32D0000C78070B54FF0FF0C4CF4E06C1CEA11541DBF1CEA135594EA0C0F95EA0C0F00F0DEF82C4481EA030621EAF3
S32D0000C7A84C5123EA4C5350EA013518BF52EA033541F4801143F4801338D0A0FB02CE4FF00005E1FB02E506F05F
S32D0000C7D00042E0FB03E54FF00006E1FB03569CF0000F18BF4EF0010EA4F1FF04B6F5007F64F5407404D25FEA0F
S32D0000C7F84E0E6D4146EB060642EAC62141EA55514FEAC52040EA5E504FEACE2EB4F1FD0C88BFBCF5E06F1ED8D2
S32D0000C820BEF1004F08BF5FEA500E50F1000041EB045170BD06F0004646EA010140EA020081EA0301B4EB5C0487
S32D0000C848C2BFD4EB0C0541EA045170BD41F480114FF0000E013C00F3AB8014F1360FDEBF002001F0004170BDF0
S32D0000C870C4F10004203C35DA0C341BDC04F11404C4F1200500FA05F320FA04F001FA05F240EA020001F0004207
S32D0000C89821F0004110EBD37021FA04F642EB06015EEA430E08BF20EAD37070BDC4F10C04C4F1200500FA04F32F
S32D0000C8C020FA05F001FA04F240EA020001F0004110EBD37041F100015EEA430E08BF20EAD37070BDC4F12005C7
S32D0000C8E800FA05F24EEA020E20FA04F301FA05F243EA020321FA04F001F0004121FA04F220EA020000EBD37028
S32D0000C9105EEA430E08BF20EAD37070BD94F0000F0FD101F00046400041EB010111F4801F08BF013CF7D041EA6D
S32D0000C938060195F0000F18BF704703F00046520043EB030313F4801F08BF013DF7D043EA0603704794EA0C0FF1
S32D0000C9600CEA135518BF95EA0C0F0CD050EA410618BF52EA4306D1D181EA030101F000414FF0000070BD50EA38
S32D0000C988410606BF1046194652EA430619D094EA0C0F02D150EA013613D195EA0C0F05D152EA03361CBF10467B
S32D0000C9B019460AD181EA030101F0004141F0FE4141F470014FF0000070BD41F0FE4141F4780170BD70B54FF04D
S32D0000C9D8FF0C4CF4E06C1CEA11541DBF1CEA135594EA0C0F95EA0C0F00F0A7F8A4EB050481EA030E52EA03359B
S32D0000CA004FEA013100F088804FEA03334FF0805545EA131343EA12634FEA022245EA111545EA10654FEA002676
S32D0000CA280EF000419D4208BF964244F1FD0404F5407402D25B084FEA3202B61A65EB03055B084FEA32024FF461
S32D0000CA5080104FF4002CB6EB020E75EB030E22BFB61A754640EA0C005B084FEA3202B6EB020E75EB030E22BF22
S32D0000CA78B61A754640EA5C005B084FEA3202B6EB020E75EB030E22BFB61A754640EA9C005B084FEA3202B6EBEA
S32D0000CAA0020E75EB030E22BFB61A754640EADC0055EA060E18D04FEA051545EA16754FEA06164FEAC30343EAAC
S32D0000CAC852734FEAC2025FEA1C1CC0D111F4801F0BD141EA00014FF000004FF0004CB6E711F4801F04BF0143AE
S32D0000CAF00020B4F1FD0C88BFBCF5E06F3FF6AFAEB5EB030C04BFB6EB020C5FEA500C50F1000041EB045170BDBC
S32D0000CB180EF0004E4EEA113114EB5C04C2BFD4EB0C0541EA045170BD41F480114FF0000E013C90E645EA060EC3
S32D0000CB408DE60CEA135594EA0C0F08BF95EA0C0F3FF43BAF94EA0C0F0AD150EA01347FF434AF95EA0C0F7FF499
S32D0000CB6825AF104619462CE795EA0C0F06D152EA03353FF4FDAE1046194622E750EA410618BF52EA43067FF432
S32D0000CB90C5AE50EA41047FF40DAF52EA43057FF4EBAE12E74FF0FF3C06E000BF4FF0010C02E000BF4FF0010C75
S32D0000CBB84DF804CD4FEA410C7FEA6C5C4FEA430C18BF7FEA6C5C1BD001B050EA410C0CBF52EA430C91EA030FEC
S32D0000CBE002BF90EA020F0020704710F1000F91EA030F58BF994208BF90422CBFD8176FEAE37040F0010070476E
S32D0000CC084FEA410C7FEA6C5C02D150EA013C07D14FEA430C7FEA6C5CD6D152EA033CD3D05DF8040B704700BFCD
S32D0000CC308446104662468C461946634600E000BF01B5FFF7B7FF002848BF10F1000F01BD4DF808EDFFF7F4FF13
S32D0000CC580CBF012000205DF808FB00BF4DF808EDFFF7EAFF34BF012000205DF808FB00BF4DF808EDFFF7E0FF18
S32D0000CC8094BF012000205DF808FB00BF4DF808EDFFF7CEFF94BF012000205DF808FB00BF4DF808EDFFF7C4FF40
S32D0000CCA834BF012000205DF808FB00BF4FEA410212F5001215D211D56FF47873B3EB625212D94FEAC12343F0D6
S32D0000CCD0004343EA505311F0004F23FA02F018BF404270474FF00000704750EA013005D111F0004008BF6FF016
S32D0000CCF8004070474FF00000704700BF4A0011D212F5001211D20DD56FF47873B3EB62520ED44FEAC12343F085
S32D0000CD20004343EA505323FA02F070474FF00000704750EA013002D14FF0FF3070474FF0000070474FEA410241
S32D0000CD48B2F1E04324BFB3F5001CDCF1FE5C0DD901F0004C4FEAC0024CEA5070B2F1004F40EB830008BF20F09E
S32D0000CD700100704711F0804F21D113F13872BCBF01F00040704741F480114FEA5252C2F11802C2F1200C10FAB1
S32D0000CD980CF320FA02F018BF40F001004FEAC1234FEAD32303FA0CFC40EA0C0023FA02F34FEA4303CCE77FEA26
S32D0000CDC0625307D150EA01331EBF4FF0FE4040F44000704701F0004040F0FE4040F40000704700BF80F00040CC
S32D0000CDE802E000BF81F0004142001FBF5FEA410392EA030F7FEA226C7FEA236C6AD04FEA1262D2EB1363C1BF06
S32D0000CE10D218414048404140B8BF5B42192B88BF704710F0004F40F4000020F07F4018BF404211F0004F41F4FA
S32D0000CE38000121F07F4118BF494292EA030F3FD0A2F1010241FA03FC10EB0C00C3F1200301FA03F100F000432B
S32D0000CE6002D5494260EB4000B0F5000F13D3B0F1807F06D340084FEA310102F10102FE2A51D2B1F1004F40EB94
S32D0000CE88C25008BF20F0010040EA03007047490040EB000010F4000FA2F10102EDD1B0FA80FCACF1080CB2EB5F
S32D0000CEB00C0200FA0CF0AABF00EBC25052421843BCBFD0401843704792F0000F81F4000106BF80F400000132EB
S32D0000CED8013BB5E74FEA41037FEA226C18BF7FEA236C21D092EA030F04D092F0000F08BF0846704790EA010FD7
S32D0000CF001CBF0020704712F07F4F04D1400028BF40F00040704712F100723CBF00F50000704700F0004343F0DC
S32D0000CF28FE4040F4000070477FEA226216BF08467FEA23630146420206BF5FEA412390EA010F40F480007047C1
S32D0000CF504FF0000304E000BF10F0004348BF40425FEA000C08BF704743F0964301464FF000001CE050EA010264
S32D0000CF7808BF70474FF000030AE000BF50EA010208BF704711F0004302D5404261EB41015FEA010C02BF84465B
S32D0000CFA00146002043F0B64308BFA3F18053A3F50003BCFA8CF2083AA3EBC25310DB01FA02FC634400FA02FC6B
S32D0000CFC8C2F12002BCF1004F20FA02F243EB020008BF20F00100704702F1200201FA02FCC2F1200250EA4C0034
S32D0000CFF021FA02F243EB020008BF20EADC7070474FF0FF0C1CEAD0521EBF1CEAD15392EA0C0F93EA0C0F6FD019
S32D0000D0181A4480EA010C400218BF5FEA41211ED04FF0006343EA501043EA5111A0FB01310CF00040B1F5000FE7
S32D0000D0403EBF490041EAD3715B0040EA010062F17F02FD2A1DD8B3F1004F40EBC25008BF20F00100704790F058
S32D0000D068000F0CF0004C08BF49024CEA502040EA51207F3AC2BFD2F1FF0340EAC250704740F400004FF0000388
S32D0000D090013A5DDC12F1190FDCBF00F000407047C2F10002410021FA02F1C2F1200200FA02FC5FEA310040F1D5
S32D0000D0B8000053EA4C0308BF20EADC70704792F0000F00F0004C02BF400010F4000F013AF9D040EA0C0093F04C
S32D0000D0E0000F01F0004C02BF490011F4000F013BF9D041EA0C018FE70CEAD15392EA0C0F18BF93EA0C0F0AD00B
S32D0000D10830F0004C18BF31F0004CD8D180EA010000F00040704790F0000F17BF90F0004F084691F0000F91F0BB
S32D0000D130004F14D092EA0C0F01D142020FD193EA0C0F03D14B0218BF084608D180EA010000F0004040F0FE4051
S32D0000D15840F40000704740F0FE4040F4400070474FF0FF0C1CEAD0521EBF1CEAD15392EA0C0F93EA0C0F69D044
S32D0000D180A2EB030280EA010C49024FEA402037D04FF0805343EA111143EA10130CF000408B4238BF5B0042F14E
S32D0000D1A87D024FF4000C8B4224BF5B1A40EA0C00B3EB510F24BFA3EB510340EA5C00B3EB910F24BFA3EB9103A4
S32D0000D1D040EA9C00B3EBD10F24BFA3EBD10340EADC001B0118BF5FEA1C1CE0D1FD2A3FF650AF8B4240EBC25018
S32D0000D1F808BF20F0010070470CF0004C4CEA50207F32C2BFD2F1FF0340EAC250704740F400004FF00003013AF1
S32D0000D22037E792F0000F00F0004C02BF400010F4000F013AF9D040EA0C0093F0000F01F0004C02BF490011F4C9
S32D0000D248000F013BF9D041EA0C0195E70CEAD15392EA0C0F08D142027FF47DAF93EA0C0F7FF470AF084676E7AE
S32D0000D27093EA0C0F04D14B023FF44CAF08466EE730F0004C18BF31F0004CCAD130F000427FF45CAF31F0004376
S32D0000D2987FF43CAF5FE700BF4FF0FF3C06E000BF4FF0010C02E000BF4FF0010C4DF804CD4FEA40024FEA41039F
S32D0000D2C07FEA226C18BF7FEA236C11D001B052EA530C18BF90EA010F58BFB2EB030088BFC81738BF6FEAE1706E
S32D0000D2E818BF40F0010070477FEA226C02D15FEA402C05D17FEA236CE4D15FEA412CE1D05DF8040B704700BF16
S32D0000D310844608466146FFE70FB5FFF7C9FF002848BF10F1000F0FBD4DF808EDFFF7F4FF0CBF012000205DF839
S32D0000D33808FB00BF4DF808EDFFF7EAFF34BF012000205DF808FB00BF4DF808EDFFF7E0FF94BF012000205DF8A9
S32D0000D36008FB00BF4DF808EDFFF7D2FF94BF012000205DF808FB00BF4DF808EDFFF7C8FF34BF012000205DF8B1
S32D0000D38808FB00BF4FEA4002B2F1FE4F0FD34FF09E03B3EB12620DD94FEA002343F0004310F0004F23FA02F060
S32D0000D3B018BF404270474FF00000704712F1610F01D1420205D110F0004008BF6FF0004070474FF00000704797
S32D0000D3D880B582B000AF786039607B68012B2CD13A684FF6FF739A4227D141F21C10C1F6FF704FF0080104F0A6
S32D0000D40003F941F22010C1F6FF704FF0090104F0FBF841F22410C1F6FF704FF000014FF00002C4F2401201F042
S32D0000D4285FFB41F22C10C1F6FF704FF001014FF00002C4F2401201F053FB07F10807BD4680BD00BF80B500AF34
S32D0000D4504FF001004FF6FF71FFF7BEFF80BD00BF90B583B000AF4FF000037B6041F23410C1F6FF7004F0A8FC91
S32D0000D47803461846FFF72CF902460B464FF001010C461046194630A3D3E90023FFF704FC0346002B02D14FF0B5
S32D0000D4A000031C46FC7041F23810C1F6FF7004F08BFC03461846FFF70FF902460B464FF001010C4610461946EB
S32D0000D4C823A3D3E90023FFF7E7FB0346002B02D14FF000031C46BC7041F23C10C1F6FF7004F06EFC03461846F8
S32D0000D4F0FFF7F2F802460B464FF001010C461046194617A3D3E90023FFF7CAFB0346002B02D14FF000031C460E
S32D0000D5187C70BB78002B03D04FF000037B600BE0FB78002B02D04FF002037B607B78002B02D04FF001037B6023
S32D0000D5407B68184607F10C07BD4690BDAFF30080CDCCCCCCCCCCF43F5839B4C876BEF33FD7A3703D0AD7FB3F4E
S32D0000D56880B582B000AF41F25010C1F6FF7004F027FC03461846FFF7ABF802460B46C7E90023D7E9000138A367
S32D0000D590D3E90023FFF766FB0346002B1CD041F25C40C1F6FF704FF0020105F055FD41F25C40C1F6FF704FF025
S32D0000D5B8010105F09FFD41F25C40C1F6FF7045F64471C0F2010105F00DFF4FF0010345E0D7E900014FF00002AE
S32D0000D5E04FF00003C3F6F073FFF73CFB0346002B1CD041F25C40C1F6FF704FF0040105F02BFD41F25C40C1F656
S32D0000D608FF704FF0010105F075FD41F25C40C1F6FF7045F64871C0F2010105F0E3FE4FF000031BE041F25C405E
S32D0000D630C1F6FF704FF0000105F00EFD41F25C40C1F6FF704FF0010105F058FD41F25C40C1F6FF7045F65071F5
S32D0000D658C0F2010105F0C6FE4FF00203184607F10807BD4680BD00BFF6285C8FC2F5D83F80B500AF41F2681029
S32D0000D680C1F6FF7001F078FA41F27010C1F6FF7001F072FA41F26010C1F6FF7004F06EFB41F26410C1F6FF70CA
S32D0000D6A804F068FB80BD00BF80B500AFFFF7E0FF41F27010C1F6FF704FF00001C4F2701101F0A6FA41F26810BC
S32D0000D6D0C1F6FF704FF00001CCF2701101F09CFA0DE041F25010C1F6FF7004F06DFB034641F25C40C1F6FF70C0
S32D0000D6F8194605F09FFE41F26010C1F6FF7004F025FB024640F217139A420DDC41F26410C1F6FF7004F01AFBF7
S32D0000D720024640F217139A4202DC4FF0010301E04FF00003002BD4D1FFF79EFF80BD00BF90B583B000AF7860B9
S32D0000D748FFF796FF41F26810C1F6FF704FF00001CCF2701101F05CFA41F27010C1F6FF704FF00001C4F2701141
S32D0000D77001F052FA00BF41F26010C1F6FF7004F0E9FA03461846FFF7E7FB04467B6818461946FFF72DFB03461F
S32D0000D79820461946FFF7CEFD0346002B1AD041F26410C1F6FF7004F0D1FA03461846FFF7CFFB04467B68184601
S32D0000D7C01946FFF715FB034620461946FFF7B6FD0346002B02D04FF0010301E04FF00003002BC8D1FFF748FF72
S32D0000D7E807F10C07BD4690BD80B500AFFFF740FF41F26810C1F6FF704FF00001C4F2701101F006FA41F27010B3
S32D0000D810C1F6FF704FF00001CCF2701101F0FCF90DE041F25010C1F6FF7004F0CDFA034641F25C40C1F6FF70C0
S32D0000D838194605F0FFFD41F26010C1F6FF7004F085FA0346B3F5847F0CDC41F26410C1F6FF7004F07BFA0346DB
S32D0000D860B3F5847F02DC4FF0010301E04FF00003002BD6D1FFF700FF80BD00BF0000000080B582B000AFFFF7DC
S32D0000D888F7FE4FF019037B607868FEF70FFF02460B46104619462AA3D3E90023FEF76CFF02460B4610461946BC
S32D0000D8B027A3D3E90023FEF763FF02460B4610461946FFF73FFA034641F26810C1F6FF70194601F0A1F97868E9
S32D0000D8D8FFF73EFB034641F27010C1F6FF70194601F096F90DE041F25010C1F6FF7004F067FA034641F25C40DF
S32D0000D900C1F6FF70194605F099FD41F24410C1F6FF7003F0DBFD0346002B08D141F24010C1F6FF7003F0D2FDB9
S32D0000D9280346002B02D04FF0010301E04FF00003002BD8D1FFF79CFE07F10807BD4680BD666666666666EE3FE9
S32D0000D950713D0AD7A370ED3FB0B584B000AF7860FFF78AFE03F05AFC02460B4610461946FFF7E8F90346FB602B
S32D0000D9784FF01903BB60B868FEF798FE02460B46104619463CA3D3E90023FEF7F5FE02460B4610461946FFF728
S32D0000D9A0D1F9034641F26810C1F6FF70194601F033F9B868FFF7D0FA034641F27010C1F6FF70194601F028F986
S32D0000D9C80DE041F25010C1F6FF7004F0F9F9034641F25C40C1F6FF70194605F02BFD41F26410C1F6FF7004F02A
S32D0000D9F0B1F903461846FEF75DFE04460D467868FEF76AFE02460B46104619461EA3D3E90023FEF7B5FE0246B0
S32D0000DA180B4620462946FFF72BF90346002B1ED003F0F8FB04460D46F868FEF751FE02460B4620462946FEF7B4
S32D0000DA40EBFC02460B46104619464FF000024FF00003C4F22403FFF705F90346002B02D04FF0010301E04FF086
S32D0000DA680003002BADD1FFF703FE07F11007BD46B0BD00BFAFF30080666666666666EE3FD0D4EB16814743400C
S32D0000DA90B0B582B000AFFFF7EFFD03F0BFFB02460B4610461946FFF74DF903467B604FF019033B603868FEF75A
S32D0000DAB8FDFD02460B461046194635A3D3E90023FEF75AFE02460B4610461946FFF736F9034641F26810C1F6D6
S32D0000DAE0FF70194601F098F83B68C3F100031846FFF732FA034641F27010C1F6FF70194601F08AF80DE041F2DB
S32D0000DB085010C1F6FF7004F05BF9034641F25C40C1F6FF70194605F08DFC41F24C10C1F6FF7003F0CFFC03464A
S32D0000DB30002B24D141F24810C1F6FF7003F0C6FC0346002B1ED003F069FB04460D467868FEF7C2FD02460B46BE
S32D0000DB5820462946FEF75CFC02460B46104619464FF000024FF00003C4F22403FFF776F80346002B02D04FF0E6
S32D0000DB80010301E04FF00003002BBCD1FFF774FD07F10807BD46B0BD666666666666EEBFB0B584B000AF786089
S32D0000DBA8FFF766FD03F036FB02460B4610461946FFF7C4F80346FB604FF01903BB60B868FEF774FD02460B4699
S32D0000DBD01046194636A3D3E90023FEF7D1FD02460B4610461946FFF7ADF8034641F26810C1F6FF70194601F0A4
S32D0000DBF80FF8BB68C3F100031846FFF7A9F9034641F27010C1F6FF70194601F001F800BF41F26410C1F6FF7031
S32D0000DC2004F098F803461846FEF744FD04460D467868FEF73FFD02460B46104619461EA3D3E90023FEF79CFD4B
S32D0000DC4802460B4620462946FFF712F80346002B1ED003F0DFFA04460D46F868FEF738FD02460B46204629467D
S32D0000DC70FEF7D2FB02460B46104619464FF000024FF00003C4F22403FEF7ECFF0346002B02D04FF0010301E0CC
S32D0000DC984FF00003002BBBD1FFF7EAFC07F11007BD46B0BDAFF30080666666666666EEBFD0D4EB1681474340E7
S32D0000DCC0B0B584B000AF78603960FFF7D5FC03F0A5FA02460B4610461946FFF733F80346FB603868FEF7E6FC9A
S32D0000DCE802460B461046194635A3D3E90023FEF743FD02460B4610461946FFF71FF8034641F26810C1F6FF705F
S32D0000DD10194600F081FF3B68C3F100031846FFF71BF9034641F27010C1F6FF70194600F073FF00BF41F264100B
S32D0000DD38C1F6FF7004F00AF803461846FEF7B6FC04460D467868FEF7B1FC02460B46104619461DA3D3E9002347
S32D0000DD60FEF70EFD02460B4620462946FEF784FF0346002B1ED003F051FA04460D46F868FEF7AAFC02460B46DE
S32D0000DD8820462946FEF744FB02460B46104619464FF000024FF00003C4F22403FEF75EFF0346002B02D04FF0DF
S32D0000DDB0010301E04FF00003002BBBD1FFF75CFC07F11007BD46B0BD666666666666EEBFD0D4EB168147434099
S32D0000DDD880B584B000AF7860FFF74AFC03F01AFA02460B4610461946FEF7A8FF0346FB607868FEF75BFC0246E8
S32D0000DE000B461046194638A3D3E90023FEF7B8FC02460B4610461946FEF794FF034641F26810C1F6FF7019463C
S32D0000DE2800F0F6FE7868FFF793F8034641F27010C1F6FF70194600F0EBFE00BF41F23410C1F6FF7003F0BCFF23
S32D0000DE5003461846FEF740FC02460B461046194623A3D3E90023FEF71BFF0346002B2ED041F23C10C1F6FF70B3
S32D0000DE7803F0A6FF03461846FEF72AFC02460B46104619461AA3D3E90023FEF705FF0346002B18D041F2381068
S32D0000DEA0C1F6FF7003F090FF03461846FEF714FC02460B461046194611A3D3E90023FEF7EFFE0346002B02D0F7
S32D0000DEC84FF0010301E04FF00003002BB6D1FFF7CFFB07F11007BD4680BD00BFAFF30080666666666666EE3F93
S32D0000DEF0CDCCCCCCCCCCF43FD7A3703D0AD7FB3F5839B4C876BEF33FB0B582B000AF41F26810C1F6FF704FF0FD
S32D0000DF180001C4F2181100F07BFE41F27010C1F6FF704FF00001C4F2A01100F071FE03F071F902460B46104667
S32D0000DF401946FEF7FFFE03467B6000BFFFF788FA0346002B1ED103F061F904460D467868FEF7BAFB02460B4697
S32D0000DF6820462946FEF754FA02460B46104619464FF000024FF00003C3F6F073FEF76EFE0346002B02D04FF0A0
S32D0000DF90010301E04FF00003002BD7D141F26810C1F6FF7000F0E8FD41F27010C1F6FF7000F0E2FD07F1080714
S32D0000DFB8BD46B0BDB0B582B000AF41F27010C1F6FF704FF0000100F023FE41F26810C1F6FF704FF00001C4F294
S32D0000DFE0201100F019FE03F019F902460B4610461946FEF7A7FE03467B6000BFFFF730FA0346012B1ED103F094
S32D0000E00809F904460D467868FEF762FB02460B4620462946FEF7FCF902460B46104619464FF000024FF00003F0
S32D0000E030C3F6F073FEF716FE0346002B02D04FF0010301E04FF00003002BD7D141F26810C1F6FF7000F090FDD0
S32D0000E05841F27010C1F6FF7000F08AFD07F10807BD46B0BDB0B582B000AF41F26810C1F6FF704FF0000100F08C
S32D0000E080CBFD41F27010C1F6FF704FF00001C4F2201100F0C1FD03F0C1F802460B4610461946FEF74FFE034677
S32D0000E0A87B6000BFFFF7D8F90346022B1ED103F0B1F804460D467868FEF70AFB02460B4620462946FEF7A4F971
S32D0000E0D002460B46104619464FF000024FF00003C3F6F073FEF7BEFD0346002B02D04FF0010301E04FF00003D9
S32D0000E0F8002BD7D141F26810C1F6FF7000F038FD41F27010C1F6FF7000F032FD07F10807BD46B0BDF0B585B0E8
S32D0000E12000AF786003F07AF802460B4610461946FEF708FE0346FB6028E0FFF791F9B86041F25C40C1F6FF7063
S32D0000E148B96805F063F9BB68012B09D0022B04D0002B08D1FFF7D4FE14E0FFF783FF11E0FFF728FF0EE041F2A7
S32D0000E1705C40C1F6FF7045F65871C0F201014FF004024FF0050305F061F800BF03F046F804460D46F868FEF74B
S32D0000E1989FFA02460B4620462946FEF739F902460B4614461D467868FEF792FA02460B464FF001010E462046E0
S32D0000E1C02946FEF74FFD0346002B02D14FF000031E46F3B2002BB0D107F11407BD46F0BDB0B584B000AF03F045
S32D0000E1E819F802460B4610461946FEF7A7FD0346BB604FF000004FF0804102F0DFFF40E041F25010C1F6FF70C5
S32D0000E21003F0DAFD034641F25C40C1F6FF70194605F00CF902F0FAFF04460D46B868FEF753FA02460B46204696
S32D0000E2382946FEF7EDF802460B464FF001010C46104619464FF000024FF00003C4F23E03FEF722FD0346002B8C
S32D0000E26002D14FF000031C46E3B2002B0DD041F25010C1F6FF7003F0A7FD034641F25C40C1F6FF70194605F09A
S32D0000E288D9F841F25010C1F6FF7003F099FD03461846FEF71DFA02460B464FF001010C4610461946A2A3D3E9C0
S32D0000E2B00023FEF7F5FC0346002B02D14FF000031C46E3B2002B9FD14FF00900FFF768FCFFF78EFAFFF7DCFB2F
S32D0000E2D84FF00000C4F2C000FFF73AFB02F09AFFC7E900014FF00003FB6002E0FFF738F9F86002F08FFF024636
S32D0000E3000B4610461946D7E90023FEF785F802460B464FF001010C46104619464FF000024FF00003C4F208036F
S32D0000E328FEF79CFC0346002B02D14FF000031C46E3B2002BDAD141F25C40C1F6FF704FF0000104F085FEFFF742
S32D0000E35097FA4FF00100FFF723FCFFF749FA4FF02D004FF03C01FFF7ABFC4FF01400FFF717FC4FF08140FFF7A9
S32D0000E378EFFAFFF739FAFFF787FB41F25410C1F6FF704FF00001C4F2B42104F011F94FF00000C4F26010FFF70C
S32D0000E3A0DBFA4FF00F00FFF717FD4FF00000C4F22010FFF7B3FE4FF007004FF00A01FFF77FFC41F25410C1F607
S32D0000E3C8FF704FF00001C4F2701104F0F1F84FF08140FFF79FFE41F25410C1F6FF704FF00001C4F2F01104F029
S32D0000E3F0E3F84FF00A004FF00F01FFF761FC41F25410C1F6FF704FF00001C4F2B42104F0D3F84FF00000C4F2FD
S32D0000E418F010FFF791F9FFF737FB4FF00000C4F23420FFF789F9FFF72FFB4FF07E50FFF78FFAFFF739F902F0A7
S32D0000E440EDFE02460B4610461946FEF77BFC0346BB6003E04FF07E50FFF77EFA02F0DEFE04460D46B868FEF7C7
S32D0000E46837F902460B4620462946FDF7D1FF02460B46104619464FF000024FF00003C4F22403FEF7EBFB034652
S32D0000E490002B11D141F24010C1F6FF7003F016F80346002B0BD041F24410C1F6FF7003F00DF80346002B02D06D
S32D0000E4B84FF0010301E04FF00003002BC6D14FF00200FFF769FBFFF78FF9FFF7DDFAFB68002B06D14FF0000084
S32D0000E4E0C4F29010FFF738FA08E0FB68012B05D14FF00000C4F2E010FFF72EFAFFF7D8F84FF00000C4F2A000E5
S32D0000E508FFF726FA41F25410C1F6FF704FF00001C4F2701104F04CF84FF00A004FF01E01FFF7CAFB07F11007F2
S32D0000E530BD46B0BDAFF30080666666666666E63F80B500AF41F25410C1F6FF704FF4FA7103F0F6FF41F25410D4
S32D0000E558C1F6FF7040F6C41104F00CF841F25C40C1F6FF704FF0000104F072FD41F25C40C1F6FF704FF001019E
S32D0000E58004F0BCFDFFF72CFE4FF00003184680BD80B582B000AF786039607B68012B74D13A684FF6FF739A42B3
S32D0000E5A86FD141F23410C1F6FF704FF0180103F0F5FB41F23810C1F6FF704FF01F0103F0EDFB41F23C10C1F61C
S32D0000E5D0FF704FF01C0103F0E5FB41F24010C1F6FF704FF0000102F051FE41F24410C1F6FF704FF0020102F074
S32D0000E5F849FE41F24810C1F6FF704FF0040102F041FE41F24C10C1F6FF704FF0060102F039FE41F25010C1F61A
S32D0000E620FF704FF0070103F0BDFB41F25410C1F6FF704FF0000103F065FF41F26010C1F6FF704FF0080102F014
S32D0000E648DFFF41F26410C1F6FF704FF0090102F0D7FF41F26810C1F6FF704FF000014FF00002C4F2401200F09E
S32D0000E6703BFA41F27010C1F6FF704FF001014FF00002C4F2401200F02FFA07F10807BD4680BD00BF80B500AFE1
S32D0000E6984FF001004FF6FF71FFF776FF80BD00BF80B500AF41F22872C1F6FF7241F21C13C1F6FF73D31A41F274
S32D0000E6C01C10C1F6FF704FF000011A4606F0D1FB80BD00BF07F022FC00F0B0F9FFF7E4FF07F0F8FB07F094FB85
S32D0000E6E807F02AFC00F00CF84FF0000041F27811C1F6FF71FFF720FF0346184606F090FB80B500AF4FF4E0434A
S32D0000E710C4F204034FF4E042C4F2040202F5815202F11802126842F4785203F5815303F118031A6000F02EF940
S32D0000E73800F094F841F2A833C1F6FF734FF058021A6041F2A833C1F6FF731B684FF47A7202FB03F241F2A43308
S32D0000E760C1F6FF731A6041F2A433C1F6FF731B681A464FF4E043C4F2040303F5825303F104031B6803F070639E
S32D0000E7884FEA136303F10103B2FBF3F31A4641F2AC33C1F6FF731A604FF4E043C4F204034FF4E042C4F20402D0
S32D0000E7B002F5815202F11C02126842F0225203F5815303F11C031A604FF4E043C4F204034FF4E042C4F20402A3
S32D0000E7D802F5815202F11002126842F0006203F5815303F110031A604FF45043C4F203034FF480721A614FF068
S32D0000E800640002F05BFB4FF45043C4F203034FF45042C4F20302526922F010025A614FF45043C4F203034FF0B1
S32D0000E82800021A604FF45043C4F203034FF010025A6103F0F7FB03F09FFC41F2A030C1F6FF7002F0BBFB41F231
S32D0000E8505C40C1F6FF7004F061FA41F2883002F097FC80BD80B400AF4FF48043C4F206034FF000025A704FF4E6
S32D0000E8788043C4F206034FF098021A704FF48043C4F206039B79DBB203F01003002B0CBF00230123DBB2002B2C
S32D0000E8A0F0D14FF48043C4F206039B79DBB203F00C034FEA9303022B0CBF00230123DBB2002BEED14FF4804396
S32D0000E8C8C4F206034FF018021A714FF48043C4F206034FF000025A714FF4E043C4F2040303F5825303F10403C3
S32D0000E8F04FF00002C0F213121A604FF48043C4F206034FF054025A7100BF4FF48043C4F206039B79DBB203F02B
S32D0000E9182003002B14BF00230123DBB2002BF0D100BF4FF48043C4F206039B79DBB203F04003002B14BF002374
S32D0000E9400123DBB2002BF0D14FF48043C4F206034FF48042C4F206021278D2B202F03F02D2B21A704FF480432F
S32D0000E968C4F206039B79DBB203F00C034FEA9303032B0CBF00230123DBB2002BEED14FF000031846BD4680BCBA
S32D0000E990704700BF80B400AF4FF44043C4F204034FF480725A634FF2C003C4F20F034FF2C002C4F20F0252693A
S32D0000E9B842F400525A614FF2C003C4F20F034FF2C002C4F20F02126842F400521A604FF44043C4F2040340F227
S32D0000E9E00312C0F20A021A634FF46143CEF200034FF46142CEF20002D2F8882142F08062C3F888214FF4614395
S32D0000EA08CEF200034FF46142CEF20002926842F080629A60BD4680BC704700BF80B483B000AF7860FEE700BF26
S32D0000EA3080B400AF00BEBD4680BC704780B400AF4FF0E0224CF20003C0F20003C2F8083D4FF40053C4F20503B4
S32D0000EA584CF22052DA814FF40053C4F205034DF62812DA814FF40053C4F205034FF0D2021A80BD4680BC704762
S32D0000EA8080B500AF4FF44043C4F20403D3F8A03003F48053002B0CBF00230123DBB2002B1FD04FF44043C4F23C
S32D0000EAA804034FF44042C4F20402D2F8A02022F48052C3F8A02041F2E440C1F6FF7006F033F94FF2C003C4F272
S32D0000EAD00F034FF2C002C4F20F02126822F400521A6080BD0000000080B584B000AFF8600B467A60FB72FB6838
S32D0000EAF8FA7A1A71FB684FF000025A7178684FF00001C4F24011FEF733FC0346002B05D04FF00003C4F24013A3
S32D0000EB207B600AE078684FF07E51FEF711FC0346002B02D04FF07E537B607868FDF7CCFD02460B4610461946F6
S32D0000EB4809A3D3E90023FDF717FE02460B4610461946FEF7F3F80246FB681A60FB68184607F11007BD4680BDA8
S32D0000EB70ABAAAAAAAAAA204080B582B000AF78607B685B79002B10D07B684FF000025A717B681B7941F2A03001
S32D0000EB98C1F6FF7019464FF000024FF01E0302F057FA07F10807BD4680BD00BF80B584B000AF786039603B68B4
S32D0000EBC07F2B03DD4FF07F03FB7309E03B6813F1800F03DA4FF08003FB7301E03B68FB737B685B79FA7B9A4248
S32D0000EBE80FD07B68FA7B5A717B681A79FB7B41F2A030C1F6FF7011461A464FF01E0302F027FA07F11007BD46AC
S32D0000EC1080BD00BF00000000B0B584B000AF7860396038684FF00001CCF2C821FEF786FB0346002B05D04FF09C
S32D0000EC380003CCF2C8233B600EE038684FF00001C4F2C821FEF794FB0346002B04D04FF00003C4F2C8233B60B0
S32D0000EC603868FDF739FD04460D467B681B681846FDF732FD02460B46104619464FF000024FF00003C4F2590355
S32D0000EC88FDF7A4FE02460B4620462946FDF774FD02460B4610461946FEF750F803463B6038684FF00001FEF7B1
S32D0000ECB059FB0346002B14D03868FDF70DFD02460B46104619461CA3D3E90023FDF758FD02460B461046194669
S32D0000ECD8FDF7ECFF0346FB6022E03868FDF7F8FC02460B46104619464FF000024FF00003C4F26003FDF740FDE6
S32D0000ED0002460B46104619464FF000024FF00003C4F25903FDF75EFE02460B4610461946FDF7C8FF0346FB6005
S32D0000ED287868F968FFF742FF07F11007BD46B0BD52B81E85EB51F43F80B485B000AF02460B46FA71BB71BB792E
S32D0000ED50002B07D141F27C13C1F6FF734FF000021A7006E041F27C13C1F6FF734FF001021A704FF03803FB7357
S32D0000ED7841F27C13C1F6FF731A78FB7B1343FB734FF4C043C4F206034FF4C042C4F206029278D2B242F01002DC
S32D0000EDA0D2B29A704FF4C043C4F206034FF4C042C4F206029278D2B242F02002D2B29A704FF4C043C4F206033A
S32D0000EDC8FA7B1A7107F11407BD4680BC704700BF80B483B000AF4FF001037B6004E000BF7B6803F101037B60C8
S32D0000EDF07B68312BCCBF00230123DBB2002BF2D107F10C07BD4680BC704700BF80B582B000AF02460B46FA718F
S32D0000EE18BB7141F27D13C1F6FF731B7818464FF00001FFF789FF4FF4C043C4F20603DB78DBB203F00203002BFD
S32D0000EE4014BF00230123DBB2002BF0D14FF4C043C4F206034FF4C042C4F20602D278D2B242F00202D2B2DA7037
S32D0000EE684FF4C043C4F20603FA791A714FF4C043C4F20603DB78DBB203F00203002B14BF00230123DBB2002B9F
S32D0000EE90F0D14FF4C043C4F206034FF4C042C4F20602D278D2B242F00202D2B2DA704FF4C043C4F20603BA7981
S32D0000EEB81A714FF4C043C4F20603DB78DBB203F00203002B14BF00230123DBB2002BF0D14FF4C043C4F2060301
S32D0000EEE04FF4C042C4F20602D278D2B242F00202D2B2DA704FF4C043C4F206034FF4C042C4F206029278D2B299
S32D0000EF0822F02002D2B29A704FF4C043C4F206034FF4C042C4F206029278D2B222F01002D2B29A70FFF754FF88
S32D0000EF3007F10807BD4680BD80B582B000AF0346FB71FB79184600F043F807F10807BD4680BD00BF80B582B037
S32D0000EF5800AF02460B46FA71BB7100F011F8FB794FEA4303DBB21846FFF7E2FFBB791846FFF7DEFF00F016F89B
S32D0000EF8007F10807BD4680BD80B400AF4FF24003C4F20F034FF24002C4F20F02926842F480129A60BD4680BCA8
S32D0000EFA8704700BF80B400AF4FF24003C4F20F034FF24002C4F20F02526842F480125A60BD4680BC704700BF5B
S32D0000EFD080B485B000AF0346FB714FF00003BB7303E0FB7B03F10103FB734FF44043C4F20A03DB6A4FF0000307
S32D0000EFF8002BF2D14FF44043C4F20A034FF44042C4F20A02D26A42F00042DA624FF44043C4F20A03FA795A6348
S32D0000F02000BF4FF44043C4F20A03DB6A03F40033002B14BF00230123DBB2002BF1D14FF44043C4F20A039B6BBD
S32D0000F048BB73BB7B184607F11407BD4680BC704780B582B000AF4FF4E043C4F204034FF4E042C4F2040202F57E
S32D0000F070815202F11002126842F4805203F5815303F110031A604FF42043C4F204034FF480721A654FF2400330
S32D0000F098C4F20F034FF24002C4F20F02526942F480125A61FFF77EFF4FF42043C4F204034FF400725A654FF46D
S32D0000F0C02043C4F204034FF400729A654FF42043C4F204034FF40072DA654FF44043C4F20A034FF44062C8F2CF
S32D0000F0E800021A604FF44043C4F20A034FF00502C3F60062DA604FF000037B6007E04FF0FF00FFF715FF7B682B
S32D0000F11003F101037B607B68092BCCBF00230123DBB2002BEFD104A1D1E9000102F04AF807F10807BD4680BDC2
S32D0000F1389A9999999999B93F90B486B000AFF860B9607A60FA684FF42043C4F206039A4214D14FF4E043C4F202
S32D0000F16004034FF4E042C4F2040202F5815202F11402126842F4806203F5815303F114031A6083E0FA684FF49B
S32D0000F1883043C4F206039A4214D14FF4E043C4F204034FF4E042C4F2040202F5815202F11402126842F400623D
S32D0000F1B003F5815303F114031A6067E0FA684FF44043C4F206039A4214D14FF4E043C4F204034FF4E042C4F2B3
S32D0000F1D8040202F5815202F11402126842F4805203F5815303F114031A604BE0FA684FF45043C4F206039A425F
S32D0000F20014D14FF4E043C4F204034FF4E042C4F2040202F5815202F11402126842F4005203F5815303F114030B
S32D0000F2281A602FE0FA684FF42043C4F20E039A4214D14FF4E043C4F204034FF4E042C4F2040202F5815202F19E
S32D0000F2500802126842F4806203F5815303F108031A6013E04FF4E043C4F204034FF4E042C4F2040202F58152AE
S32D0000F27802F10802126842F4006203F5815303F108031A60FB68DB78DBB223F00C03DAB2FB68DA70FB684FF0D4
S32D0000F2A000029A70BB684FF47A7202FB03F27B684FEA031392FBF3F39CB2FB681B78DBB223F01F03FB7523466C
S32D0000F2C803F4F8534FEA2323DBB203F01F03DAB2FB7D1343DAB2FB681A70E2B2FB685A70BB684FF4FA4202FB82
S32D0000F2F003F27B684FEA031392FBF3F39AB2234619464FEAC121CB1A4FEA43139BB2D3189CB2FB689B7ADBB228
S32D0000F31823F01F03FB75E3B203F01F03DAB2FB7D1343DAB2FB689A72FB68DB78DBB243F00C03DAB2FB68DA7065
S32D0000F34007F11807BD4690BC704700BF80B483B000AF786000BF7B681B79DBB203F02003002B14BF00230123B7
S32D0000F368DBB2002BF3D17B68DB79DBB2184607F10C07BD4680BC704780B483B000AF78600B46FB7000BF7B688C
S32D0000F3901B79DBB2DBB26FEA0303DBB24FEAD313DBB2002BF3D17B68FA78DA7107F10C07BD4680BC704700BFBA
S32D0000F3B880B487B000AFF860B9607A60FB687B6107E0BB68DAB27B691A707B6903F101037B617B68002B0CBFEE
S32D0000F3E000230123DBB27A6802F1FF327A60002BEBD107F11C07BD4680BC704780B584B000AF786039607B68E7
S32D0000F4081B6BFB60FA683B689A4264D07B681B79002B43D07B685A787B6803F1340310461946FA684FF001030E
S32D0000F43001F0AAFB0346002B0CBF00230123DBB2002B02D04FF001034BE07B684FF000021A717B685A6A7B6861
S32D0000F4581B6AD218FB689A4220D97B68DB78FB7214E07B681B6AFA68D318FB607B685A787B6803F1340310461F
S32D0000F4801946FA684FF0010301F07EFBFB7A03F1FF33FB72FB7A012B94BF00230123DBB2002BE2D13B68002B74
S32D0000F4A819D07B685A787B6803F13403104619463A684FF0010301F051FA0346002B0CBF00230123DBB2002B76
S32D0000F4D002D04FF0010304E07B683A681A634FF00003184607F11007BD4680BD80B584B000AF786078684FF015
S32D0000F4F80001FFF77FFF0346FB73FB7B002B40F0AE807B681B78032B40F095807B685B79002B00F090807B680D
S32D0000F5204FF000021A637B6803F1340318464FF000014FF40072FFF73FFF7B684FF0550283F832227B684FF000
S32D0000F548AA0283F833227B684FF0520283F834207B684FF0520283F835207B684FF0610283F836207B684FF016
S32D0000F570410283F837207B684FF0720283F818227B684FF0720283F819227B684FF0410283F81A227B684FF083
S32D0000F598610283F81B227B681B69DAB27B6883F81C227B681B699BB24FEA2323DAB27B6883F81D227B681B69D8
S32D0000F5C04FEA1343DAB27B6883F81E227B681B694FEA1363DAB27B6883F81F227B68DB68DAB27B6883F82022D1
S32D0000F5E87B68DB689BB24FEA2323DAB27B6883F821227B68DB684FEA1343DAB27B6883F822227B68DB684FEA94
S32D0000F6101363DAB27B6883F823227B6859787B6803F134027B685B69084611461A464FF0010301F0A9FA7B6800
S32D0000F6384FF000025A717B685B7818464FF000014FF0000201F086FB0346002B0CBF00230123DBB2002B02D081
S32D0000F6604FF00103FB73FB7B184607F11007BD4680BD00BF80B582B000AF78600B467B807B68002B08D07B68E6
S32D0000F6881B78002B04D07B68DB887A889A4202D04FF0090313E07B685B78184601F0F2FB034603F00103002B31
S32D0000F6B00CBF00230123DBB2002B02D04FF0030301E04FF00003184607F10807BD4680BD80B586B000AF786091
S32D0000F6D87B681A687B689B8810461946FFF7C6FF0346FB75FB7D002B40F0C8807B689B7903F02003002B00F02D
S32D0000F700C1807B689B7903F04003002B20D07B681B6859787B6803F128027B689B69084611461A464FF00103EB
S32D0000F72801F02EFA0346002B0CBF00230123DBB2002B02D04FF00103A1E07B689B7923F04003DAB27B689A71FF
S32D0000F7507B681A687B68DB6910461946FFF74EFE0346FB75FB7D002B40F08C807B681B6A3B613B6903F10B03C6
S32D0000F7783A6902F10B02127842F02002D2B21A703B6903F11C037A68D268D2B21A703B6903F11D037A68D2681F
S32D0000F7A092B24FEA2222D2B21A703B6903F11E037A68D2684FEA1242D2B21A703B6903F11F037A68D2684FEAED
S32D0000F7C81262D2B21A703B6903F11A037A681269D2B21A703B6903F11B037A68126992B24FEA2222D2B21A708F
S32D0000F7F03B6903F114037A6812694FEA1242D2B21A703B6903F115037A6812694FEA124292B24FEA2222D2B265
S32D0000F8181A704FF00003FB603B6903F11603FA68D2B21A703B6903F11703FA6892B24FEA2222D2B21A703B69F3
S32D0000F84003F11803FA684FEA1242D2B21A703B6903F11903FA684FEA1262D2B21A707B689B7923F02003DAB204
S32D0000F8687B689A717B681B684FF001021A717B681B681846FFF736FE0346FB75FB7D184607F11807BD4680BD7D
S32D0000F89080B584B000AF78607868FFF719FF0346FB73FB7B002B03D17B684FF000021A60FB7B184607F11007BF
S32D0000F8B8BD4680BD80B588B000AF786039604FF080033B614FF00F03FB604FF0FF337B614FF00203FB612AE054
S32D0000F8E04FF00103BB611AE0FB69BA6902FB03F33A6802FB03F27B68D31ABB60BB68002B09DBBA687B699A4294
S32D0000F90805D2BB687B61FB693B61BB69FB60BB6903F10103BB61BB69102B8CBF00230123DBB2002BDCD1FB698A
S32D0000F9304FEA4303FB61FB69B3F5807F8CBF00230123DBB2002BCBD14FF48053C4F20B034FF48052C4F20B022B
S32D0000F958D26A22F00802DA624FF48053C4F20B03DB6A23F47F2323F47F63BB614FF48053C4F20B033A694FEA4A
S32D0000F98052024FEA02224FEA02424FEA1242F96801F1FF314FEA0111C9B21143BA690A4342F46022DA6203E0BA
S32D0000F9A84FF00A0001F0F0FB4FF48053C4F20B035B6A03F00803002B14BF00230123DBB2002BEDD14FF480539E
S32D0000F9D0C4F20B034FF48052C4F20B02D26A42F00802DA624FF48053C4F20B034FF48052C4F20B02126B42F454
S32D0000F9F880121A6307F12007BD4680BD80B582B000AF786039607B684FF000021A604FF48053C4F20B034FF431
S32D0000FA200042C0F20012DA624FF48053C4F20B03DB6A03F08073002B0CBF00230123DBB2002BF1D14FF48053A4
S32D0000FA48C4F20B034FF00002C3F8C0204FF48053C4F20B034FF481325A604FF48053C4F20B034FF028029A6227
S32D0000FA704FF48053C4F20B034FF001125A643B689B6818464CF66041C0F20501FFF716FF4FF48053C4F20B03FA
S32D0000FA985B6A03F00303002B0CBF00230123DBB2002BF1D14FF45043C4F2040340F243421A604FF45043C4F27B
S32D0000FAC0040340F243425A604FF45043C4F204034FF488629A604FF45043C4F2040340F24342DA604FF450438C
S32D0000FAE8C4F2040340F243421A614FF45043C4F2040340F243425A614FF4E043C4F204034FF4E042C4F20402B8
S32D0000FB1002F5815202F11002126842F4003203F5815303F110031A604FF48053C4F20B034FF6FF721A634FF479
S32D0000FB388053C4F20B034FF0B302C0F27F025A634FF48053C4F20B034FF48052C4F20B02D26A42F00062DA6266
S32D0000FB604FF48053C4F20B03DB6A03F00063002B0CBF00230123DBB2002BF1D14FF48053C4F20B035B6A03F4B5
S32D0000FB888033002B0CBF00230123DBB2002B03D07B684FF001021A604FF48053C4F20B034FF48052C4F20B0283
S32D0000FBB0126B42F080021A634FF00003184607F10807BD4680BD00BF80B400AF4FF48053C4F20B035A6A40F220
S32D0000FBD807331340002B0CBF00230123DBB21846BD4680BC704700BF80B485B000AF78604FF48053C4F20B03CB
S32D0000FC001A6B7B681340FB60FB68002B14BF00230123DBB2002BEFD1FB68184607F11407BD4680BC704700BF17
S32D0000FC2880B584B000AF78607B681B7803F03F0246F23803C0F2010353F82230FB60FB68002B06D17B681B7818
S32D0000FC50002B02D04FF001032FE14FF48053C4F20B034FF48052C4F20B02126B42F080021A634FF48053C4F20A
S32D0000FC780B035B6A03F00103002B0CBF00230123DBB2002BF1D14FF48053C4F20B037A6852689A60FB6823F4F3
S32D0000FCA04003FB607B685B784FEA835303F44003FA681343FB607B685B78022B03D1FB6843F40013FB607B68E4
S32D0000FCC85B78042B16D1FB6803F44033B3F5003F08D1FB6823F44033FB60FB6843F44033FB6007E0FB6823F487
S32D0000FCF04033FB60FB6843F40033FB604FF48053C4F20B034FF48052C4F20B0252684FEA02424FEA12425A60C0
S32D0000FD187B68DB68002B31D0FB6803F44033B3F5403F03D0FB6843F40013FB607B681B7A002B03D0FB6843F090
S32D0000FD401003FB607B68DB68012B03D9FB6843F02003FB607B68DB68B3F1FF3F12D04FF48053C4F20B034FF4DE
S32D0000FD688052C4F20B0251687A68D2684FEA02420A435A60FB6843F00203FB604FF48053C4F20B034FF000026E
S32D0000FD901A604FF48053C4F20B03FA68DA604FF00100C0F20E00FFF723FF0346012B0CBF00230123DBB2002BFE
S32D0000FDB810D04FF48053C4F20B034FF48052C4F20B02126B42F4702242F001021A634FF001036EE04FF48053ED
S32D0000FDE0C4F20B031B6B03F08003002B0CBF00230123DBB2002B0ED04FF48053C4F20B034FF48052C4F20B02B0
S32D0000FE08126B42F001121A634FF0010351E04FF48053C4F20B031B6B03F48033002B0CBF00230123DBB2002B1A
S32D0000FE300ED04FF48053C4F20B034FF48052C4F20B02126B42F001121A634FF0FF3334E0FB6803F44033002B58
S32D0000FE5821D04FF48053C4F20B031A697B681A61FB6803F44033B3F5803F14D14FF48053C4F20B035A697B6837
S32D0000FE805A614FF48053C4F20B039A697B689A614FF48053C4F20B03DA697B68DA614FF48053C4F20B034FF486
S32D0000FEA88052C4F20B02126B42F001021A634FF00003184607F11007BD4680BD80B592B000AF786039604FF0A3
S32D0000FED00003FB633B68BB6341F29413C1F6FF737B637B6B002B03D140F6012300F09BBC41F29833C1F6FF7354
S32D0000FEF83B633B6B002B03D140F60B2300F08FBC3B6B1B68FB62FB6A002B03D140F60B2300F085BC7B6841F265
S32D0000FF200432934200F0348241F2043293421BD841F20132934238D041F20132934207D8032B00F03884092B66
S32D0000FF4800F0248400F061BC41F20232934200F00F8241F20332934200F0B98300F055BC41F20732934200F08E
S32D0000FF70468341F2073293420BD841F20532934200F0308241F20632934200F00B8300F040BC41F208329342A9
S32D0000FF9800F0B28241F20932934200F0C08200F034BC786B46F22C01C0F20101FFF726FDF863FB6B002B40F091
S32D0000FFC02C844FF0000387F847304FF0000387F82B304FF0000387F82A304FF0000387F829304FF0000387F819
S32D0000FFE846304FF0000387F828304FF000033B724FF000037B724FF00003FB604FF000033B744FF000037B6192
S32D0001001007F108031846FFF707FE0346002B0CBF00230123DBB2002B03D04FF00103FB63F8E340F24C4001F029
S32D00010038ABF84FF008033B724FF000037B724FF4D573FB604FF000033B744FF000037B6107F108031846FFF784
S32D00010060E3FD38643B6C002B0BD1BA69FB689A4203D04FF00103FB63D4E34FF0010387F846304FF0010387F8C0
S32D00010088283097F82830002B00F0C5804FF037033B724FF000037B724FF00003FB604FF000033B744FF0000385
S32D000100B07B6107F108031846FFF7B6FD38643B6C002B03D04FF00103FB63ABE34FF069033B724FF000037B7244
S32D000100D84FF00003FB604FF000033B744FF000037B6107F108031846FFF79AFD0346002B0CBF00230123DBB24C
S32D00010100002B03D04FF00103FB638BE3BB6903F44013002B00F083804FF000033B644FF00A0001F035F83B6C48
S32D0001012803F101033B644FF037033B724FF000037B724FF00003FB604FF000033B744FF000037B6107F108030D
S32D000101501846FFF769FD0346002B0CBF00230123DBB2002B03D04FF00103FB6336E04FF069033B724FF0000364
S32D000101787B7297F84630002B05D04FF00003C4F23003FB6002E04FF44013FB604FF000033B744FF000037B61FE
S32D000101A007F108031846FFF73FFD0346002B0CBF00230123DBB2002B03D04FF00103FB630CE0BB69002B05DBD0
S32D000101C83B6C632B02D84FF0010301E04FF00003002BA0D1FB6B002B40F01D833B6C632B04D94FF0000387F8C3
S32D000101F0463014E04FF0010387F8473097F84630002B0CD04FF0000387F84630BB6903F08043002B03D04FF0E3
S32D00010218010387F8463097F82A30002B03D07B6B4FF007021A6097F82930002B03D07B6B4FF008021A6097F811
S32D000102402B30002B03D07B6B4FF004021A6097F84730002B0BD07B6B4FF002021A6097F84630002B03D07B6BF9
S32D000102684FF003021A6097F82B30002B0FD097F84730002B0BD07B6B4FF005021A6097F84630002B03D07B6B1A
S32D000102904FF006021A604FF45043C4F204034FF000021A604FF45043C4F204034FF000025A604FF45043C4F216
S32D000102B804034FF000029A604FF45043C4F204034FF00002DA604FF45043C4F204034FF000021A614FF45043A2
S32D000102E0C4F204034FF000025A61FB6A9A68FB6A5B6810461946FFF7E1FA4FF45043C4F2040340F243421A605D
S32D000103084FF45043C4F2040340F243425A604FF45043C4F204034FF488629A604FF45043C4F2040340F24342BE
S32D00010330DA604FF45043C4F2040340F243421A614FF45043C4F2040340F243425A614FF4E043C4F204034FF434
S32D00010358E042C4F2040202F5815202F11002126842F4003203F5815303F110031A6055E2B86BFFF755FC38645D
S32D000103803B6C002B00F04D824FF00203FB6348E2BB6B002B03D14FF00C03FB6342E24FF48053C4F20B03DB6ADD
S32D000103A803F47F434FEA13234FEA43033B644FF48053C4F20B03DB6A03F0F0034FEA131303F101023B6C02FBE1
S32D000103D003F33B64FB6A9A683B6CB2FBF3F2BB6B1A601FE2BB6B002B03D14FF00C03FB6318E2BB6B1B68002B89
S32D000103F803D14FF00C03FB6310E2FFF7E1FB0346002B14BF00230123DBB2002B70D04FF45043C4F204034FF03A
S32D0001042000021A604FF45043C4F204034FF000025A604FF45043C4F204034FF000029A604FF45043C4F2040342
S32D000104484FF00002DA604FF45043C4F204034FF000021A614FF45043C4F204034FF000025A61FB6A9A68BB6B9F
S32D000104701B6810461946FFF721FA4FF45043C4F2040340F243421A604FF45043C4F2040340F243425A604FF409
S32D000104985043C4F204034FF488629A604FF45043C4F2040340F24342DA604FF45043C4F2040340F243421A6175
S32D000104C04FF45043C4F2040340F243425A614FF4E043C4F204034FF4E042C4F2040202F5815202F1100212687B
S32D000104E842F4003203F5815303F110031A6095E140F60A23FB6391E1BB6B002B03D14FF00C03FB638AE14FF408
S32D000105108053C4F20B035B684FEAC3434FEAD343BA6B13607EE1BB6B002B03D14FF00C03FB6377E1FFF748FB7B
S32D000105380346002B14BF00230123DBB2002B29D0BB6B1A6840F6FF739A4203D94FF00C03FB6363E14FF4805347
S32D00010560C4F20B034FF48052C4F20B02526822F4FF5222F01F025A604FF48053C4F20B034FF48052C4F20B0210
S32D000105885168BA6B12684FEAC2424FEAD2420A435A6043E140F60A23FB633FE1BB6B002B03D14FF00C03FB6385
S32D000105B038E14FF48053C4F20B039B6A03F006034FEA53033B643B6C002B04D1BB6B4FF000021A6026E13B6CC4
S32D000105D8012B04D1BB6B4FF001021A601EE13B6C102B04D1BB6B4FF002021A6016E14FF00503FB6312E1BB6BC3
S32D00010600002B03D14FF00C03FB630BE1FFF7DCFA0346002B14BF00230123DBB2002B56D0BB6B1B68002B16D141
S32D000106284FF48053C4F20B034FF48052C4F20B02926A22F006029A624FF48053C4F20B034FF48052C4F20B022D
S32D00010650926A9A62E6E0BB6B1B68012B18D14FF48053C4F20B034FF48052C4F20B02926A22F006029A624FF4F8
S32D000106788053C4F20B034FF48052C4F20B02926A42F002029A62C9E0BB6B1B68022B16D14FF48053C4F20B0376
S32D000106A04FF48052C4F20B02926A22F006029A624FF48053C4F20B034FF48052C4F20B02926A9A62AEE04FF0CA
S32D000106C80503FB63AAE040F60A23FB63A6E0BB6B002B03D14FF00C03FB639FE04FF48053C4F20B034FF480528D
S32D000106F0C4F20B02D26A42F00062DA624FF48053C4F20B03DB6A03F00063002B0CBF00230123DBB2002BF1D1E0
S32D000107184FF48053C4F20B031B6B03F08003002B0CBF00230123DBB2002B0FD04FF48053C4F20B034FF4805219
S32D00010740C4F20B02126B42F080021A637B6B4FF000021A604FF48053C4F20B035B6A03F48033002B0CBF002316
S32D000107680123DBB2002B08D07B6B1B68002B08D17B6B4FF001021A6003E07B6B4FF000021A607B6B1A68BB6B8D
S32D000107901A6047E0BB6B4FF01C021A60BB6B03F104034FF004021A60BB6B03F108034FF41E721A6036E04FF0F5
S32D000107B80200FFF719FA4FF48053C4F20B031B6B03F4E003002B0CBF00230123DBB2002B0ED04FF48053C4F22E
S32D000107E00B034FF48052C4F20B02126B42F4E0021A634FF00403FB634FF48053C4F20B034FF48052C4F20B029C
S32D00010808126B42F032021A6308E040F60923FB6304E000BF02E000BF00E000BFFB6B184607F14807BD4680BD8B
S32D0001083080B489B000AF786039607B687B6141F29413C1F6FF733B613B69002B02D14FF0000380E03B691B6843
S32D00010858022B0BD03B691B68032B07D03B691B68072B03D03B691B68082B0DD14FF48053C4F20B035B6A03F047
S32D000108800403002B0CBF00230123DBB2002BF1D13B68FB6155E0FB69B3F5007F28BF4FF40073FB60FB6803F17D
S32D000108A803034FEA9303BB613BE04FF48053C4F20B031B6B03F4E003002B0CBF00230123DBB2002B10D04FF4C3
S32D000108D08053C4F20B034FF48052C4F20B02126B42F4E00242F020021A634FF0000332E04FF48053C4F20B03F6
S32D000108F85B6A03F40063002B14BF00230123DBB2002BF1D14FF48053C4F20B031A6A7B691A607B6903F1040358
S32D000109207B61BB6903F1FF33BB61BB69002B0CBF00230123DBB2002BBBD1FA69FB68D31AFB61FB69002B0CBF58
S32D0001094800230123DBB2002BA1D14FF00103184607F12407BD4680BC704700BF80B58EB000AFB9607A60024639
S32D00010970FA73BB7341F28013C1F6FF737B63FB7B002B02D1BB7B002B02D14FF0040385E040F20043C1F6FF73FF
S32D000109981B78DBB203F00103002B0CBF00230123DBB2002B02D04FF0030373E0BB68002B02D14FF000036DE00A
S32D000109C07B6B1B7B002B03D17B684FEA43237B60BB7B012B2CD14FF011033B754FF000037B757B68BB614FF05E
S32D000109E801033B77BB7B3B6207F1140341F202301946FFF763FA0346002B14BF00230123DBB2002B3ED0B868BD
S32D00010A104FF40071FFF70CFF0346002B0CBF00230123DBB2002B31D04FF00003BB732DE04FF012033B754FF003
S32D00010A3800037B757B68BB614FF001033B77BB7B3B6207F1140341F202301946FFF736FA0346002B14BF002372
S32D00010A600123DBB2002B11D0BB7B4FEA4323B8681946FFF7DDFE0346002B0CBF00230123DBB2002B02D04FF036
S32D00010A880003BB73BB7B002B02D04FF0010301E04FF00003184607F13807BD4680BD00BF80B487B000AF7860EF
S32D00010AB039607B68FB603B687B6155E07B69B3F5007F28BF4FF400733B617A693B69D31A7B613B6903F103035A
S32D00010AD84FEA93033B613BE04FF48053C4F20B031B6B03F4E003002B0CBF00230123DBB2002B10D04FF4805344
S32D00010B00C4F20B034FF48052C4F20B02126B42F4E00242F010021A634FF0FF332EE04FF48053C4F20B035B6AB6
S32D00010B2803F48063002B14BF00230123DBB2002BF1D14FF48053C4F20B03FA6812681A62FB6803F10403FB601A
S32D00010B503B6903F1FF333B613B69002B0CBF00230123DBB2002BBBD17B69002B0CBF00230123DBB2002BA1D1A0
S32D00010B784FF00103184607F11C07BD4680BC704780B58EB000AFB9607A600246FA73BB7341F28013C1F6FF73B5
S32D00010BA07B63FB7B002B02D1BB7B002B02D14FF00403CEE040F20043C1F6FF731B78DBB203F00103002B0CBF01
S32D00010BC800230123DBB2002B02D04FF00303BCE040F20043C1F6FF731B78DBB203F00403002B0CBF0023012357
S32D00010BF0DBB2002B02D04FF00203AAE0BB68002B02D14FF00003A4E07B6B1B7B002B03D17B684FEA43237B60BF
S32D00010C18BB7B012B2CD14FF018033B754FF000037B757B68BB614FF000033B77BB7B3B6207F1140341F20230D8
S32D00010C401946FFF73FF90346002B14BF00230123DBB2002B3ED0B8684FF40071FFF724FF0346002B0CBF002355
S32D00010C680123DBB2002B31D04FF00003BB732DE04FF019033B754FF000037B757B68BB614FF000033B77BB7B9D
S32D00010C903B6207F1140341F202301946FFF712F90346002B14BF00230123DBB2002B11D0BB7B4FEA4323B868A8
S32D00010CB81946FFF7F5FE0346002B0CBF00230123DBB2002B02D04FF00003BB734FF00D033B754FF000037B7514
S32D00010CE07B6B1B69BB614FF000033B774FF000033B6207F1140341F202301946FFF7E2F80346002B0CBF002387
S32D00010D080123DBB2002B02D04FF001031DE07A6A48F20803CFF6D9731340002B02D04FF0010312E07B6A03F433
S32D00010D30F853B3F5106F0CBF00230123DBB2002BC8D1BB7B002B02D04FF0010301E04FF00003184607F1380791
S32D00010D58BD4680BD80B58CB000AF0B463A600246FA71BB7141F28013C1F6FF73BB62FB79002B02D04FF004037F
S32D00010D807EE04FF0010387F82F3040F20043C1F6FF731B78DBB203F00103002B0CBF00230123DBB2002B02D049
S32D00010DA84FF0030368E0BB79032B5FD801A252F823F000BFCD0D0100D70D0100E90D0100FB0D01004FF0000335
S32D00010DD087F82F3052E0BB6A9A683B681A604FF0000387F82F3049E03B684FF400721A804FF0000387F82F3045
S32D00010DF840E04FF009033B724FF000037B72BB6A1B69FB604FF000033B744FF000037B6107F1080341F202300A
S32D00010E201946FFF74FF80346002B0CBF00230123DBB2002B02D04FF0010321E07B6A03F44003002B11D13B6AE2
S32D00010E484FEA934303F07F0303F101027B6A4FEA132303F0030303F1FF3302FA03F23B681A604FF0000387F8BE
S32D00010E702F3003E04FF0040387F82F3097F82F30184607F13007BD4680BD00BF80B483B000AF0346FB71FB7934
S32D00010E98002B02D04FF0010305E040F20043C1F6FF731B78DBB2184607F10C07BD4680BC704700BF80B483B0C3
S32D00010EC000AF78604FF4E043C4F204034FF4E042C4F2040202F5815202F11802126842F0010203F5815303F1F2
S32D00010EE818031A604FF00003C4F204037A689A604FF00003C4F204034FF005025A604FF00003C4F204034FF02E
S32D00010F100002C4F20402126842F001021A6000BF4FF00003C4F204031B6803F08003002B14BF00230123DBB242
S32D00010F38002BF1D14FF00003C4F204034FF00002C4F20402126822F001021A6000BF07F10C07BD4680BC7047D8
S32D00010F6080B582B000AF786039607B68012B0AD13A684FF6FF739A4205D141F2A030C1F6FF7000F00FF807F1CE
S32D00010F880807BD4680BD00BF80B500AF4FF001004FF6FF71FFF7E0FF80BD00BF80B483B000AF78607B684FF072
S32D00010FB000021A707B68184607F10C07BD4680BC704700BF80B582B000AF78607B681B7883F00103DBB2002BF2
S32D00010FD836D04FF4E043C4F2040303F5815303F108034FF400621A604FF45043C4F204034FF440721A624FF490
S32D000110005043C4F204034FF440725A6241F2A433C1F6FF731B684FEAD372D3184FEA63034FF43040C4F20E008B
S32D0001102819464FF46142FEF787F84FF0640000F0ABF87B684FF001021A704FF0010301E04FF00003184607F13F
S32D000110500807BD4680BD00BF80B582B000AF7860F970BA707B704FF43040C4F20E004FF07F01FEF785F94FF40B
S32D000110783040C4F20E004FF00801FEF77DF9FB784FF43040C4F20E001946FEF775F9BB784FF43040C4F20E000C
S32D000110A01946FEF76DF97B784FF43040C4F20E001946FEF765F94FF43040C4F20E004FF0FF01FEF75DF907F152
S32D000110C80807BD4680BD00BF80B487B000AFF860B9607A60FA6844F6D353C1F26203A3FB02134FEA9312BB68F8
S32D000110F0D3187B61FA6844F6D353C1F26203A3FB02134FEA93134FF47A7101FB03F3D31AFB60FB684FEAC332A5
S32D0001111844F6D353C1F26203A3FB02134FEA93127B68D3183B613B694FEAD3337A69D3187B613B694FEA434345
S32D000111404FEA53433B614FF45043C4F203031A687B699A420FD34FF45043C4F203031A687B699A420AD14FF46D
S32D000111685043C4F203035A683B699A4202D24FF0010301E04FF00003002BE0D107F11C07BD4680BC704700BFE1
S32D0001119080B584B000AF78604FF45043C4F203031B68FB604FF45043C4F203035B68BB607B681846F968BA689C
S32D000111B8FFF78AFF07F11007BD4680BD80B584B000AFC7E900014FF45043C4F203031B68FB604FF45043C4F275
S32D000111E003035B68BB60D7E900014FF000024FF48043C4F28F03FBF7C3FA02460B4610461946FBF77FFD0346F8
S32D000112081846F968BA68FFF75FFF07F11007BD4680BD00BF80B584B000AF4FF45043C4F203031B68FB604FF4A9
S32D000112305043C4F203035B68BB60F868FBF72AFA02460B46C7E90023B868FBF723FA02460B46104619464FF0C4
S32D0001125800024FF00003C4F2E003FBF7B7FB02460B46D7E90001FBF7D5F802460B46C7E90023D7E90023104628
S32D00011280194607F11007BD4680BD00BF80B582B000AF78600B46FB70FB787868194600F007F87B68184607F14E
S32D000112A80807BD4680BD00BF80B483B000AF78600B46FB707B68FA781A707B681B781A4646F23813C0F2010371
S32D000112D09B5C042B00F2F48001A252F823F000BFF512010051130100AD13010009140100651401004FF4104348
S32D000112F8C4F204037A681278114646F27C12C0F2010252F8212040F2031143F822104FF47043C4F20F034FF48D
S32D000113207042C4F20F0251697A681278104646F27C12C0F2010252F8202002F01F024FF0010000FA02F26FEA0A
S32D0001134802020A405A61B7E04FF42043C4F204037A681278114646F27C12C0F2010252F8212040F2031143F829
S32D0001137022104FF24003C4F20F034FF24002C4F20F0251697A681278104646F27C12C0F2010252F8202002F013
S32D000113981F024FF0010000FA02F26FEA02020A405A6189E04FF43043C4F204037A681278114646F27C12C0F25E
S32D000113C0010252F8212040F2031143F822104FF28003C4F20F034FF28002C4F20F0251697A681278104646F2F3
S32D000113E87C12C0F2010252F8202002F01F024FF0010000FA02F26FEA02020A405A615BE04FF44043C4F20403A8
S32D000114107A681278114646F27C12C0F2010252F8212040F2031143F822104FF2C003C4F20F034FF2C002C4F2AC
S32D000114380F0251697A681278104646F27C12C0F2010252F8202002F01F024FF0010000FA02F26FEA02020A400B
S32D000114605A612DE04FF45043C4F204037A681278114646F27C12C0F2010252F8212040F2031143F822104FF443
S32D000114887143C4F20F034FF47142C4F20F0251697A681278104646F27C12C0F2010252F8202002F01F024FF029
S32D000114B0010000FA02F26FEA02020A405A6100BF07F10C07BD4680BC704700BF80B485B000AF78604FF000030B
S32D000114D8FB607B681B781A4646F23813C0F201039B5C042B7FD801A252F823F009150100371501006515010017
S32D0001150093150100C11501004FF47043C4F20F031A697B681B78194646F27C13C0F2010353F8213003F01F03F8
S32D000115284FF0010101FA03F31340FB605BE04FF24003C4F20F031A697B681B78194646F27C13C0F2010353F80D
S32D00011550213003F01F034FF0010101FA03F31340FB6044E04FF28003C4F20F031A697B681B78194646F27C1357
S32D00011578C0F2010353F8213003F01F034FF0010101FA03F31340FB602DE04FF2C003C4F20F031A697B681B782B
S32D000115A0194646F27C13C0F2010353F8213003F01F034FF0010101FA03F31340FB6016E04FF47143C4F20F03FA
S32D000115C81A697B681B78194646F27C13C0F2010353F8213003F01F034FF0010101FA03F31340FB6000BFFB686C
S32D000115F0002B0CBF00230123DBB2184607F11407BD4680BC704700BF80B584B000AF78600B46FB704FF00B03E3
S32D00011618FB73FA78FB7B786811461A4600F0E6F87B68184607F11007BD4680BD80B485B000AF78607B68A3F1F1
S32D000116401003002B01DA03F11F034FEA6313FB60FB68012B46D0022B00F08580002B40F0C3804FF46142CEF237
S32D0001166800024FF46143CEF20003D3F880117B68A3F110004FF01F03C8F200030340002B05DA03F1FF3363F0E0
S32D000116901F0303F101034FF0010000FA03F30B43C2F880314FF46142CEF200024FF46143CEF2000319687B6872
S32D000116B8A3F110004FF01F03C8F200030340002B05DA03F1FF3363F01F0303F101034FF0010000FA03F30B43E3
S32D000116E0136081E04FF46142CEF200024FF46143CEF20003D3F884117B68A3F110004FF01F03C8F2000303406D
S32D00011708002B05DA03F1FF3363F01F0303F101034FF0010000FA03F30B43C2F884314FF46142CEF200024FF43D
S32D000117306143CEF2000359687B68A3F110004FF01F03C8F200030340002B05DA03F1FF3363F01F0303F10103DD
S32D000117584FF0010000FA03F30B43536040E04FF46142CEF200024FF46143CEF20003D3F888117B68A3F11000D4
S32D000117804FF01F03C8F200030340002B05DA03F1FF3363F01F0303F101034FF0010000FA03F30B43C2F888314B
S32D000117A84FF46142CEF200024FF46143CEF2000399687B68A3F110004FF01F03C8F200030340002B05DA03F1D9
S32D000117D0FF3363F01F0303F101034FF0010000FA03F30B43936000BF07F11407BD4680BC704700BF80B584B0EA
S32D000117F800AF786013460A46FA70BB707B68FA781A70BB78FB737B681B781A4646F23813C0F201039B5C042B48
S32D0001182000F2F28001A252F823F000BF41180100B318010025190100091A0100971901004FF41043C4F20403E9
S32D000118487A681278114646F27C12C0F2010252F82110FA7B4FEA024202F4702242F4897242F0010243F821205C
S32D000118704FF47043C4F20F034FF47042C4F20F0251697A681278104646F27C12C0F2010252F8202002F01F023B
S32D000118984FF0010000FA02F26FEA02020A405A614FF06700FFF7C2FEAAE04FF42043C4F204037A681278114685
S32D000118C046F27C12C0F2010252F82110FA7B4FEA024202F4702242F4897242F0010243F821204FF24003C4F26D
S32D000118E80F034FF24002C4F20F0251697A681278104646F27C12C0F2010252F8202002F01F024FF0010000FAA7
S32D0001191002F26FEA02020A405A614FF06800FFF789FE71E04FF43043C4F204037A681278114646F27C12C0F22F
S32D00011938010252F82110FA7B4FEA024202F4702242F4897242F0010243F821204FF28003C4F20F034FF2800257
S32D00011960C4F20F0251697A681278104646F27C12C0F2010252F8202002F01F024FF0010000FA02F26FEA020272
S32D000119880A405A614FF06900FFF750FE38E04FF45043C4F204037A681278114646F27C12C0F2010252F82110DB
S32D000119B0FA7B4FEA024202F4702242F4897242F0010243F821204FF47143C4F20F034FF47142C4F20F02516976
S32D000119D87A681278104646F27C12C0F2010252F8202002F01F024FF0010000FA02F26FEA02020A405A614FF037
S32D00011A006B00FFF717FE00BF07F11007BD4680BDB0B48BB000AF45F68073C0F2010307F104041D460FCD0FC4EF
S32D00011A2895E80F0084E80F004FF000037B6246E04FF42043C4F20403D3F8A0207B6A4FEA830307F12800C318B6
S32D00011A5053F8243C4FF0010101FA03F31340002B0CBF00230123DBB2002B28D041F2D033C1F6FF737A6A53F8BC
S32D00011A78223003F1010141F2D033C1F6FF737A6A43F822104FF42043C4F204034FF42042C4F20402D2F8A01009
S32D00011AA07A6A4FEA820207F12800821852F8242C4FF0010000FA02F20A40C3F8A0207B6A03F101037B627B6A90
S32D00011AC8072BCCBF00230123DBB2002BB0D107F12C07BD46B0BC7047B0B489B000AF45F6A073C0F2010307F119
S32D00011AF004041D460FCD0FC495E8030084E803004FF00003FB6147E04FF43043C4F20403D3F8A020FB694FEA5E
S32D00011B18830307F12000C31853F81C3C4FF0010101FA03F31340002B0CBF00230123DBB2002B29D0FB6903F1B7
S32D00011B40080241F2D033C1F6FF7353F8223003F1010141F2D033C1F6FF7343F822104FF43043C4F204034FF4F8
S32D00011B683042C4F20402D2F8A010FA694FEA820207F12000821852F81C2C4FF0010000FA02F20A40C3F8A0204F
S32D00011B90FB6903F10103FB61FB69052BCCBF00230123DBB2002BAFD107F12407BD46B0BC704700BFB0B48DB027
S32D00011BB800AF45F6B873C0F201033C461D460FCD0FC40FCD0FC495E8070084E807004FF00003FB6247E04FF4F0
S32D00011BE01043C4F20403D3F8A020FB6A4FEA830307F13000C31853F8303C4FF0010101FA03F31340002B0CBFE2
S32D00011C0800230123DBB2002B29D0FB6A03F10E0241F2D033C1F6FF7353F8223003F1010141F2D033C1F6FF73FB
S32D00011C3043F822104FF41043C4F204034FF41042C4F20402D2F8A010FA6A4FEA820207F13000821852F8302C71
S32D00011C584FF0010000FA02F20A40C3F8A020FB6A03F10103FB62FB6A0A2BCCBF00230123DBB2002BAFD107F114
S32D00011C803407BD46B0BC7047B0B487B000AF45F6E473C0F201033C461D460FCD0FC42B6823604FF000037B617A
S32D00011CA847E04FF45043C4F20403D3F8A0207B694FEA830307F11800C31853F8183C4FF0010101FA03F3134016
S32D00011CD0002B0CBF00230123DBB2002B29D07B6903F1190241F2D033C1F6FF7353F8223003F1010141F2D033DC
S32D00011CF8C1F6FF7343F822104FF45043C4F204034FF45042C4F20402D2F8A0107A694FEA820207F1180082183F
S32D00011D2052F8182C4FF0010000FA02F20A40C3F8A0207B6903F101037B617B69042BCCBF00230123DBB2002BBE
S32D00011D48AFD107F11C07BD46B0BC704780B483B000AF78607B681B781A4641F2D033C1F6FF7353F8223018468D
S32D00011D7007F10C07BD4680BC704700BF80B483B000AF78607B681B781A4641F2D033C1F6FF734FF0000143F8E6
S32D00011D98221007F10C07BD4680BC704780B483B000AF78600B46FB707B68FA781A707B68184607F10C07BD4611
S32D00011DC080BC70470000000080B586B000AF78607B681B781A4646F2FC13C0F2010353F822303B617B681B788D
S32D00011DE81A4646F25813C0F201039B5CFB733B69DBB203F01F03DAB241F2B033C1F6FF731A723B69DBB203F0ED
S32D00011E101F03DAB241F2B033C1F6FF735A724FF46143CEF200034FF01002C3F88820FB7B002B1ED14FF4304049
S32D00011E38C4F2030041F2B031C1F6FF7100F0FAFA4FF43043C4F203031B6803F08003002B14BF00230123DBB266
S32D00011E60002BF1D14FF43043C4F203031B697B611DE04FF43040C4F20B0041F2B031C1F6FF7100F0DBFA4FF4E0
S32D00011E883043C4F20B031B6803F08003002B14BF00230123DBB2002BF1D14FF43043C4F20B031B697B614FF41F
S32D00011EB06143CEF200034FF46142CEF20002D2F8882142F01002C3F888214FF46143CEF200034FF46142CEF289
S32D00011ED80002926842F010029A607B694FEA03434FEA13431846FAF7D1FB02460B46104619460FA3D3E90023B5
S32D00011F00FAF73EFC02460B46104619460CA3D3E90023FAF75FFD02460B4610461946FAF711FF0346BB60BB6888
S32D00011F28184607F11807BD4680BD00BFAFF30080A4703D0AD7A30A4000000000E0FFEF4080B586B000AF7860D5
S32D00011F507B681B781A4646F2FC13C0F2010353F822303B617B681B781A4646F25813C0F201039B5CFB733B691E
S32D00011F78DBB203F01F03DAB241F2C033C1F6FF731A723B69DBB203F01F03DAB241F2C033C1F6FF735A72FB7BCE
S32D00011FA0002B1ED14FF43040C4F2030041F2C031C1F6FF7100F042FA4FF43043C4F203031B6803F08003002B7F
S32D00011FC814BF00230123DBB2002BF1D14FF43043C4F203031B697B611DE04FF43040C4F20B0041F2C031C1F638
S32D00011FF0FF7100F023FA4FF43043C4F20B031B6803F08003002B14BF00230123DBB2002BF1D14FF43043C4F2A7
S32D000120180B031B697B617B69184607F11807BD4680BD00BF98B500AF41F2B033C1F6FF734FF05C021A7041F23E
S32D00012040B033C1F6FF734FF010025A7041F2B033C1F6FF7341F234225A8041F2B033C1F6FF7345F278629A803E
S32D0001206841F2B033C1F6FF734FF010029A7141F2B033C1F6FF734FF00702DA7141F2B033C1F6FF734FF4C02278
S32D00012090DA6041F2B033C1F6FF734FF01F021A7241F2B033C1F6FF734FF01F025A724FF43040C4F2030041F2B2
S32D000120B8B031C1F6FF7100F0BDF94FF43040C4F20B0041F2B031C1F6FF7100F0B3F94FF43040C4F20B0000F09C
S32D000120E011F94FF43040C4F2030000F00BF94FF43040C4F20B0041F2B031C1F6FF7100F09DF94FF43040C4F2C9
S32D00012108030041F2B031C1F6FF7100F093F941F2C032C1F6FF7241F2B033C1F6FF7314460FCB84E80F0041F280
S32D00012130C033C1F6FF734FF05C021A7041F2C033C1F6FF734FF00402DA7198BD80B500AF41F25443C1F6FF7332
S32D000121581B6803F1010241F25443C1F6FF731A6000F04CF84FF4E043C4F203034FF00102C3F80C2100BF80BDF5
S32D0001218080B500AF4FF4E043C4F203034FF001021A6048F2A060C0F2010000F023F84FF4E043C4F203034FF015
S32D000121A80302C3F808214FF46143CEF200034FF46142CEF20002D2F8882142F01002C3F888214FF46143CEF20B
S32D000121D000034FF46142CEF20002926842F010029A6080BD80B483B000AF78604FF4E043C4F203037A68C3F813
S32D000121F8002107F10C07BD4680BC704780B584B000AF41F25043C1F6FF731B68FB6029E0FB685B78FB71FB68A3
S32D000122209B68184600F02EF80346BB71BB79002B19D0FB685B68012B15DDFB689B681B69BB6008E0BB685B6844
S32D0001224803F10102BB685A60BB681B69BB60BB68002B0CBF00230123DBB2002BEED1FB68DB68FB60FB68002B6B
S32D000122700CBF00230123DBB2002BCDD107F11007BD4680BD80B584B000AF78607868FFF75BFEF8607B689B692A
S32D000122985B78FB72FB7A002B12D17B68DA68FB689A420DDA7B689B694FF001025A707B685B6803F101027B6896
S32D000122C05A604FF0010317E0FB7A012B12D17B689A68FB689A420DDD7B689B694FF000025A707B685B6803F1DD
S32D000122E801027B685A604FF0010301E04FF00003184607F11007BD4680BD00BF80B485B000AF78607B681B6AFD
S32D0001231023F040027B681A627B685B6A23F00B027B685A627B685B6A43F007027B685A627B685B6A43F08002A3
S32D000123387B685A627B681B6803F08003002B14BF00230123DBB2002BF4D17B685B6A03F04003002B0CBF002342
S32D000123600123DBB2002B02D04FF001035FE04FF00003FB817B68DB6CFB817B689B6CFA89D318FB817B685B6C3C
S32D00012388FA89D318FB817B681B6CFA89D318FB817B68DB6BFA89D318FB817B689B6BFA89D318FB81FB894FEA45
S32D000123B05303FB81FB896FEA43436FEA5343FB81FA897B68DA624FF00003FB817B68DB6EFB817B689B6EFA89E7
S32D000123D8D318FB817B685B6EFA89D318FB817B681B6EFA89D318FB817B68DB6DFA89D318FB817B689B6DFA8900
S32D00012400D318FB81FB894FEA5303FB81FB896FEA43436FEA5343FB81FA897B681A637B685B6A23F080027B68E6
S32D000124285A624FF00003184607F11407BD4680BC704700BF80B483B000AF786039603B681B781A467B689A6067
S32D000124503B685B781A467B68DA603B685B881A467B689A613B689B881A467B68DA613B689B791A467B681A62EC
S32D000124783B68DB791A467B685A623B68DA687B681A653B681B7A1A467B681A603B685B7A1A467B685A6007F196
S32D000124A00C07BD4680BC704780B483B000AF78607B68184607F10C07BD4680BC704700BF80B582B000AF786027
S32D000124C839607B68012B0AD13A684FF6FF739A4205D141F25840C1F6FF70FFF7E1FF07F10807BD4680BD00BF8A
S32D000124F080B500AF4FF001004FF6FF71FFF7E0FF80BD00BF80B483B000AF78600B46FB707B68FA781A707B68A7
S32D000125184FF4FA725A807B6840F6C4129A807B684FF00002CBF680729A607B68184607F10C07BD4680BC7047EF
S32D0001254080B483B000AF786039603A6840F2F3139A4204DD3A6840F6C4139A4204DD7B684FF4FA725A8003E093
S32D000125683B689AB27B685A8007F10C07BD4680BC704700BF80B483B000AF786039603A6840F2F3139A4204DDBA
S32D000125903A6840F6C4139A4204DD7B6840F6C4129A8003E03B689AB27B689A8007F10C07BD4680BC704700BF18
S32D000125B8F0B585B000AF7860396038684FF00001FAF7B8FE0346002B02D04FF000033B6038684FF00001C4F2BA
S32D000125E03431FAF7C9FE0346002B04D04FF00003C4F234333B607B689B6818463968FAF793FE0346002B67D15A
S32D000126087B683A689A607B685E887B689B881A467B685B88D31A1846FAF748F802460B46104619464FF0000224
S32D000126304FF40043C4F26603FAF7CCF902460B4614461D463868FAF747F802460B4620462946FAF795F80246C6
S32D000126580B4610461946FAF751FB03469BB2F318FB81FB897B73FB894FEA23233B734FF43040C4F20E004FF01A
S32D000126807F01FCF77DFE4FF43040C4F20E004FF00501FCF775FE7B681B784FF43040C4F20E001946FCF76CFE72
S32D000126A83B7B4FF43040C4F20E001946FCF764FE7B7B4FF43040C4F20E001946FCF75CFE4FF43040C4F20E0092
S32D000126D04FF0FF01FCF754FE07F11407BD46F0BD80B582B000AF78604FF43043C4F204034FF48072DA604FF481
S32D000126F82043C4F204034FF480729A644FF42043C4F204034FF480721A644FF42043C4F204034FF480725A64F4
S32D000127204FF42043C4F204034FF48072DA604FF28003C4F20F034FF28002C4F20F02526942F008025A614FF2AF
S32D000127484003C4F20F034FF24002C4F20F02526942F480225A614FF24003C4F20F034FF24002C4F20F0252696E
S32D0001277042F480325A614FF24003C4F20F034FF24002C4F20F02526942F400325A614FF24003C4F20F034FF296
S32D000127984002C4F20F02126842F008021A604FF24003C4F20F034FF24002C4F20F02526942F008025A614FF250
S32D000127C08003C4F20F034FF28002C4F20F02126842F008021A604FF42043C4F204034FF480725A624FF42043EB
S32D000127E8C4F204034FF480721A624FF43043C4F204034FF480721A614FF43043C4F204034FF480725A614FF48B
S32D000128103043C4F204034FF480729A614FF43043C4F204034FF48072DA614FF43043C4F204034FF480721A6331
S32D000128384FF43043C4F204034FF480725A634FF43043C4F204034FF480729A634FF43043C4F204034FF48072BF
S32D00012860DA634FF43043C4F204034FF480721A644FF43043C4F204034FF480725A644FF43043C4F204034FF4CA
S32D0001288880729A644FF43043C4F204034FF48072DA644FF44043C4F204034FF480721A604FF44043C4F2040396
S32D000128B04FF480729A604FF44043C4F204034FF48072DA604FF44043C4F204034FF480721A614FF24003C4F26B
S32D000128D80F034FF24002C4F20F02526942F440725A614FF28003C4F20F034FF28002C4F20F02526942F47F226F
S32D0001290042F0F0025A614FF2C003C4F20F034FF2C002C4F20F02526942F01D025A6178684FF0E20100F09EFDDF
S32D0001292878684FF01D0100F0CFFE78684FF0020100F0CAFE78684FF0040100F0C5FE78684FF0E00100F08AFD5E
S32D0001295078684FF0010100F0BBFE4FF06400FEF717FC78684FF0E00100F07CFD78684FF0030100F0ADFE7868DC
S32D000129784FF0010100F072FD4FF00100FEF704FC78684FF0E60100F069FD78684FF0010100F09AFE78684FF037
S32D000129A0A00100F095FE78684FF0FF0100F090FE78684FF0B00100F055FD78684FF01C0100F086FE78684FF066
S32D000129C80F0100F081FE78684FF0010100F07CFE78684FF03F0100F077FE78684FF0000100F072FE78684FF073
S32D000129F0EF0100F06DFE78684FF0000100F068FE78684FF0B40100F02DFD78684FF0010100F05EFE78684FF07D
S32D00012A18990100F059FE78684FF0000100F054FE78684FF0450100F04FFE78684FF0020100F04AFE78684FF031
S32D00012A40000100F045FE78684FF0000100F040FE78684FF0000100F03BFE78684FF0B60100F000FD78684FF0BA
S32D00012A68010100F031FE78684FF0090100F02CFE78684FF0000100F027FE78684FF00E0100F022FE78684FF049
S32D00012A90020100F01DFE78684FF0000100F018FE78684FF0000100F013FE78684FF0BA0100F0D8FC78684FF005
S32D00012AB80F0100F009FE4FF06400FEF765FB78684FF03A0100F0CAFC78684FF0600100F0FBFD78684FF02A012E
S32D00012AE000F0C0FC78684FF0000100F0F1FD78684FF0000100F0ECFD78684FF0010100F0E7FD78684FF03F01D0
S32D00012B0800F0E2FD78684FF02B0100F0A7FC78684FF0000100F0D8FD78684FF0000100F0D3FD78684FF000010C
S32D00012B3000F0CEFD78684FF0EF0100F0C9FD78684FF0360100F08EFC78684FF0000100F0BFFD78684FF0F0014A
