S01200002E2E2F464548526F626F742E7331397E
S32D0000C00000000020D5E6000031EA000031EA000031EA000031EA000031EA0000000000000000000000000000B0
S32D0000C0280000000031EA000031EA00000000000031EA000031EA000031EA000031EA000031EA000031EA000012
S32D0000C05031EA000031EA000031EA000031EA000031EA000031EA000031EA000031EA000031EA000031EA0000B4
S32D0000C07831EA000031EA000031EA000031EA000031EA000031EA000031EA000031EA000031EA000031EA00008C
S32D0000C0A031EA000031EA000031EA000031EA000031EA000031EA000031EA000031EA000031EA000031EA000064
S32D0000C0C831EA000031EA000031EA000031EA000031EA000031EA000031EA000031EA000031EA000031EA00003C
S32D0000C0F031EA0000B95B010031EA000031EA000031EA000031EA000031EA000031EA000031EA000031EA00001A
S32D0000C11831EA000031EA000031EA000031EA000031EA000031EA000031EA000031EA000031EA000031EA0000EB
S32D0000C14031EA000031EA000031EA000031EA00007D33010031EA000031EA000031EA000031EA000031EA00002D
S32D0000C16831EA000031EA000031EA000031EA000031EA000031EA000031EA000031EA000031EA000031EA00009B
S32D0000C19031EA000031EA000031EA0000E52D0100412C0100112D010081EA0000B92E010031EA000031EA0000E7
S32D0000C1B831EA000031EA000031EA000031EA000031EA000031EA000031EA000031EA000031EA000031EA00004B
S32D0000C41081F0004102E000BF83F0004330B54FEA41044FEA430594EA050F08BF90EA020F1FBF54EA000C55EAC6
S32D0000C438020C7FEA645C7FEA655C00F0E2804FEA5454D4EB5555B8BF6D420CDD2C4480EA020281EA030382EA0F
S32D0000C460000083EA010180EA020281EA0303362D88BF30BD11F0004F4FEA01314FF4801C4CEA113102D0404263
S32D0000C48861EB410113F0004F4FEA03334CEA133302D0524263EB430394EA050F00F0A780A4F10104D5F1200E8A
S32D0000C4B00DDB02FA0EFC22FA05F2801841F1000103FA0EF2801843FA05F359410EE0A5F120050EF1200E012A2D
S32D0000C4D803FA0EFC28BF4CF0020C43FA05F3C01851EBE37101F0004507D54FF0000EDCF1000C7EEB00006EEB67
S32D0000C5000101B1F5801F1BD3B1F5001F0CD349085FEA30004FEA3C0C04F101044FEA445212F5800F80F09A8000
S32D0000C528BCF1004F08BF5FEA500C50F1000041EB045141EA050130BD5FEA4C0C404141EB010111F4801FA4F114
S32D0000C5500104E9D191F0000F04BF01460020B1FA81F308BF2033A3F10B03B3F120020CDA0C3208DD02F1140C87
S32D0000C578C2F10C0201FA0CF021FA02F10CE002F11402D8BFC2F1200C01FA02F120FA0CFCDCBF41EA0C019040B1
S32D0000C5A0E41AA2BF01EB0451294330BD6FEA04041F3C1CDA0C340EDC04F11404C4F1200220FA04F001FA02F3B6
S32D0000C5C840EA030021FA04F345EA030130BDC4F10C04C4F1200220FA02F001FA04F340EA0300294630BD21FAA8
S32D0000C5F004F0294630BD94F0000F83F4801306BF81F480110134013D4EE77FEA645C18BF7FEA655C29D094EA1C
S32D0000C618050F08BF90EA020F05D054EA000C04BF1946104630BD91EA030F1EBF0021002030BD5FEA545C05D1A3
S32D0000C6404000494128BF41F0004130BD14F580043CBF01F5801130BD01F0004545F0FE4141F470014FF0000031
S32D0000C66830BD7FEA645C1ABF194610467FEA655C1CBF0B46024650EA013406BF52EA033591EA030F41F40021D7
S32D0000C69030BD00BF90F0000F04BF0021704730B54FF4806404F132044FF000054FF0000150E700BF90F0000F66
S32D0000C6B804BF0021704730B54FF4806404F1320410F0004548BF40424FF000013EE700BF42004FEAE2014FEAF9
S32D0000C6E031014FEA02701FBF12F07F4393F07F4F81F06051704792F0000F14BF93F07F4F704730B54FF460741B
S32D0000C70801F0004521F0004120E700BF50EA010208BF704730B54FF000050AE050EA010208BF704730B511F046
S32D0000C730004502D5404261EB41014FF4806404F132045FEA915C3FF4DCAE4FF003025FEADC0C18BF03325FEAA0
S32D0000C758DC0C18BF033202EBDC02C2F1200300FA03FC20FA02F001FA03FE40EA0E0021FA02F11444C1E600BF19
S32D0000C78070B54FF0FF0C4CF4E06C1CEA11541DBF1CEA135594EA0C0F95EA0C0F00F0DEF82C4481EA030621EAF3
S32D0000C7A84C5123EA4C5350EA013518BF52EA033541F4801143F4801338D0A0FB02CE4FF00005E1FB02E506F05F
S32D0000C7D00042E0FB03E54FF00006E1FB03569CF0000F18BF4EF0010EA4F1FF04B6F5007F64F5407404D25FEA0F
S32D0000C7F84E0E6D4146EB060642EAC62141EA55514FEAC52040EA5E504FEACE2EB4F1FD0C88BFBCF5E06F1ED8D2
S32D0000C820BEF1004F08BF5FEA500E50F1000041EB045170BD06F0004646EA010140EA020081EA0301B4EB5C0487
S32D0000C848C2BFD4EB0C0541EA045170BD41F480114FF0000E013C00F3AB8014F1360FDEBF002001F0004170BDF0
S32D0000C870C4F10004203C35DA0C341BDC04F11404C4F1200500FA05F320FA04F001FA05F240EA020001F0004207
S32D0000C89821F0004110EBD37021FA04F642EB06015EEA430E08BF20EAD37070BDC4F10C04C4F1200500FA04F32F
S32D0000C8C020FA05F001FA04F240EA020001F0004110EBD37041F100015EEA430E08BF20EAD37070BDC4F12005C7
S32D0000C8E800FA05F24EEA020E20FA04F301FA05F243EA020321FA04F001F0004121FA04F220EA020000EBD37028
S32D0000C9105EEA430E08BF20EAD37070BD94F0000F0FD101F00046400041EB010111F4801F08BF013CF7D041EA6D
S32D0000C938060195F0000F18BF704703F00046520043EB030313F4801F08BF013DF7D043EA0603704794EA0C0FF1
S32D0000C9600CEA135518BF95EA0C0F0CD050EA410618BF52EA4306D1D181EA030101F000414FF0000070BD50EA38
S32D0000C988410606BF1046194652EA430619D094EA0C0F02D150EA013613D195EA0C0F05D152EA03361CBF10467B
S32D0000C9B019460AD181EA030101F0004141F0FE4141F470014FF0000070BD41F0FE4141F4780170BD70B54FF04D
S32D0000C9D8FF0C4CF4E06C1CEA11541DBF1CEA135594EA0C0F95EA0C0F00F0A7F8A4EB050481EA030E52EA03359B
S32D0000CA004FEA013100F088804FEA03334FF0805545EA131343EA12634FEA022245EA111545EA10654FEA002676
S32D0000CA280EF000419D4208BF964244F1FD0404F5407402D25B084FEA3202B61A65EB03055B084FEA32024FF461
S32D0000CA5080104FF4002CB6EB020E75EB030E22BFB61A754640EA0C005B084FEA3202B6EB020E75EB030E22BF22
S32D0000CA78B61A754640EA5C005B084FEA3202B6EB020E75EB030E22BFB61A754640EA9C005B084FEA3202B6EBEA
S32D0000CAA0020E75EB030E22BFB61A754640EADC0055EA060E18D04FEA051545EA16754FEA06164FEAC30343EAAC
S32D0000CAC852734FEAC2025FEA1C1CC0D111F4801F0BD141EA00014FF000004FF0004CB6E711F4801F04BF0143AE
S32D0000CAF00020B4F1FD0C88BFBCF5E06F3FF6AFAEB5EB030C04BFB6EB020C5FEA500C50F1000041EB045170BDBC
S32D0000CB180EF0004E4EEA113114EB5C04C2BFD4EB0C0541EA045170BD41F480114FF0000E013C90E645EA060EC3
S32D0000CB408DE60CEA135594EA0C0F08BF95EA0C0F3FF43BAF94EA0C0F0AD150EA01347FF434AF95EA0C0F7FF499
S32D0000CB6825AF104619462CE795EA0C0F06D152EA03353FF4FDAE1046194622E750EA410618BF52EA43067FF432
S32D0000CB90C5AE50EA41047FF40DAF52EA43057FF4EBAE12E74FF0FF3C06E000BF4FF0010C02E000BF4FF0010C75
S32D0000CBB84DF804CD4FEA410C7FEA6C5C4FEA430C18BF7FEA6C5C1BD001B050EA410C0CBF52EA430C91EA030FEC
S32D0000CBE002BF90EA020F0020704710F1000F91EA030F58BF994208BF90422CBFD8176FEAE37040F0010070476E
S32D0000CC084FEA410C7FEA6C5C02D150EA013C07D14FEA430C7FEA6C5CD6D152EA033CD3D05DF8040B704700BFCD
S32D0000CC308446104662468C461946634600E000BF01B5FFF7B7FF002848BF10F1000F01BD4DF808EDFFF7F4FF13
S32D0000CC580CBF012000205DF808FB00BF4DF808EDFFF7EAFF34BF012000205DF808FB00BF4DF808EDFFF7E0FF18
S32D0000CC8094BF012000205DF808FB00BF4DF808EDFFF7CEFF94BF012000205DF808FB00BF4DF808EDFFF7C4FF40
S32D0000CCA834BF012000205DF808FB00BF4FEA410212F5001215D211D56FF47873B3EB625212D94FEAC12343F0D6
S32D0000CCD0004343EA505311F0004F23FA02F018BF404270474FF00000704750EA013005D111F0004008BF6FF016
S32D0000CCF8004070474FF00000704700BF4A0011D212F5001211D20DD56FF47873B3EB62520ED44FEAC12343F085
S32D0000CD20004343EA505323FA02F070474FF00000704750EA013002D14FF0FF3070474FF0000070474FEA410241
S32D0000CD48B2F1E04324BFB3F5001CDCF1FE5C0DD901F0004C4FEAC0024CEA5070B2F1004F40EB830008BF20F09E
S32D0000CD700100704711F0804F21D113F13872BCBF01F00040704741F480114FEA5252C2F11802C2F1200C10FAB1
S32D0000CD980CF320FA02F018BF40F001004FEAC1234FEAD32303FA0CFC40EA0C0023FA02F34FEA4303CCE77FEA26
S32D0000CDC0625307D150EA01331EBF4FF0FE4040F44000704701F0004040F0FE4040F40000704700BF80F00040CC
S32D0000CDE802E000BF81F0004142001FBF5FEA410392EA030F7FEA226C7FEA236C6AD04FEA1262D2EB1363C1BF06
S32D0000CE10D218414048404140B8BF5B42192B88BF704710F0004F40F4000020F07F4018BF404211F0004F41F4FA
S32D0000CE38000121F07F4118BF494292EA030F3FD0A2F1010241FA03FC10EB0C00C3F1200301FA03F100F000432B
S32D0000CE6002D5494260EB4000B0F5000F13D3B0F1807F06D340084FEA310102F10102FE2A51D2B1F1004F40EB94
S32D0000CE88C25008BF20F0010040EA03007047490040EB000010F4000FA2F10102EDD1B0FA80FCACF1080CB2EB5F
S32D0000CEB00C0200FA0CF0AABF00EBC25052421843BCBFD0401843704792F0000F81F4000106BF80F400000132EB
S32D0000CED8013BB5E74FEA41037FEA226C18BF7FEA236C21D092EA030F04D092F0000F08BF0846704790EA010FD7
S32D0000CF001CBF0020704712F07F4F04D1400028BF40F00040704712F100723CBF00F50000704700F0004343F0DC
S32D0000CF28FE4040F4000070477FEA226216BF08467FEA23630146420206BF5FEA412390EA010F40F480007047C1
S32D0000CF504FF0000304E000BF10F0004348BF40425FEA000C08BF704743F0964301464FF000001CE050EA010264
S32D0000CF7808BF70474FF000030AE000BF50EA010208BF704711F0004302D5404261EB41015FEA010C02BF84465B
S32D0000CFA00146002043F0B64308BFA3F18053A3F50003BCFA8CF2083AA3EBC25310DB01FA02FC634400FA02FC6B
S32D0000CFC8C2F12002BCF1004F20FA02F243EB020008BF20F00100704702F1200201FA02FCC2F1200250EA4C0034
S32D0000CFF021FA02F243EB020008BF20EADC7070474FF0FF0C1CEAD0521EBF1CEAD15392EA0C0F93EA0C0F6FD019
S32D0000D0181A4480EA010C400218BF5FEA41211ED04FF0006343EA501043EA5111A0FB01310CF00040B1F5000FE7
S32D0000D0403EBF490041EAD3715B0040EA010062F17F02FD2A1DD8B3F1004F40EBC25008BF20F00100704790F058
S32D0000D068000F0CF0004C08BF49024CEA502040EA51207F3AC2BFD2F1FF0340EAC250704740F400004FF0000388
S32D0000D090013A5DDC12F1190FDCBF00F000407047C2F10002410021FA02F1C2F1200200FA02FC5FEA310040F1D5
S32D0000D0B8000053EA4C0308BF20EADC70704792F0000F00F0004C02BF400010F4000F013AF9D040EA0C0093F04C
S32D0000D0E0000F01F0004C02BF490011F4000F013BF9D041EA0C018FE70CEAD15392EA0C0F18BF93EA0C0F0AD00B
S32D0000D10830F0004C18BF31F0004CD8D180EA010000F00040704790F0000F17BF90F0004F084691F0000F91F0BB
S32D0000D130004F14D092EA0C0F01D142020FD193EA0C0F03D14B0218BF084608D180EA010000F0004040F0FE4051
S32D0000D15840F40000704740F0FE4040F4400070474FF0FF0C1CEAD0521EBF1CEAD15392EA0C0F93EA0C0F69D044
S32D0000D180A2EB030280EA010C49024FEA402037D04FF0805343EA111143EA10130CF000408B4238BF5B0042F14E
S32D0000D1A87D024FF4000C8B4224BF5B1A40EA0C00B3EB510F24BFA3EB510340EA5C00B3EB910F24BFA3EB9103A4
S32D0000D1D040EA9C00B3EBD10F24BFA3EBD10340EADC001B0118BF5FEA1C1CE0D1FD2A3FF650AF8B4240EBC25018
S32D0000D1F808BF20F0010070470CF0004C4CEA50207F32C2BFD2F1FF0340EAC250704740F400004FF00003013AF1
S32D0000D22037E792F0000F00F0004C02BF400010F4000F013AF9D040EA0C0093F0000F01F0004C02BF490011F4C9
S32D0000D248000F013BF9D041EA0C0195E70CEAD15392EA0C0F08D142027FF47DAF93EA0C0F7FF470AF084676E7AE
S32D0000D27093EA0C0F04D14B023FF44CAF08466EE730F0004C18BF31F0004CCAD130F000427FF45CAF31F0004376
S32D0000D2987FF43CAF5FE700BF4FF0FF3C06E000BF4FF0010C02E000BF4FF0010C4DF804CD4FEA40024FEA41039F
S32D0000D2C07FEA226C18BF7FEA236C11D001B052EA530C18BF90EA010F58BFB2EB030088BFC81738BF6FEAE1706E
S32D0000D2E818BF40F0010070477FEA226C02D15FEA402C05D17FEA236CE4D15FEA412CE1D05DF8040B704700BF16
S32D0000D310844608466146FFE70FB5FFF7C9FF002848BF10F1000F0FBD4DF808EDFFF7F4FF0CBF012000205DF839
S32D0000D33808FB00BF4DF808EDFFF7EAFF34BF012000205DF808FB00BF4DF808EDFFF7E0FF94BF012000205DF8A9
S32D0000D36008FB00BF4DF808EDFFF7D2FF94BF012000205DF808FB00BF4DF808EDFFF7C8FF34BF012000205DF8B1
S32D0000D38808FB00BF4FEA4002B2F1FE4F0FD34FF09E03B3EB12620DD94FEA002343F0004310F0004F23FA02F060
S32D0000D3B018BF404270474FF00000704712F1610F01D1420205D110F0004008BF6FF0004070474FF00000704797
S32D0000D3D880B582B000AF786039607B68012B2CD13A684FF6FF739A4227D141F21C10C1F6FF704FF0080105F0A5
S32D0000D4001BFA41F22010C1F6FF704FF0090105F013FA41F22410C1F6FF704FF000014FF00002C4F2401201F00E
S32D0000D4285FFB41F22C10C1F6FF704FF001014FF00002C4F2401201F053FB07F10807BD4680BD00BF80B500AF34
S32D0000D4504FF001004FF6FF71FFF7BEFF80BD00BF90B583B000AF4FF000037B6041F23410C1F6FF7005F0C0FD77
S32D0000D47803461846FFF72CF902460B464FF001010C461046194630A3D3E90023FFF704FC0346002B02D14FF0B5
S32D0000D4A000031C46FC7041F23810C1F6FF7005F0A3FD03461846FFF70FF902460B464FF001010C4610461946D1
S32D0000D4C823A3D3E90023FFF7E7FB0346002B02D14FF000031C46BC7041F23C10C1F6FF7005F086FD03461846DE
S32D0000D4F0FFF7F2F802460B464FF001010C461046194617A3D3E90023FFF7CAFB0346002B02D14FF000031C460E
S32D0000D5187C70BB78002B03D04FF000037B600BE0FB78002B02D04FF002037B607B78002B02D04FF001037B6023
S32D0000D5407B68184607F10C07BD4690BDAFF30080CDCCCCCCCCCCF43F5839B4C876BEF33FD7A3703D0AD7FB3F4E
S32D0000D568B0B582B000AF41F25C10C1F6FF704FF00001C4F2101101F04BFB41F26410C1F6FF704FF00001C4F279
S32D0000D590201101F041FB04F059FF02460B4610461946FFF7CFFB03467B6000BFFFF758FF0346002B1ED104F02E
S32D0000D5B849FF04460D467868FFF78AF802460B4620462946FEF724FF02460B46104619464FF000024FF00003B1
S32D0000D5E0C3F6F073FFF73EFB0346002B02D04FF0010301E04FF00003002BD7D141F25C10C1F6FF7001F0B8FAEB
S32D0000D60841F26410C1F6FF7001F0B2FA07F10807BD46B0BDB0B582B000AF41F26410C1F6FF704FF0000101F0CF
S32D0000D630F3FA41F25C10C1F6FF704FF00001C4F2201101F0E9FA04F001FF02460B4610461946FFF777FB03462C
S32D0000D6587B6000BFFFF700FF0346012B1ED104F0F1FE04460D467868FFF732F802460B4620462946FEF7CCFE04
S32D0000D68002460B46104619464FF000024FF00003C3F6F073FFF7E6FA0346002B02D04FF0010301E04FF000030D
S32D0000D6A8002BD7D141F25C10C1F6FF7001F060FA41F26410C1F6FF7001F05AFA07F10807BD46B0BDB0B582B051
S32D0000D6D000AF41F25C10C1F6FF704FF0000101F09BFA41F26410C1F6FF704FF00001C4F2201101F091FA04F08E
S32D0000D6F8A9FE02460B4610461946FFF71FFB03467B6000BFFFF7A8FE0346022B1ED104F099FE04460D46786813
S32D0000D720FEF7DAFF02460B4620462946FEF774FE02460B46104619464FF000024FF00003C3F6F073FFF78EFACD
S32D0000D7480346002B02D04FF0010301E04FF00003002BD7D141F25C10C1F6FF7001F008FA41F26410C1F6FF70AF
S32D0000D77001F002FA07F10807BD46B0BDF0B585B000AF786004F062FE02460B4610461946FFF7D8FA0346FB60B8
S32D0000D79828E0FFF761FEB86041F25C40C1F6FF70B96806F091FFBB68012B09D0022B04D0002B08D1FFF7D4FE5D
S32D0000D7C014E0FFF783FF11E0FFF728FF0EE041F25C40C1F6FF7047F22821C0F201014FF004024FF0050306F026
S32D0000D7E8CBFE00BF04F02EFE04460D46F868FEF76FFF02460B4620462946FEF709FE02460B4614461D4678686B
S32D0000D810FEF762FF02460B464FF001010E4620462946FFF71FFA0346002B02D14FF000031E46F3B2002BB0D144
S32D0000D83807F11407BD46F0BD80B500AF41F25C10C1F6FF7001F094F941F26410C1F6FF7001F08EF941F25410FC
S32D0000D860C1F6FF7005F0A2FB41F25810C1F6FF7005F09CFB80BD00BF80B500AFFFF7E0FF41F26410C1F6FF7013
S32D0000D8884FF00001C4F2701101F0C2F941F25C10C1F6FF704FF00001CCF2701101F0B8F911E041F25010C1F62E
S32D0000D8B0FF7005F0A1FB034641F25C40C1F6FF7019464FF004024FF0050306F099FE41F25410C1F6FF7005F0E2
S32D0000D8D855FB024640F217139A420DDC41F25810C1F6FF7005F04AFB024640F217139A4202DC4FF0010301E0EC
S32D0000D9004FF00003002BD0D1FFF79AFF80BD00BF90B583B000AF7860FFF792FF41F25C10C1F6FF704FF00001D5
S32D0000D928CCF2701101F074F941F26410C1F6FF704FF00001C4F2701101F06AF900BF41F25410C1F6FF7005F02B
S32D0000D95019FB03461846FFF7FFFA04467B6818461946FFF745FA034620461946FFF7E6FC0346002B1AD041F269
S32D0000D9785810C1F6FF7005F001FB03461846FFF7E7FA04467B6818461946FFF72DFA034620461946FFF7CEFCAF
S32D0000D9A00346002B02D04FF0010301E04FF00003002BC8D1FFF744FF07F10C07BD4690BD80B500AFFFF73CFF40
S32D0000D9C841F25C10C1F6FF704FF00001C4F2701101F01EF941F26410C1F6FF704FF00001CCF2701101F014F9A3
S32D0000D9F011E041F25010C1F6FF7005F0FDFA034641F25C40C1F6FF7019464FF004024FF0050306F0F5FD41F22F
S32D0000DA185410C1F6FF7005F0B1FA0346B3F5847F0CDC41F25810C1F6FF7005F0A7FA0346B3F5847F02DC4FF072
S32D0000DA40010301E04FF00003002BD2D1FFF7F8FE80BD00BF0000000080B582B000AFFFF7EFFE4FF019037B60AC
S32D0000DA687868FEF723FE02460B46104619462CA3D3E90023FEF780FE02460B461046194629A3D3E90023FEF73D
S32D0000DA9077FE02460B4610461946FFF753F9034641F25C10C1F6FF70194601F0B5F87868FFF752FA034641F2BA
S32D0000DAB86410C1F6FF70194601F0AAF811E041F25010C1F6FF7005F093FA034641F25C40C1F6FF7019464FF0AC
S32D0000DAE004024FF0050306F08BFD41F24410C1F6FF7004F003FE0346002B08D141F24010C1F6FF7004F0FAFDCA
S32D0000DB080346002B02D04FF0010301E04FF00003002BD4D1FFF790FE07F10807BD4680BDCDCCCCCCCCCCEC3FB4
S32D0000DB30666666666666EE3FB0B584B000AF7860FFF77EFE04F082FC02460B4610461946FFF7F8F80346FB605A
S32D0000DB584FF01903BB60B868FEF7A8FD02460B46104619463EA3D3E90023FEF705FE02460B4610461946FFF725
S32D0000DB80E1F8034641F25C10C1F6FF70194601F043F8B868FFF7E0F9034641F26410C1F6FF70194601F038F880
S32D0000DBA811E041F25010C1F6FF7005F021FA034641F25C40C1F6FF7019464FF004024FF0050306F019FD41F22D
S32D0000DBD05810C1F6FF7005F0D5F903461846FEF769FD04460D467868FEF776FD02460B46104619461EA3D3E924
S32D0000DBF80023FEF7C1FD02460B4620462946FFF737F80346002B1ED004F01CFC04460D46F868FEF75DFD024694
S32D0000DC200B4620462946FEF7F7FB02460B46104619464FF000024FF00003C4F22403FFF711F80346002B02D0D6
S32D0000DC484FF0010301E04FF00003002BA9D1FFF7F3FD07F11007BD46B0BD00BFAFF30080CDCCCCCCCCCCEC3F69
S32D0000DC70D0D4EB1681474340B0B582B000AFFFF7DFFD04F0E3FB02460B4610461946FFF759F803467B604FF0B4
S32D0000DC9819033B603868FEF709FD02460B461046194637A3D3E90023FEF766FD02460B4610461946FFF742F82F
S32D0000DCC0034641F25C10C1F6FF70194600F0A4FF3B68C3F100031846FFF73EF9034641F26410C1F6FF701946DC
S32D0000DCE800F096FF11E041F25010C1F6FF7005F07FF9034641F25C40C1F6FF7019464FF004024FF0050306F053
S32D0000DD1077FC41F24C10C1F6FF7004F0EFFC0346002B24D141F24810C1F6FF7004F0E6FC0346002B1ED004F098
S32D0000DD3889FB04460D467868FEF7CAFC02460B4620462946FEF764FB02460B46104619464FF000024FF000036E
S32D0000DD60C4F22403FEF77EFF0346002B02D04FF0010301E04FF00003002BB8D1FFF760FD07F10807BD46B0BD1C
S32D0000DD88CDCCCCCCCCCCECBFB0B584B000AF7860FFF752FD04F056FB02460B4610461946FEF7CCFF0346FB609D
S32D0000DDB04FF01903BB60B868FEF77CFC02460B46104619463EA3D3E90023FEF7D9FC02460B4610461946FEF727
S32D0000DDD8B5FF034641F25C10C1F6FF70194600F017FFBB68C3F100031846FFF7B1F8034641F26410C1F6FF7009
S32D0000DE00194600F009FF11E041F25010C1F6FF7005F0F2F8034641F25C40C1F6FF7019464FF004024FF00503EB
S32D0000DE2806F0EAFB41F25810C1F6FF7005F0A6F803461846FEF73AFC04460D467868FEF735FC02460B46104639
S32D0000DE5019461DA3D3E90023FEF792FC02460B4620462946FEF708FF0346002B1ED004F0EDFA04460D46F8687F
S32D0000DE78FEF72EFC02460B4620462946FEF7C8FA02460B46104619464FF000024FF00003C4F22403FEF7E2FEB5
S32D0000DEA00346002B02D04FF0010301E04FF00003002BA9D1FFF7C4FC07F11007BD46B0BDCDCCCCCCCCCCECBF5A
S32D0000DEC8D0D4EB1681474340B0B584B000AF78603960FFF7B1FC04F0B5FA02460B4610461946FEF72BFF034687
S32D0000DEF0FB603868FEF7DEFB02460B46104619463FA3D3E90023FEF73BFC02460B4610461946FEF717FF03465E
S32D0000DF1841F25C10C1F6FF70194600F079FE3B68C3F100031846FFF713F8034641F26410C1F6FF70194600F032
S32D0000DF406BFE11E041F25010C1F6FF7005F054F8034641F25C40C1F6FF7019464FF004024FF0050306F04CFBF9
S32D0000DF6841F25810C1F6FF7005F008F803461846FEF79CFB04460D467868FEF797FB02460B46104619461EA38F
S32D0000DF90D3E90023FEF7F4FB02460B4620462946FEF76AFE0346002B1ED004F04FFA04460D46F868FEF790FBB9
S32D0000DFB802460B4620462946FEF72AFA02460B46104619464FF000024FF00003C4F22403FEF744FE0346002B5B
S32D0000DFE002D04FF0010301E04FF00003002BA9D1FFF726FC07F11007BD46B0BDAFF30080CDCCCCCCCCCCECBF09
S32D0000E008D0D4EB168147434080B584B000AF7860FFF712FC04F016FA02460B4610461946FEF78CFE0346FB6091
S32D0000E0307868FEF73FFB02460B461046194638A3D3E90023FEF79CFB02460B4610461946FEF778FE034641F2EA
S32D0000E0585C10C1F6FF70194600F0DAFD7868FEF777FF034641F26410C1F6FF70194600F0CFFD00BF41F2341030
S32D0000E080C1F6FF7004F0B8FF03461846FEF724FB02460B461046194623A3D3E90023FEF7FFFD0346002B2ED090
S32D0000E0A841F23C10C1F6FF7004F0A2FF03461846FEF70EFB02460B46104619461AA3D3E90023FEF7E9FD03465D
S32D0000E0D0002B18D041F23810C1F6FF7004F08CFF03461846FEF7F8FA02460B461046194611A3D3E90023FEF78B
S32D0000E0F8D3FD0346002B02D04FF0010301E04FF00003002BB6D1FFF797FB07F11007BD4680BD00BFAFF3008014
S32D0000E120CDCCCCCCCCCCEC3FCDCCCCCCCCCCF43FD7A3703D0AD7FB3F5839B4C876BEF33F80B582B000AF41F2E3
S32D0000E1485010C1F6FF7004F053FF03461846FEF7BFFA02460B46C7E90023D7E900013EA3D3E90023FEF77AFD2F
S32D0000E1700346002B20D041F25C40C1F6FF704FF0020106F081F841F25C40C1F6FF704FF0010106F0CBF841F255
S32D0000E1985C40C1F6FF7047F25021C0F201014FF003024FF0050306F0E7F94FF00C034DE0D7E900014FF000025B
S32D0000E1C04FF00003C3F6E073FEF74CFD0346002B20D041F25C40C1F6FF704FF0040106F053F841F25C40C1F641
S32D0000E1E8FF704FF0010106F09DF841F25C40C1F6FF7047F25421C0F201014FF003024FF0050306F0B9F94FF005
S32D0000E2100B031FE041F25C40C1F6FF704FF0000106F032F841F25C40C1F6FF704FF0010106F07CF841F25C400F
S32D0000E238C1F6FF7047F25C21C0F201014FF003024FF0050306F098F94FF00A03184607F10807BD4680BD00BF66
S32D0000E260333333333333D33FB0B584B000AF41F26C10C1F6FF704FF00001C4F2B42105F0B3FA04F0E3F80246AB
S32D0000E2880B4610461946FEF759FD0346FB604FF000004FF00001C3F6F07104F0A7F811E041F25010C1F6FF709D
S32D0000E2B004F0A2FE034641F25C40C1F6FF7019464FF004024FF0050306F09AF941F25010C1F6FF7004F090FEBF
S32D0000E2D803461846FEF7FCF902460B461046194693A3D3E90023FEF7D7FC0346002B1ED004F0A8F804460D46C9
S32D0000E300F868FEF7E9F902460B4620462946FEF783F802460B46104619464FF000024FF00003C4F23E03FEF71D
S32D0000E3289DFC0346002B02D04FF0010301E04FF00003002BB4D141F25C40C1F6FF704FF0000105F09DFF4FF0CD
S32D0000E3500A00FFF71DFDFFF733FBFFF78DFC4FF00000C4F2D000FFF7E7FB04F06FF802460B4610461946FEF7A7
S32D0000E378E5FC0346BB604FF000037B6002E0FFF7DBFE786004F05EF804460D46B868FEF79FF902460B462046F9
S32D0000E3A02946FEF739F802460B464FF001010C46104619464FF000024FF00003C4F21403FEF750FC0346002BD4
S32D0000E3C802D14FF000031C46E3B2002BD7D141F25C40C1F6FF704FF0000105F051FFFFF737FB4FF00100FFF770
S32D0000E3F0CFFCFFF7E5FA4FF028004FF03C01FFF767FDFFF7DDFAFFF737FC4FF08240FFF793FBFFF731FA4FF047
S32D0000E4181900FFF7B9FCFFF7CFFA41F26C10C1F6FF704FF00001C4F2B42105F0D9F94FF00A00FFF7E9FD4FF088
S32D0000E4400000C4F2C000FFF799F94FF007004FF00A01FFF73DFD41F26C10C1F6FF704FF00001C4F2701105F0AF
S32D0000E468BFF94FF08140FFF785F941F26C10C1F6FF704FF00001C4F2F01105F0B1F94FF00A004FF00F01FFF761
S32D0000E4901FFD41F26C10C1F6FF704FF00001C4F2B42105F0A1F94FF00000C4F2F010FFF72FFAFFF7E1FB41F2FA
S32D0000E4B85C40C1F6FF704FF0000105F0E1FE41F25C40C1F6FF7047F26821C0F201014FF004024FF0050306F073
S32D0000E4E04FF841F2C440C1F6FF7007F063FC034641F25C40C1F6FF7019464FF004024FF0080306F05DF841F26A
S32D0000E508C440C1F6FF7007F051FC034641F2E440C1F6FF7047F27C21C0F201011A4607F079FD07F11007BD4648
S32D0000E530B0BD00BFAFF30080666666666666E63F80B500AF41F25C40C1F6FF704FF0000105F09AFE41F25C4071
S32D0000E558C1F6FF704FF0010105F0E4FE41F26C10C1F6FF704FF4FA7105F0FEF841F26C10C1F6FF7040F6C41109
S32D0000E58005F014F9FFF770FE4FF00003184680BD80B582B000AF786039607B68012B74D13A684FF6FF739A421A
S32D0000E5A86FD141F23410C1F6FF704FF0180104F00DFD41F23810C1F6FF704FF01F0104F005FD41F23C10C1F6E6
S32D0000E5D0FF704FF01C0104F0FDFC41F24010C1F6FF704FF0000103F069FF41F24410C1F6FF704FF0020103F03F
S32D0000E5F861FF41F24810C1F6FF704FF0040103F059FF41F24C10C1F6FF704FF0060103F051FF41F25010C1F6CD
S32D0000E620FF704FF0070104F0D5FC41F25410C1F6FF704FF0080104F0FFF841F25810C1F6FF704FF0090104F063
S32D0000E648F7F841F25C10C1F6FF704FF000014FF00002C4F2401200F043FA41F26410C1F6FF704FF001014FF0ED
S32D0000E6700002C4F2401200F037FA41F26C10C1F6FF704FF0000105F055F807F10807BD4680BD00BF80B500AF10
S32D0000E6984FF001004FF6FF71FFF776FF80BD00BF80B500AF41F22872C1F6FF7241F21C13C1F6FF73D31A41F274
S32D0000E6C01C10C1F6FF704FF000011A4607F043FD80BD00BF08F094FD00F0B0F9FFF7E4FF08F06AFD08F006FDB2
S32D0000E6E808F09CFD00F00CF84FF0000041F27811C1F6FF71FFF720FF0346184607F002FD80B500AF4FF4E04361
S32D0000E710C4F204034FF4E042C4F2040202F5815202F11802126842F4785203F5815303F118031A6000F02EF940
S32D0000E73800F094F841F2A833C1F6FF734FF058021A6041F2A833C1F6FF731B684FF47A7202FB03F241F2A43308
S32D0000E760C1F6FF731A6041F2A433C1F6FF731B681A464FF4E043C4F2040303F5825303F104031B6803F070639E
S32D0000E7884FEA136303F10103B2FBF3F31A4641F2AC33C1F6FF731A604FF4E043C4F204034FF4E042C4F20402D0
S32D0000E7B002F5815202F11C02126842F0225203F5815303F11C031A604FF4E043C4F204034FF4E042C4F20402A3
S32D0000E7D802F5815202F11002126842F0006203F5815303F110031A604FF45043C4F203034FF480721A614FF068
S32D0000E800640003F073FC4FF45043C4F203034FF45042C4F20302526922F010025A614FF45043C4F203034FF097
S32D0000E82800021A604FF45043C4F203034FF010025A6104F00FFD04F0B7FD41F2A030C1F6FF7003F0D3FC41F2E2
S32D0000E8505C40C1F6FF7005F079FB41F2883003F0AFFD80BD80B400AF4FF48043C4F206034FF000025A704FF4B2
S32D0000E8788043C4F206034FF098021A704FF48043C4F206039B79DBB203F01003002B0CBF00230123DBB2002B2C
S32D0000E8A0F0D14FF48043C4F206039B79DBB203F00C034FEA9303022B0CBF00230123DBB2002BEED14FF4804396
S32D0000E8C8C4F206034FF018021A714FF48043C4F206034FF000025A714FF4E043C4F2040303F5825303F10403C3
S32D0000E8F04FF00002C0F213121A604FF48043C4F206034FF054025A7100BF4FF48043C4F206039B79DBB203F02B
S32D0000E9182003002B14BF00230123DBB2002BF0D100BF4FF48043C4F206039B79DBB203F04003002B14BF002374
S32D0000E9400123DBB2002BF0D14FF48043C4F206034FF48042C4F206021278D2B202F03F02D2B21A704FF480432F
S32D0000E968C4F206039B79DBB203F00C034FEA9303032B0CBF00230123DBB2002BEED14FF000031846BD4680BCBA
S32D0000E990704700BF80B400AF4FF44043C4F204034FF480725A634FF2C003C4F20F034FF2C002C4F20F0252693A
S32D0000E9B842F400525A614FF2C003C4F20F034FF2C002C4F20F02126842F400521A604FF44043C4F2040340F227
S32D0000E9E00312C0F20A021A634FF46143CEF200034FF46142CEF20002D2F8882142F08062C3F888214FF4614395
S32D0000EA08CEF200034FF46142CEF20002926842F080629A60BD4680BC704700BF80B483B000AF7860FEE700BF26
S32D0000EA3080B400AF00BEBD4680BC704780B400AF4FF0E0224CF20003C0F20003C2F8083D4FF40053C4F20503B4
S32D0000EA584CF22052DA814FF40053C4F205034DF62812DA814FF40053C4F205034FF0D2021A80BD4680BC704762
S32D0000EA8080B500AF4FF44043C4F20403D3F8A03003F48053002B0CBF00230123DBB2002B1FD04FF44043C4F23C
S32D0000EAA804034FF44042C4F20402D2F8A02022F48052C3F8A02041F2E440C1F6FF7007F08DFA4FF2C003C4F216
S32D0000EAD00F034FF2C002C4F20F02126822F400521A6080BD0000000080B584B000AFF8600B467A60FB72FB6838
S32D0000EAF8FA7A1A71FB684FF000025A7178684FF00001C4F24011FEF733FC0346002B05D04FF00003C4F24013A3
S32D0000EB207B600AE078684FF07E51FEF711FC0346002B02D04FF07E537B607868FDF7CCFD02460B4610461946F6
S32D0000EB4809A3D3E90023FDF717FE02460B4610461946FEF7F3F80246FB681A60FB68184607F11007BD4680BDA8
S32D0000EB70ABAAAAAAAAAA204080B582B000AF78607B685B79002B10D07B684FF000025A717B681B7941F2A03001
S32D0000EB98C1F6FF7019464FF000024FF01E0303F06FFB07F10807BD4680BD00BF80B584B000AF786039603B689A
S32D0000EBC07F2B03DD4FF07F03FB7309E03B6813F1800F03DA4FF08003FB7301E03B68FB737B685B79FA7B9A4248
S32D0000EBE80FD07B68FA7B5A717B681A79FB7B41F2A030C1F6FF7011461A464FF01E0303F03FFB07F11007BD4692
S32D0000EC1080BD00BF00000000B0B584B000AF7860396038684FF00001CCF2C821FEF786FB0346002B05D04FF09C
S32D0000EC380003CCF2C8233B600EE038684FF00001C4F2C821FEF794FB0346002B04D04FF00003C4F2C8233B60B0
S32D0000EC603868FDF739FD04460D467B681B681846FDF732FD02460B46104619464FF000024FF00003C4F2590355
S32D0000EC88FDF7A4FE02460B4620462946FDF774FD02460B4610461946FEF750F803463B6038684FF00001FEF7B1
S32D0000ECB059FB0346002B14D03868FDF70DFD02460B46104619461CA3D3E90023FDF758FD02460B461046194669
S32D0000ECD8FDF7ECFF0346FB6022E03868FDF7F8FC02460B46104619464FF000024FF00003C4F26003FDF740FDE6
S32D0000ED0002460B46104619464FF000024FF00003C4F25903FDF75EFE02460B4610461946FDF7C8FF0346FB6005
S32D0000ED287868F968FFF742FF07F11007BD46B0BD52B81E85EB51F43F80B485B000AF02460B46FA71BB71BB792E
S32D0000ED50002B07D141F27C13C1F6FF734FF000021A7006E041F27C13C1F6FF734FF001021A704FF03803FB7357
S32D0000ED7841F27C13C1F6FF731A78FB7B1343FB734FF4C043C4F206034FF4C042C4F206029278D2B242F01002DC
S32D0000EDA0D2B29A704FF4C043C4F206034FF4C042C4F206029278D2B242F02002D2B29A704FF4C043C4F206033A
S32D0000EDC8FA7B1A7107F11407BD4680BC704700BF80B483B000AF4FF001037B6004E000BF7B6803F101037B60C8
S32D0000EDF07B68312BCCBF00230123DBB2002BF2D107F10C07BD4680BC704700BF80B582B000AF02460B46FA718F
S32D0000EE18BB7141F27D13C1F6FF731B7818464FF00001FFF789FF4FF4C043C4F20603DB78DBB203F00203002BFD
S32D0000EE4014BF00230123DBB2002BF0D14FF4C043C4F206034FF4C042C4F20602D278D2B242F00202D2B2DA7037
S32D0000EE684FF4C043C4F20603FA791A714FF4C043C4F20603DB78DBB203F00203002B14BF00230123DBB2002B9F
S32D0000EE90F0D14FF4C043C4F206034FF4C042C4F20602D278D2B242F00202D2B2DA704FF4C043C4F20603BA7981
S32D0000EEB81A714FF4C043C4F20603DB78DBB203F00203002B14BF00230123DBB2002BF0D14FF4C043C4F2060301
S32D0000EEE04FF4C042C4F20602D278D2B242F00202D2B2DA704FF4C043C4F206034FF4C042C4F206029278D2B299
S32D0000EF0822F02002D2B29A704FF4C043C4F206034FF4C042C4F206029278D2B222F01002D2B29A70FFF754FF88
S32D0000EF3007F10807BD4680BD80B582B000AF0346FB71FB79184600F043F807F10807BD4680BD00BF80B582B037
S32D0000EF5800AF02460B46FA71BB7100F011F8FB794FEA4303DBB21846FFF7E2FFBB791846FFF7DEFF00F016F89B
S32D0000EF8007F10807BD4680BD80B400AF4FF24003C4F20F034FF24002C4F20F02926842F480129A60BD4680BCA8
S32D0000EFA8704700BF80B400AF4FF24003C4F20F034FF24002C4F20F02526842F480125A60BD4680BC704700BF5B
S32D0000EFD080B485B000AF0346FB714FF00003BB7303E0FB7B03F10103FB734FF44043C4F20A03DB6A4FF0000307
S32D0000EFF8002BF2D14FF44043C4F20A034FF44042C4F20A02D26A42F00042DA624FF44043C4F20A03FA795A6348
S32D0000F02000BF4FF44043C4F20A03DB6A03F40033002B14BF00230123DBB2002BF1D14FF44043C4F20A039B6BBD
S32D0000F048BB73BB7B184607F11407BD4680BC704780B582B000AF4FF4E043C4F204034FF4E042C4F2040202F57E
S32D0000F070815202F11002126842F4805203F5815303F110031A604FF42043C4F204034FF480721A654FF2400330
S32D0000F098C4F20F034FF24002C4F20F02526942F480125A61FFF77EFF4FF42043C4F204034FF400725A654FF46D
S32D0000F0C02043C4F204034FF400729A654FF42043C4F204034FF40072DA654FF44043C4F20A034FF44062C8F2CF
S32D0000F0E800021A604FF44043C4F20A034FF00502C3F60062DA604FF000037B6007E04FF0FF00FFF715FF7B682B
S32D0000F11003F101037B607B68092BCCBF00230123DBB2002BEFD104A1D1E9000103F062F907F10807BD4680BDA8
S32D0000F1389A9999999999B93F90B486B000AFF860B9607A60FA684FF42043C4F206039A4214D14FF4E043C4F202
S32D0000F16004034FF4E042C4F2040202F5815202F11402126842F4806203F5815303F114031A6083E0FA684FF49B
S32D0000F1883043C4F206039A4214D14FF4E043C4F204034FF4E042C4F2040202F5815202F11402126842F400623D
S32D0000F1B003F5815303F114031A6067E0FA684FF44043C4F206039A4214D14FF4E043C4F204034FF4E042C4F2B3
S32D0000F1D8040202F5815202F11402126842F4805203F5815303F114031A604BE0FA684FF45043C4F206039A425F
S32D0000F20014D14FF4E043C4F204034FF4E042C4F2040202F5815202F11402126842F4005203F5815303F114030B
S32D0000F2281A602FE0FA684FF42043C4F20E039A4214D14FF4E043C4F204034FF4E042C4F2040202F5815202F19E
S32D0000F2500802126842F4806203F5815303F108031A6013E04FF4E043C4F204034FF4E042C4F2040202F58152AE
S32D0000F27802F10802126842F4006203F5815303F108031A60FB68DB78DBB223F00C03DAB2FB68DA70FB684FF0D4
S32D0000F2A000029A70BB684FF47A7202FB03F27B684FEA031392FBF3F39CB2FB681B78DBB223F01F03FB7523466C
S32D0000F2C803F4F8534FEA2323DBB203F01F03DAB2FB7D1343DAB2FB681A70E2B2FB685A70BB684FF4FA4202FB82
S32D0000F2F003F27B684FEA031392FBF3F39AB2234619464FEAC121CB1A4FEA43139BB2D3189CB2FB689B7ADBB228
S32D0000F31823F01F03FB75E3B203F01F03DAB2FB7D1343DAB2FB689A72FB68DB78DBB243F00C03DAB2FB68DA7065
S32D0000F34007F11807BD4690BC704700BF80B483B000AF786000BF7B681B79DBB203F02003002B14BF00230123B7
S32D0000F368DBB2002BF3D17B68DB79DBB2184607F10C07BD4680BC704780B483B000AF78600B46FB7000BF7B688C
S32D0000F3901B79DBB2DBB26FEA0303DBB24FEAD313DBB2002BF3D17B68FA78DA7107F10C07BD4680BC704700BFBA
S32D0000F3B880B487B000AFF860B9607A60FB687B61BB683B610BE03B691A787B691A707B6903F101037B613B69D9
S32D0000F3E003F101033B617B68002B0CBF00230123DBB27A6802F1FF327A60002BE7D107F11C07BD4680BC7047EA
S32D0000F40880B487B000AFF860B9607A60FB687B6107E0BB68DAB27B691A707B6903F101037B617B68002B0CBF9D
S32D0000F43000230123DBB27A6802F1FF327A60002BEBD107F11C07BD4680BC704780B584B000AF786039607B6896
S32D0000F4581B6BFB60FA683B689A4264D07B681B79002B43D07B685A787B6803F1340310461946FA684FF00103BE
S32D0000F48002F09AFC0346002B0CBF00230123DBB2002B02D04FF001034BE07B684FF000021A717B685A6A7B681F
S32D0000F4A81B6AD218FB689A4220D97B68DB78FB7214E07B681B6AFA68D318FB607B685A787B6803F134031046CF
S32D0000F4D01946FA684FF0010302F06EFCFB7A03F1FF33FB72FB7A012B94BF00230123DBB2002BE2D13B68002B32
S32D0000F4F819D07B685A787B6803F13403104619463A684FF0010302F041FB0346002B0CBF00230123DBB2002B34
S32D0000F52002D04FF0010304E07B683A681A634FF00003184607F11007BD4680BD80B584B000AF786078684FF0C4
S32D0000F5480001FFF77FFF0346FB73FB7B002B40F0AE807B681B78032B40F095807B685B79002B00F090807B68BC
S32D0000F5704FF000021A637B6803F1340318464FF000014FF40072FFF73FFF7B684FF0550283F832227B684FF0B0
S32D0000F598AA0283F833227B684FF0520283F834207B684FF0520283F835207B684FF0610283F836207B684FF0C6
S32D0000F5C0410283F837207B684FF0720283F818227B684FF0720283F819227B684FF0410283F81A227B684FF033
S32D0000F5E8610283F81B227B681B69DAB27B6883F81C227B681B699BB24FEA2323DAB27B6883F81D227B681B6988
S32D0000F6104FEA1343DAB27B6883F81E227B681B694FEA1363DAB27B6883F81F227B68DB68DAB27B6883F8202280
S32D0000F6387B68DB689BB24FEA2323DAB27B6883F821227B68DB684FEA1343DAB27B6883F822227B68DB684FEA43
S32D0000F6601363DAB27B6883F823227B6859787B6803F134027B685B69084611461A464FF0010302F099FB7B68BE
S32D0000F6884FF000025A717B685B7818464FF000014FF0000202F076FC0346002B0CBF00230123DBB2002B02D03F
S32D0000F6B04FF00103FB73FB7B184607F11007BD4680BD00BF80B483B000AF786039603B68A3F102033B607B6858
S32D0000F6D8DB69A3F102023B689A4202D84FF0000307E07B689B783A6802FB03F27B68DB6AD318184607F10C07A0
S32D0000F700BD4680BC704700BF80B586B000AF786039603B68012B04D97B68DA693B689A4202D84FF00103D2E07B
S32D0000F7287B681B78022B5ED0032B00F08980012B40F0C7803B687B617B694FEA53037A69D3187B617B685A6AD5
S32D0000F7507B694FEA5323D31878681946FFF776FE0346002B0CBF00230123DBB2002B40F0A5807B694FEAC3539E
S32D0000F7784FEAD3537A68D31893F834303B617B6903F101037B617B685A6A7B694FEA5323D31878681946FFF79A
S32D0000F7A055FE0346002B0CBF00230123DBB2002B40F086807B694FEAC3534FEAD3537A68D31893F834304FEAED
S32D0000F7C803233A6913433B613B6803F00103002B03D03B694FEA131304E03B694FEA03534FEA13536FE07B68D5
S32D0000F7F05A6A3B684FEA1323D31878681946FFF725FE0346002B0CBF00230123DBB2002B58D13B684FEA430349
S32D0000F8184FEAC3534FEAD35303F130037A68D31803F10403FB60FB6803F101031B784FEA03239AB2FB681B783B
S32D0000F84013439BB29BB242E07B685A6A3B684FEAD313D31878681946FFF7F8FD0346002B0CBF00230123DBB2F7
S32D0000F868002B2DD13B684FEA83034FEAC3534FEAD35303F130037A68D31803F10403FB60FB6803F103031B78FF
S32D0000F8904FEA0362FB6803F102031B784FEA03431A43FB6803F101031B784FEA03231A43FB681B78134323F0D8
S32D0000F8B8704308E000BF04E000BF02E000BF00E000BF4FF0FF33184607F11807BD4680BD80B588B000AFF8604B
S32D0000F8E0B9607A60BB68012B04D9FB68DA69BB689A4203D84FF00203FB7718E1FB681B78022B00F08380032B68
S32D0000F90800F0AB80012B40F0FF80BB68BB61BB694FEA5303BA69D318BB61FB685A6ABB694FEA5323D318F8687A
S32D0000F9301946FFF78BFD0346FB77FB7F002B40F0EB80BB694FEAC3534FEAD35303F13003FA68D31803F1040390
S32D0000F9587B61BB6803F00103002B0ED07B691B78DBB203F00F03DAB27B68DBB24FEA0313DBB21343DBB2DBB231
S32D0000F98001E07B68DBB27A691370BB6903F10103BB61FB684FF001021A71FB685A6ABB694FEA5323D318F868F5
S32D0000F9A81946FFF74FFD0346FB77FB7F002B40F0B180BB694FEAC3534FEAD35303F13003FA68D31803F104038E
S32D0000F9D07B61BB6803F00103002B04D07B684FEA1313DBB20FE07B691B78DBB223F00F03DAB27B684FEA13234F
S32D0000F9F8DBB203F00F03DBB21343DBB2DBB27A6913708CE0FB685A6ABB684FEA1323D318F8681946FFF716FD14
S32D0000FA200346FB77FB7F002B7AD1BB684FEA43034FEAC3534FEAD35303F13003FA68D31803F104037B617B688F
S32D0000FA48DAB27B691A707B6903F101037A6892B24FEA2222D2B21A7061E0FB685A6ABB684FEAD313D318F86814
S32D0000FA701946FFF7EBFC0346FB77FB7F002B51D1BB684FEA83034FEAC3534FEAD35303F13003FA68D31803F1B2
S32D0000FA9804037B617B6903F103031B784FEA03627B6903F102031B784FEA03431A437B6903F101031B784FEA5A
S32D0000FAC003231A437B691B78134303F070437A6813437B607B68DAB27B691A707B6903F101037A6892B24FEAF7
S32D0000FAE82222D2B21A707B6903F102037A684FEA1242D2B21A707B6903F103037A684FEA1262D2B21A700AE0DF
S32D0000FB104FF00203FB7706E000BF04E000BF02E000BF00E000BFFB684FF001021A71FB7F184607F12007BD465F
S32D0000FB3880BD00BF80B586B000AF786039603B68002B0ED17B68DB683B613B69002B04D07B68DA693B699A4260
S32D0000FB6017D84FF001033B6113E078683968FFF7CBFDB860BB68012B02D84FF001036DE07B68DA69BB689A4281
S32D0000FB8801D9BB6866E03B683B613B697B6100E000BF7B6903F101037B617B68DA697B699A4209D84FF00203EB
S32D0000FBB07B617A693B699A4202D94FF000034DE078687969FFF7A0FDB860BB68002B0FD0BB68B3F1FF3F02D02D
S32D0000FBD8BB68012B01D1BB683CE07A693B699A42D6D14FF0000335E000BF786879696FF07042FFF76DFE034602
S32D0000FC00FB73FB7B002B09D13B68002B06D0786839687A69FFF760FE0346FB73FB7B002B12D17B687A69DA6056
S32D0000FC287B681B69B3F1FF3F13D07B681B6903F1FF327B681A617B684FF001025A7108E0FB7B012B02D14FF00C
S32D0000FC50FF3301E04FF001037B617B69184607F11807BD4680BD00BF80B487B000AF786039607B685B6A03F1D5
S32D0000FC7804033B613B684FEA53227B681B689B78B2FBF3F37B613B691B68FB603B6903F104033B61FB68002B37
S32D0000FCA002D14FF0000311E07A69FB689A4208D37A69FB68D31A7B613B6903F104033B61E5E700BF3B691A6838
S32D0000FCC87B69D318184607F11C07BD4680BC704780B582B000AF78600B467B807B68002B08D07B681B78002B0F
S32D0000FCF004D07B68DB887A889A4202D04FF0090313E07B685B78184602F0D8F9034603F00103002B0CBF0023AE
S32D0000FD180123DBB2002B02D04FF0030301E04FF00003184607F10807BD4680BD80B58AB000AFF860B9607A6099
S32D0000FD403B60BB68BB613B684FF000021A60FB681A68FB689B8810461946FFF7BDFF0346FB75FB7D002B01D05E
S32D0000FD68FB7DA8E1FB689B79DBB25BB2002B02DA4FF002039FE1FB689B7903F00203002B02D14FF0070396E163
S32D0000FD90FB68DA687B68D218FB68DB689A4280F070814FF000037B606BE1FB689B684FEAC3534FEAD353002B48
S32D0000FDB840F02A81FB689B684FEA5323DAB2FB681B689B7803F1FF33DBB21340BB75BB7D002B4CD1FB689B688C
S32D0000FDE0002B11D1FB681B697B627B6A002B20D1FB681B6818464FF00001FFF79FFE7862FB687A6A1A6114E07C
S32D0000FE08FB685B6A002B07D0FB689B68F8681946FFF726FF786208E0FB681A68FB685B6910461946FFF786FE65
S32D0000FE3078627B6A002B00F02E817B6A012B09D1FB689B7963F07F03DAB2FB689A714FF0020334E17B6AB3F108
S32D0000FE58FF3F09D1FB689B7963F07F03DAB2FB689A714FF0010326E1FB687A6A5A61FB689B7903F04003002BFA
S32D0000FE8027D0FB681B685978FB6803F12802FB689B69084611461A464FF0010301F08CFF0346002B0CBF002398
S32D0000FEA80123DBB2002B09D0FB689B7963F07F03DAB2FB689A714FF00103FCE0FB689B7923F04003DAB2FB6856
S32D0000FED09A71FB681A68FB685B6910461946FFF7F1FB38613B69002B09D1FB689B7963F07F03DAB2FB689A71CE
S32D0000FEF84FF00203DFE0BB7D3A69D3183B617B684FEA5323FB61FB69002B4ED0BA7DFB69D218FB681B689B785E
S32D0000FF209A4206D9FB681B689B781A46BB7DD31AFB61FB681B685A78FB69DBB21046B9693A6901F039FF0346E8
S32D0000FF48002B0CBF00230123DBB2002B09D0FB689B7963F07F03DAB2FB689A714FF00103A9E0FB689A693B69A1
S32D0000FF70D21AFB699A4217D2FB6803F12802FB6899693B69CB1A4FEA4323B969CB18104619464FF40072FFF7DB
S32D0000FF980FFAFB689B7923F04003DAB2FB689A71FB694FEA43233B6253E0FB689A693B699A4226D0FB689A6857
S32D0000FFC0FB68DB689A4212D2FB681B685A78FB6803F12803104619463A694FF0010301F0D9FD0346002B02D0CB
S32D0000FFE84FF0010301E04FF00003002B09D0FB689B7963F07F03DAB2FB689A714FF0010359E0FB683A699A61BE
S32D00010010FB689B684FEAC3534FEAD353C3F500733B623A6A7B689A4201D97B683B62FB689B684FEAC3534FEA3A
S32D00010038D35303F12803FA68D3181846B9693A6AFFF7B6F9FB689B7943F04003DAB2FB689A71BA693B6AD318A4
S32D00010060BB61FB689A683B6AD218FB689A603B681A683B6AD2183B681A607A683B6AD31A7B607B68002B0CBF0B
S32D0001008800230123DBB2002B7FF48BAE00E000BFFB689A68FB68DB689A4203D9FB689A68FB68DA60FB689B79C3
S32D000100B043F02003DAB2FB689A714FF00003184607F12807BD4680BD80B586B000AF78607B681A687B689B886D
S32D000100D810461946FFF7FCFD0346FB75FB7D002B40F0C8807B689B7903F02003002B00F0C1807B689B7903F02E
S32D000101004003002B20D07B681B6859787B6803F128027B689B69084611461A464FF0010301F04AFE0346002B5E
S32D000101280CBF00230123DBB2002B02D04FF00103A1E07B689B7923F04003DAB27B689A717B681A687B68DB69F5
S32D0001015010461946FFF77AF90346FB75FB7D002B40F08C807B681B6A3B613B6903F10B033A6902F10B021278F3
S32D0001017842F02002D2B21A703B6903F11C037A68D268D2B21A703B6903F11D037A68D26892B24FEA2222D2B2FC
S32D000101A01A703B6903F11E037A68D2684FEA1242D2B21A703B6903F11F037A68D2684FEA1262D2B21A703B6901
S32D000101C803F11A037A681269D2B21A703B6903F11B037A68126992B24FEA2222D2B21A703B6903F114037A6819
S32D000101F012694FEA1242D2B21A703B6903F115037A6812694FEA124292B24FEA2222D2B21A704FF00003FB60C4
S32D000102183B6903F11603FA68D2B21A703B6903F11703FA6892B24FEA2222D2B21A703B6903F11803FA684FEA65
S32D000102401242D2B21A703B6903F11903FA684FEA1262D2B21A707B689B7923F02003DAB27B689A717B681B684F
S32D000102684FF001021A717B681B681846FFF762F90346FB75FB7D184607F11807BD4680BD80B584B000AF7860AF
S32D000102907868FFF719FF0346FB73FB7B002B03D17B684FF000021A60FB7B184607F11007BD4680BD80B586B0F9
S32D000102B800AF03463960FB71FB793B734FF001037B6107F10C0207F11003386811467A69FFF72CFD3A697B6948
S32D000102E09A4202D14FF0010301E04FF0FF33184607F11807BD4680BD80B584B000AF786039604FF00003FB60D0
S32D0001030819E07B681B7818463968FFF7CFFF0346B3F1FF3F14BF00230123DBB2002B02D04FF0FF3311E07B6880
S32D0001033003F101037B60FB6803F10103FB607B681B78002B0CBF00230123DBB2002BDCD1FB68184607F110072D
S32D00010358BD4680BD80B485B000AF786039604FF00103FB604FF00003BB604FF00003BB6008E0FB687A6802FB2B
S32D0001038003F3FB60BB6803F10103BB60BA683B689A42ACBF00230123DBB2002BEDD1FB68184607F11407BD4627
S32D000103A880BC704780B598B000AFF860B9607A604FF000033B643B6CFB6378E3BB681B7887F84730BB6803F1B8
S32D000103D00103BB6097F84730002B00F0778397F84730252B0FD097F847301846F968FFF761FFF863FB6BB3F10F
S32D000103F8FF3F00F053834FF00103FB634EE34FF0000387F85F304FF000033B65BB681B7887F84730BB6803F10B
S32D000104200103BB6097F84730302B0CD14FF0010387F85F30BB681B7887F84730BB6803F10103BB600FE097F89F
S32D0001044847302D2B0BD14FF0020387F85F30BB681B7887F84730BB6803F10103BB6097F847302E2B1ED1BB6835
S32D000104701B7887F84730BB6803F10103BB6015E03A6D13464FEA83039B184FEA43031A4697F84730D318A3F1D3
S32D0001049830033B65BB681B7887F84730BB6803F10103BB6097F847302F2B06D997F84730392B02D84FF00103BA
S32D000104C001E04FF00003002BDAD197F847306C2B03D097F847304C2B0DD197F85F3043F0040387F85F30BB68C0
S32D000104E81B7887F84730BB6803F10103BB6097F84730002B00F0E88297F8473087F8463097F84630602B09D92E
S32D0001051097F846307A2B05D897F84630A3F1200387F8463097F84630A3F14203162B00F2C28101A151F823F032
S32D000105388F08010077080100A3080100B708010069060100B7080100B7080100B7080100B7080100B7080100E0
S32D00010560B7080100B7080100B708010099080100B7080100B7080100B708010095050100B7080100A308010043
S32D00010588B7080100B7080100AD0801007B6803F104027A601B687B624FF000037B6503E07B6D03F101037B6532
S32D000105B07A6A7B6DD3181B78002B0CBF00230123DBB2002BF0D14FF000033B6409E04FF02000F968FFF76EFE30
S32D000105D8F863FB6B3A6CD3183B6497F85F3003F00203002B0FD17A6D3B6D9A422CBF00230123DBB27A6D02F1DE
S32D0001060001027A65002B02D04FF0010301E04FF00003002BDBD1786AF968FFF76DFEF863FB6B3A6CD3183B641A
S32D0001062809E04FF02000F968FFF740FEF863FB6B3A6CD3183B647A6D3B6D9A422CBF00230123DBB27A6D02F1D1
S32D0001065001027A65002BE8D1FB6BB3F1FF3F00F023823B6CFB631FE27B6803F1070323F0070303F108027A60FC
S32D00010678D3E90023C7E90C23D7E90C23C7E90A234FF00003FB64D7E90C014FF000024FF00003FCF7E3FA0346BF
S32D000106A0002B16D04FF02D00F968FFF703FEF863FB6B3A6CD3183B643B6B3B637B6B83F000437B63BB6ABB6265
S32D000106C8FB6A83F00043FB6212E011E0D7E90A014FF000024FF00003C4F22403FCF776F902460B46C7E90A23A5
S32D000106F0FB6C03F10103FB64D7E90A01FCF7DAFA0346002B0CBF00230123DBB2002BE1D1FB6C03F1FF337B652E
S32D000107183EE07B6D4FF00A001946FFF71BFE03461846FBF7C3FF02460B46D7E90C01FCF74DF902460B4610460C
S32D000107401946FCF7B7FA03463B623A6A46F26763C6F2666383FB02134FEAA3014FEAE273C91A0B464FEA830389
S32D000107685B184FEA4303D31A3B623B6A03F130033B623B6ADBB21846F968FFF797FDF863FB6B3A6CD3183B6411
S32D000107907B6D03F1FF337B657B6DB3F1FF3F0CBF00230123DBB2002BB7D14FF02E00F968FFF780FDF863FB6B2E
S32D000107B83A6CD3183B643B6D002B02D14FF003033B654FF00103BB6540E0BB6D4FF00A001946FFF7BFFD034609
S32D000107E01846FBF767FF02460B4610461946D7E90C23FBF7C5FF02460B4610461946FCF759FA03463B623A6A23
S32D0001080846F26763C6F2666383FB02134FEAA3014FEAE273C91A0B464FEA83035B184FEA4303D31A3B623B6A2C
S32D0001083003F130033B623B6ADBB21846F968FFF739FDF863FB6B3A6CD3183B64BB6D03F10103BB65BA6D3B6DB8
S32D000108589A428CBF00230123DBB2002BB5D1FB6BB3F1FF3F00F01E813B6CFB631AE17B6803F104027A601B68B4
S32D00010880DBB21846F968FFF715FDF8630FE14FF0020387F85E3016E04FF0080387F85E3011E04FF00A0387F850
S32D000108A85E300CE04FF0100387F85E3007E097F847301846F968FFF7F9FCF863F3E097F85F3003F00403002B40
S32D000108D005D07B6803F104027A601B680EE097F84630442B05D17B6803F104027A601B6804E07B6803F10402B7
S32D000108F87A601B68BB6497F84630442B0CD1BB6C002B09DABB6CC3F10003BB6497F85F3043F0080387F85F3068
S32D000109204FF00003BB6597F85E20BB6CB3FBF2F102FB01F29B1A87F8463097F85E30BA6CB2FBF3F3BB6497F863
S32D000109484630092B0DD997F84730782B02D14FF0270301E04FF0070397F846209B1887F8463097F8463003F14B
S32D000109703003DAB207F11001BB6DCB181A70BB6D03F10103BB65BB6C002B05D0BB6D0F2B02D84FF0010301E034
S32D000109984FF00003002BC2D197F85F3003F00803002B0AD007F11002BB6DD3184FF02D021A70BB6D03F10103DA
S32D000109C0BB65BB6D7B6597F85F3003F00103002B02D04FF0300301E04FF0200387F846304FF000033B640AE059
S32D000109E897F846301846F968FFF760FCF863FB6B3A6CD3183B6497F85F3003F00203002B0FD17A6D3B6D9A424D
S32D00010A102CBF00230123DBB27A6D02F101027A65002B02D04FF0010301E04FF00003002BDAD1BB6D03F1FF33B5
S32D00010A38BB6507F11002BB6DD3181B781846F968FFF734FCF863FB6B3A6CD3183B64BB6D002B0CBF0023012384
S32D00010A60DBB2002BE5D109E04FF02000F968FFF721FCF863FB6B3A6CD3183B647A6D3B6D9A422CBF00230123AF
S32D00010A88DBB27A6D02F101027A65002BE8D1FB6BB3F1FF3F07D03B6CFB6304E000BF02E000BF00E000BF3A6C65
S32D00010AB0FB6BD3183B64FB6BB3F1FF3F0CBF00230123DBB2002B7FF47DAC02E000BF00E000BFFB6BB3F1FF3FF1
S32D00010AD801D1FB6B00E03B6C184607F16007BD4680BD00BF80B588B000AF786039604FF080033B614FF00F0338
S32D00010B00FB604FF0FF337B614FF00203FB612AE04FF00103BB611AE0FB69BA6902FB03F33A6802FB03F27B682A
S32D00010B28D31ABB60BB68002B09DBBA687B699A4205D2BB687B61FB693B61BB69FB60BB6903F10103BB61BB69D1
S32D00010B50102B8CBF00230123DBB2002BDCD1FB694FEA4303FB61FB69B3F5807F8CBF00230123DBB2002BCBD114
S32D00010B784FF48053C4F20B034FF48052C4F20B02D26A22F00802DA624FF48053C4F20B03DB6A23F47F2323F419
S32D00010BA07F63BB614FF48053C4F20B033A694FEA52024FEA02224FEA02424FEA1242F96801F1FF314FEA0111E9
S32D00010BC8C9B21143BA690A4342F46022DA6203E04FF00A0001F0F0FB4FF48053C4F20B035B6A03F00803002BFB
S32D00010BF014BF00230123DBB2002BEDD14FF48053C4F20B034FF48052C4F20B02D26A42F00802DA624FF48053CA
S32D00010C18C4F20B034FF48052C4F20B02126B42F480121A6307F12007BD4680BD80B582B000AF786039607B6886
S32D00010C404FF000021A604FF48053C4F20B034FF40042C0F20012DA624FF48053C4F20B03DB6A03F08073002B3B
S32D00010C680CBF00230123DBB2002BF1D14FF48053C4F20B034FF00002C3F8C0204FF48053C4F20B034FF481324B
S32D00010C905A604FF48053C4F20B034FF028029A624FF48053C4F20B034FF001125A643B689B6818464CF660416B
S32D00010CB8C0F20501FFF716FF4FF48053C4F20B035B6A03F00303002B0CBF00230123DBB2002BF1D14FF4504325
S32D00010CE0C4F2040340F243421A604FF45043C4F2040340F243425A604FF45043C4F204034FF488629A604FF4F6
S32D00010D085043C4F2040340F24342DA604FF45043C4F2040340F243421A614FF45043C4F2040340F243425A61B1
S32D00010D304FF4E043C4F204034FF4E042C4F2040202F5815202F11002126842F4003203F5815303F110031A6052
S32D00010D584FF48053C4F20B034FF6FF721A634FF48053C4F20B034FF0B302C0F27F025A634FF48053C4F20B03C7
S32D00010D804FF48052C4F20B02D26A42F00062DA624FF48053C4F20B03DB6A03F00063002B0CBF00230123DBB221
S32D00010DA8002BF1D14FF48053C4F20B035B6A03F48033002B0CBF00230123DBB2002B03D07B684FF001021A607F
S32D00010DD04FF48053C4F20B034FF48052C4F20B02126B42F080021A634FF00003184607F10807BD4680BD00BFEE
S32D00010DF880B400AF4FF48053C4F20B035A6A40F207331340002B0CBF00230123DBB21846BD4680BC704700BFAF
S32D00010E2080B485B000AF78604FF48053C4F20B031A6B7B681340FB60FB68002B14BF00230123DBB2002BEFD1A3
S32D00010E48FB68184607F11407BD4680BC704700BF80B584B000AF78607B681B7803F03F0247F24C33C0F20103EA
S32D00010E7053F82230FB60FB68002B06D17B681B78002B02D04FF001032FE14FF48053C4F20B034FF48052C4F28B
S32D00010E980B02126B42F080021A634FF48053C4F20B035B6A03F00103002B0CBF00230123DBB2002BF1D14FF4E0
S32D00010EC08053C4F20B037A6852689A60FB6823F44003FB607B685B784FEA835303F44003FA681343FB607B68C9
S32D00010EE85B78022B03D1FB6843F40013FB607B685B78042B16D1FB6803F44033B3F5003F08D1FB6823F44033B9
S32D00010F10FB60FB6843F44033FB6007E0FB6823F44033FB60FB6843F40033FB604FF48053C4F20B034FF48052A9
S32D00010F38C4F20B0252684FEA02424FEA12425A607B68DB68002B31D0FB6803F44033B3F5403F03D0FB6843F496
S32D00010F600013FB607B681B7A002B03D0FB6843F01003FB607B68DB68012B03D9FB6843F02003FB607B68DB6812
S32D00010F88B3F1FF3F12D04FF48053C4F20B034FF48052C4F20B0251687A68D2684FEA02420A435A60FB6843F0D5
S32D00010FB00203FB604FF48053C4F20B034FF000021A604FF48053C4F20B03FA68DA604FF00100C0F20E00FFF7B1
S32D00010FD823FF0346012B0CBF00230123DBB2002B10D04FF48053C4F20B034FF48052C4F20B02126B42F47022B2
S32D0001100042F001021A634FF001036EE04FF48053C4F20B031B6B03F08003002B0CBF00230123DBB2002B0ED0D5
S32D000110284FF48053C4F20B034FF48052C4F20B02126B42F001121A634FF0010351E04FF48053C4F20B031B6BD4
S32D0001105003F48033002B0CBF00230123DBB2002B0ED04FF48053C4F20B034FF48052C4F20B02126B42F0011280
S32D000110781A634FF0FF3334E0FB6803F44033002B21D04FF48053C4F20B031A697B681A61FB6803F44033B3F52E
S32D000110A0803F14D14FF48053C4F20B035A697B685A614FF48053C4F20B039A697B689A614FF48053C4F20B03AD
S32D000110C8DA697B68DA614FF48053C4F20B034FF48052C4F20B02126B42F001021A634FF00003184607F1100708
S32D000110F0BD4680BD80B592B000AF786039604FF00003FB633B68BB6341F29413C1F6FF737B637B6B002B03D1D3
S32D0001111840F6012300F09BBC41F29833C1F6FF733B633B6B002B03D140F60B2300F08FBC3B6B1B68FB62FB6A13
S32D00011140002B03D140F60B2300F085BC7B6841F20432934200F0348241F2043293421BD841F20132934238D0B1
S32D0001116841F20132934207D8032B00F03884092B00F0248400F061BC41F20232934200F00F8241F20332934291
S32D0001119000F0B98300F055BC41F20732934200F0468341F2073293420BD841F20532934200F0308241F2063299
S32D000111B8934200F00B8300F040BC41F20832934200F0B28241F20932934200F0C08200F034BC786B47F2403181
S32D000111E0C0F20101FFF726FDF863FB6B002B40F02C844FF0000387F847304FF0000387F82B304FF0000387F832
S32D000112082A304FF0000387F829304FF0000387F846304FF0000387F828304FF000033B724FF000037B724FF096
S32D000112300003FB604FF000033B744FF000037B6107F108031846FFF707FE0346002B0CBF00230123DBB2002B88
S32D0001125803D04FF00103FB63F8E340F24C4001F0ABF84FF008033B724FF000037B724FF4D573FB604FF0000378
S32D000112803B744FF000037B6107F108031846FFF7E3FD38643B6C002B0BD1BA69FB689A4203D04FF00103FB631B
S32D000112A8D4E34FF0010387F846304FF0010387F8283097F82830002B00F0C5804FF037033B724FF000037B7272
S32D000112D04FF00003FB604FF000033B744FF000037B6107F108031846FFF7B6FD38643B6C002B03D04FF00103B5
S32D000112F8FB63ABE34FF069033B724FF000037B724FF00003FB604FF000033B744FF000037B6107F10803184647
S32D00011320FFF79AFD0346002B0CBF00230123DBB2002B03D04FF00103FB638BE3BB6903F44013002B00F0838065
S32D000113484FF000033B644FF00A0001F035F83B6C03F101033B644FF037033B724FF000037B724FF00003FB60FE
S32D000113704FF000033B744FF000037B6107F108031846FFF769FD0346002B0CBF00230123DBB2002B03D04FF032
S32D000113980103FB6336E04FF069033B724FF000037B7297F84630002B05D04FF00003C4F23003FB6002E04FF477
S32D000113C04013FB604FF000033B744FF000037B6107F108031846FFF73FFD0346002B0CBF00230123DBB2002B70
S32D000113E803D04FF00103FB630CE0BB69002B05DB3B6C632B02D84FF0010301E04FF00003002BA0D1FB6B002BA5
S32D0001141040F01D833B6C632B04D94FF0000387F8463014E04FF0010387F8473097F84630002B0CD04FF0000319
S32D0001143887F84630BB6903F08043002B03D04FF0010387F8463097F82A30002B03D07B6B4FF007021A6097F862
S32D000114602930002B03D07B6B4FF008021A6097F82B30002B03D07B6B4FF004021A6097F84730002B0BD07B6BDE
S32D000114884FF002021A6097F84630002B03D07B6B4FF003021A6097F82B30002B0FD097F84730002B0BD07B6BEB
S32D000114B04FF005021A6097F84630002B03D07B6B4FF006021A604FF45043C4F204034FF000021A604FF450437F
S32D000114D8C4F204034FF000025A604FF45043C4F204034FF000029A604FF45043C4F204034FF00002DA604FF40E
S32D000115005043C4F204034FF000021A614FF45043C4F204034FF000025A61FB6A9A68FB6A5B6810461946FFF7E7
S32D00011528E1FA4FF45043C4F2040340F243421A604FF45043C4F2040340F243425A604FF45043C4F204034FF41B
S32D0001155088629A604FF45043C4F2040340F24342DA604FF45043C4F2040340F243421A614FF45043C4F20403AC
S32D0001157840F243425A614FF4E043C4F204034FF4E042C4F2040202F5815202F11002126842F4003203F5815311
S32D000115A003F110031A6055E2B86BFFF755FC38643B6C002B00F04D824FF00203FB6348E2BB6B002B03D14FF09D
S32D000115C80C03FB6342E24FF48053C4F20B03DB6A03F47F434FEA13234FEA43033B644FF48053C4F20B03DB6ADF
S32D000115F003F0F0034FEA131303F101023B6C02FB03F33B64FB6A9A683B6CB2FBF3F2BB6B1A601FE2BB6B002BC5
S32D0001161803D14FF00C03FB6318E2BB6B1B68002B03D14FF00C03FB6310E2FFF7E1FB0346002B14BF0023012383
S32D00011640DBB2002B70D04FF45043C4F204034FF000021A604FF45043C4F204034FF000025A604FF45043C4F21B
S32D0001166804034FF000029A604FF45043C4F204034FF00002DA604FF45043C4F204034FF000021A614FF45043DE
S32D00011690C4F204034FF000025A61FB6A9A68BB6B1B6810461946FFF721FA4FF45043C4F2040340F243421A60D8
S32D000116B84FF45043C4F2040340F243425A604FF45043C4F204034FF488629A604FF45043C4F2040340F24342FB
S32D000116E0DA604FF45043C4F2040340F243421A614FF45043C4F2040340F243425A614FF4E043C4F204034FF471
S32D00011708E042C4F2040202F5815202F11002126842F4003203F5815303F110031A6095E140F60A23FB6391E12D
S32D00011730BB6B002B03D14FF00C03FB638AE14FF48053C4F20B035B684FEAC3434FEAD343BA6B13607EE1BB6B06
S32D00011758002B03D14FF00C03FB6377E1FFF748FB0346002B14BF00230123DBB2002B29D0BB6B1A6840F6FF7397
S32D000117809A4203D94FF00C03FB6363E14FF48053C4F20B034FF48052C4F20B02526822F4FF5222F01F025A60D2
S32D000117A84FF48053C4F20B034FF48052C4F20B025168BA6B12684FEAC2424FEAD2420A435A6043E140F60A23F0
S32D000117D0FB633FE1BB6B002B03D14FF00C03FB6338E14FF48053C4F20B039B6A03F006034FEA53033B643B6CD2
S32D000117F8002B04D1BB6B4FF000021A6026E13B6C012B04D1BB6B4FF001021A601EE13B6C102B04D1BB6B4FF035
S32D0001182002021A6016E14FF00503FB6312E1BB6B002B03D14FF00C03FB630BE1FFF7DCFA0346002B14BF002399
S32D000118480123DBB2002B56D0BB6B1B68002B16D14FF48053C4F20B034FF48052C4F20B02926A22F006029A62F0
S32D000118704FF48053C4F20B034FF48052C4F20B02926A9A62E6E0BB6B1B68012B18D14FF48053C4F20B034FF4FE
S32D000118988052C4F20B02926A22F006029A624FF48053C4F20B034FF48052C4F20B02926A42F002029A62C9E0F1
S32D000118C0BB6B1B68022B16D14FF48053C4F20B034FF48052C4F20B02926A22F006029A624FF48053C4F20B039E
S32D000118E84FF48052C4F20B02926A9A62AEE04FF00503FB63AAE040F60A23FB63A6E0BB6B002B03D14FF00C038A
S32D00011910FB639FE04FF48053C4F20B034FF48052C4F20B02D26A42F00062DA624FF48053C4F20B03DB6A03F0FB
S32D000119380063002B0CBF00230123DBB2002BF1D14FF48053C4F20B031B6B03F08003002B0CBF00230123DBB2C6
S32D00011960002B0FD04FF48053C4F20B034FF48052C4F20B02126B42F080021A637B6B4FF000021A604FF4805337
S32D00011988C4F20B035B6A03F48033002B0CBF00230123DBB2002B08D07B6B1B68002B08D17B6B4FF001021A6021
S32D000119B003E07B6B4FF000021A607B6B1A68BB6B1A6047E0BB6B4FF01C021A60BB6B03F104034FF004021A6078
S32D000119D8BB6B03F108034FF41E721A6036E04FF00200FFF719FA4FF48053C4F20B031B6B03F4E003002B0CBFDE
S32D00011A0000230123DBB2002B0ED04FF48053C4F20B034FF48052C4F20B02126B42F4E0021A634FF00403FB6372
S32D00011A284FF48053C4F20B034FF48052C4F20B02126B42F032021A6308E040F60923FB6304E000BF02E000BF91
S32D00011A5000E000BFFB6B184607F14807BD4680BD80B489B000AF786039607B687B6141F29413C1F6FF733B6192
S32D00011A783B69002B02D14FF0000380E03B691B68022B0BD03B691B68032B07D03B691B68072B03D03B691B684D
S32D00011AA0082B0DD14FF48053C4F20B035B6A03F00403002B0CBF00230123DBB2002BF1D13B68FB6155E0FB691E
S32D00011AC8B3F5007F28BF4FF40073FB60FB6803F103034FEA9303BB613BE04FF48053C4F20B031B6B03F4E00333
S32D00011AF0002B0CBF00230123DBB2002B10D04FF48053C4F20B034FF48052C4F20B02126B42F4E00242F0200257
S32D00011B181A634FF0000332E04FF48053C4F20B035B6A03F40063002B14BF00230123DBB2002BF1D14FF48053FF
S32D00011B40C4F20B031A6A7B691A607B6903F104037B61BB6903F1FF33BB61BB69002B0CBF00230123DBB2002B96
S32D00011B68BBD1FA69FB68D31AFB61FB69002B0CBF00230123DBB2002BA1D14FF00103184607F12407BD4680BCE5
S32D00011B90704700BF80B58EB000AFB9607A600246FA73BB7341F28013C1F6FF737B63FB7B002B02D1BB7B002B16
S32D00011BB802D14FF0040385E040F20043C1F6FF731B78DBB203F00103002B0CBF00230123DBB2002B02D04FF0C5
S32D00011BE0030373E0BB68002B02D14FF000036DE07B6B1B7B002B03D17B684FEA43237B60BB7B012B2CD14FF057
S32D00011C0811033B754FF000037B757B68BB614FF001033B77BB7B3B6207F1140341F202301946FFF763FA034681
S32D00011C30002B14BF00230123DBB2002B3ED0B8684FF40071FFF70CFF0346002B0CBF00230123DBB2002B31D066
S32D00011C584FF00003BB732DE04FF012033B754FF000037B757B68BB614FF001033B77BB7B3B6207F1140341F2A1
S32D00011C8002301946FFF736FA0346002B14BF00230123DBB2002B11D0BB7B4FEA4323B8681946FFF7DDFE0346E9
S32D00011CA8002B0CBF00230123DBB2002B02D04FF00003BB73BB7B002B02D04FF0010301E04FF00003184607F1E7
S32D00011CD03807BD4680BD00BF80B487B000AF786039607B68FB603B687B6155E07B69B3F5007F28BF4FF4007382
S32D00011CF83B617A693B69D31A7B613B6903F103034FEA93033B613BE04FF48053C4F20B031B6B03F4E003002B48
S32D00011D200CBF00230123DBB2002B10D04FF48053C4F20B034FF48052C4F20B02126B42F4E00242F010021A63E2
S32D00011D484FF0FF332EE04FF48053C4F20B035B6A03F48063002B14BF00230123DBB2002BF1D14FF48053C4F2E9
S32D00011D700B03FA6812681A62FB6803F10403FB603B6903F1FF333B613B69002B0CBF00230123DBB2002BBBD19A
S32D00011D987B69002B0CBF00230123DBB2002BA1D14FF00103184607F11C07BD4680BC704780B58EB000AFB960E4
S32D00011DC07A600246FA73BB7341F28013C1F6FF737B63FB7B002B02D1BB7B002B02D14FF00403CEE040F2004359
S32D00011DE8C1F6FF731B78DBB203F00103002B0CBF00230123DBB2002B02D04FF00303BCE040F20043C1F6FF7346
S32D00011E101B78DBB203F00403002B0CBF00230123DBB2002B02D04FF00203AAE0BB68002B02D14FF00003A4E00D
S32D00011E387B6B1B7B002B03D17B684FEA43237B60BB7B012B2CD14FF018033B754FF000037B757B68BB614FF0CA
S32D00011E6000033B77BB7B3B6207F1140341F202301946FFF73FF90346002B14BF00230123DBB2002B3ED0B86856
S32D00011E884FF40071FFF724FF0346002B0CBF00230123DBB2002B31D04FF00003BB732DE04FF019033B754FF058
S32D00011EB000037B757B68BB614FF000033B77BB7B3B6207F1140341F202301946FFF712F90346002B14BF00230C
S32D00011ED80123DBB2002B11D0BB7B4FEA4323B8681946FFF7F5FE0346002B0CBF00230123DBB2002B02D04FF092
S32D00011F000003BB734FF00D033B754FF000037B757B6B1B69BB614FF000033B774FF000033B6207F1140341F2B5
S32D00011F2802301946FFF7E2F80346002B0CBF00230123DBB2002B02D04FF001031DE07A6A48F20803CFF6D9739F
S32D00011F501340002B02D04FF0010312E07B6A03F4F853B3F5106F0CBF00230123DBB2002BC8D1BB7B002B02D0F9
S32D00011F784FF0010301E04FF00003184607F13807BD4680BD80B58CB000AF0B463A600246FA71BB7141F280134F
S32D00011FA0C1F6FF73BB62FB79002B02D04FF004037EE04FF0010387F82F3040F20043C1F6FF731B78DBB203F0E5
S32D00011FC80103002B0CBF00230123DBB2002B02D04FF0030368E0BB79032B5FD801A252F823F000BFFD1F01001D
S32D00011FF007200100192001002B2001004FF0000387F82F3052E0BB6A9A683B681A604FF0000387F82F3049E035
S32D000120183B684FF400721A804FF0000387F82F3040E04FF009033B724FF000037B72BB6A1B69FB604FF00003FA
S32D000120403B744FF000037B6107F1080341F202301946FFF74FF80346002B0CBF00230123DBB2002B02D04FF051
S32D00012068010321E07B6A03F44003002B11D13B6A4FEA934303F07F0303F101027B6A4FEA132303F0030303F1B7
S32D00012090FF3302FA03F23B681A604FF0000387F82F3003E04FF0040387F82F3097F82F30184607F13007BD463C
S32D000120B880BD00BF80B483B000AF0346FB71FB79002B02D04FF0010305E040F20043C1F6FF731B78DBB218467D
S32D000120E007F10C07BD4680BC704700BF80B483B000AF78604FF4E043C4F204034FF4E042C4F2040202F5815215
S32D0001210802F11802126842F0010203F5815303F118031A604FF00003C4F204037A689A604FF00003C4F20403BD
S32D000121304FF005025A604FF00003C4F204034FF00002C4F20402126842F001021A6000BF4FF00003C4F204039D
S32D000121581B6803F08003002B14BF00230123DBB2002BF1D14FF00003C4F204034FF00002C4F20402126822F018
S32D0001218001021A6000BF07F10C07BD4680BC704780B582B000AF786039607B68012B0AD13A684FF6FF739A424D
S32D000121A805D141F2A030C1F6FF7000F00FF807F10807BD4680BD00BF80B500AF4FF001004FF6FF71FFF7E0FF5E
S32D000121D080BD00BF80B483B000AF78607B684FF000021A707B68184607F10C07BD4680BC704700BF80B582B0E0
S32D000121F800AF78607B681B7883F00103DBB2002B36D04FF4E043C4F2040303F5815303F108034FF400621A6079
S32D000122204FF45043C4F204034FF440721A624FF45043C4F204034FF440725A6241F2A433C1F6FF731B684FEA58
S32D00012248D372D3184FEA63034FF43040C4F20E0019464FF46142FCF76FFF4FF0640000F0ABF87B684FF0010220
S32D000122701A704FF0010301E04FF00003184607F10807BD4680BD00BF80B582B000AF7860F970BA707B704FF43C
S32D000122983040C4F20E004FF07F01FDF76DF84FF43040C4F20E004FF00801FDF765F8FB784FF43040C4F20E00D1
S32D000122C01946FDF75DF8BB784FF43040C4F20E001946FDF755F87B784FF43040C4F20E001946FDF74DF84FF4B8
S32D000122E83040C4F20E004FF0FF01FDF745F807F10807BD4680BD00BF80B487B000AFF860B9607A60FA6844F61C
S32D00012310D353C1F26203A3FB02134FEA9312BB68D3187B61FA6844F6D353C1F26203A3FB02134FEA93134FF436
S32D000123387A7101FB03F3D31AFB60FB684FEAC33244F6D353C1F26203A3FB02134FEA93127B68D3183B613B69A9
S32D000123604FEAD3337A69D3187B613B694FEA43434FEA53433B614FF45043C4F203031A687B699A420FD34FF49E
S32D000123885043C4F203031A687B699A420AD14FF45043C4F203035A683B699A4202D24FF0010301E04FF00003AC
S32D000123B0002BE0D107F11C07BD4680BC704700BF80B584B000AF78604FF45043C4F203031B68FB604FF450431C
S32D000123D8C4F203035B68BB607B681846F968BA68FFF78AFF07F11007BD4680BD80B584B000AFC7E900014FF49E
S32D000124005043C4F203031B68FB604FF45043C4F203035B68BB60D7E900014FF000024FF48043C4F28F03FAF7CF
S32D00012428ABF902460B4610461946FAF767FC03461846F968BA68FFF75FFF07F11007BD4680BD00BF80B584B04A
S32D0001245000AF4FF45043C4F203031B68FB604FF45043C4F203035B68BB60F868FAF712F902460B46C7E9002306
S32D00012478B868FAF70BF902460B46104619464FF000024FF00003C4F2E003FAF79FFA02460B46D7E90001F9F7E2
S32D000124A0BDFF02460B46C7E90023D7E900231046194607F11007BD4680BD00BF80B582B000AF78600B46FB7095
S32D000124C8FB787868194600F007F87B68184607F10807BD4680BD00BF80B483B000AF78600B46FB707B68FA78FE
S32D000124F01A707B681B781A4647F24C43C0F201039B5C042B00F2F48001A252F823F000BF2525010081250100A2
S32D00012518DD25010039260100952601004FF41043C4F204037A681278114647F29042C0F2010252F8212040F2E2
S32D00012540031143F822104FF47043C4F20F034FF47042C4F20F0251697A681278104647F29042C0F2010252F8EB
S32D00012568202002F01F024FF0010000FA02F26FEA02020A405A61B7E04FF42043C4F204037A681278114647F26B
S32D000125909042C0F2010252F8212040F2031143F822104FF24003C4F20F034FF24002C4F20F0251697A6812789B
S32D000125B8104647F29042C0F2010252F8202002F01F024FF0010000FA02F26FEA02020A405A6189E04FF4304392
S32D000125E0C4F204037A681278114647F29042C0F2010252F8212040F2031143F822104FF28003C4F20F034FF281
S32D000126088002C4F20F0251697A681278104647F29042C0F2010252F8202002F01F024FF0010000FA02F26FEAFA
S32D0001263002020A405A615BE04FF44043C4F204037A681278114647F29042C0F2010252F8212040F2031143F825
S32D0001265822104FF2C003C4F20F034FF2C002C4F20F0251697A681278104647F29042C0F2010252F8202002F0D3
S32D000126801F024FF0010000FA02F26FEA02020A405A612DE04FF45043C4F204037A681278114647F29042C0F25A
S32D000126A8010252F8212040F2031143F822104FF47143C4F20F034FF47142C4F20F0251697A681278104647F291
S32D000126D09042C0F2010252F8202002F01F024FF0010000FA02F26FEA02020A405A6100BF07F10C07BD4680BC1E
S32D000126F8704700BF80B485B000AF78604FF00003FB607B681B781A4647F24C43C0F201039B5C042B7FD801A23C
S32D0001272052F823F0392701006727010095270100C3270100F12701004FF47043C4F20F031A697B681B78194666
S32D0001274847F29043C0F2010353F8213003F01F034FF0010101FA03F31340FB605BE04FF24003C4F20F031A6905
S32D000127707B681B78194647F29043C0F2010353F8213003F01F034FF0010101FA03F31340FB6044E04FF280032A
S32D00012798C4F20F031A697B681B78194647F29043C0F2010353F8213003F01F034FF0010101FA03F31340FB609F
S32D000127C02DE04FF2C003C4F20F031A697B681B78194647F29043C0F2010353F8213003F01F034FF0010101FA0A
S32D000127E803F31340FB6016E04FF47143C4F20F031A697B681B78194647F29043C0F2010353F8213003F01F039E
S32D000128104FF0010101FA03F31340FB6000BFFB68002B0CBF00230123DBB2184607F11407BD4680BC704700BFA7
S32D0001283880B584B000AF78600B46FB704FF00B03FB73FA78FB7B786811461A4600F0E6F87B68184607F110076D
S32D00012860BD4680BD80B485B000AF78607B68A3F11003002B01DA03F11F034FEA6313FB60FB68012B46D0022B97
S32D0001288800F08580002B40F0C3804FF46142CEF200024FF46143CEF20003D3F880117B68A3F110004FF01F03F8
S32D000128B0C8F200030340002B05DA03F1FF3363F01F0303F101034FF0010000FA03F30B43C2F880314FF461428D
S32D000128D8CEF200024FF46143CEF2000319687B68A3F110004FF01F03C8F200030340002B05DA03F1FF3363F079
S32D000129001F0303F101034FF0010000FA03F30B43136081E04FF46142CEF200024FF46143CEF20003D3F884118A
S32D000129287B68A3F110004FF01F03C8F200030340002B05DA03F1FF3363F01F0303F101034FF0010000FA03F3CB
S32D000129500B43C2F884314FF46142CEF200024FF46143CEF2000359687B68A3F110004FF01F03C8F200030340A0
S32D00012978002B05DA03F1FF3363F01F0303F101034FF0010000FA03F30B43536040E04FF46142CEF200024FF457
S32D000129A06143CEF20003D3F888117B68A3F110004FF01F03C8F200030340002B05DA03F1FF3363F01F0303F1BC
S32D000129C801034FF0010000FA03F30B43C2F888314FF46142CEF200024FF46143CEF2000399687B68A3F1100011
S32D000129F04FF01F03C8F200030340002B05DA03F1FF3363F01F0303F101034FF0010000FA03F30B43936000BF8A
S32D00012A1807F11407BD4680BC704700BF80B584B000AF786013460A46FA70BB707B68FA781A70BB78FB737B6836
S32D00012A401B781A4647F24C43C0F201039B5C042B00F2F28001A252F823F000BF712A0100E32A0100552B010082
S32D00012A68392C0100C72B01004FF41043C4F204037A681278114647F29042C0F2010252F82110FA7B4FEA0242A3
S32D00012A9002F4702242F4897242F0010243F821204FF47043C4F20F034FF47042C4F20F0251697A6812781046B7
S32D00012AB847F29042C0F2010252F8202002F01F024FF0010000FA02F26FEA02020A405A614FF06700FFF7C2FEA6
S32D00012AE0AAE04FF42043C4F204037A681278114647F29042C0F2010252F82110FA7B4FEA024202F4702242F42C
S32D00012B08897242F0010243F821204FF24003C4F20F034FF24002C4F20F0251697A681278104647F29042C0F223
S32D00012B30010252F8202002F01F024FF0010000FA02F26FEA02020A405A614FF06800FFF789FE71E04FF430431B
